:10000000972101009381017D17010200130181FFF7
:10001000174E0100130E8EBC974E0100938E8ED3A7
:100020006F00C00023200E00130E4E00E36CDEFFB5
:100030001305000093050000EF00402B130504009A
:1000400093021000173301001303C346232053000B
:100050006F000000130101FD232681021304010338
:10006000232EA4FC0327C4FDB72700009387077144
:10007000B307F7022326F4FE130000008327C4FE13
:100080001387F7FF2326E4FEE39A07FE1300000020
:10009000130000000324C102130101036780000064
:1000A000130101FE232E1100232C810013040102F1
:1000B0002326A4FEB747010083A707B613F7F70F5F
:1000C0008327C4FE939787003367F700B747010083
:1000D00023A0E7B6B747010083A707B6138507003B
:1000E000EF108065130000008320C101032481010B
:1000F0001301010267800000130101FF2326110094
:100100002324810013040101B747010083A707B628
:1001100013F7F70FB747010023A0E7B6B747010071
:1001200083A707B613850700EF10006113000000D6
:100130008320C100032481001301010167800000B6
:10014000130101FD2326110223248102130401035C
:10015000232EA4FC930784FE13064000938507001A
:1001600013050000EF204000930705006386070099
:100170009307F0FF6F008004232604FE6F00000346
:100180008327C4FE0327C4FDB307F7000327C4FE7B
:10019000130707FF33078700034787FF2380E70024
:1001A0008327C4FE938717002326F4FE0327C4FE8B
:1001B00093073000E3D6E7FC9307000013850700A0
:1001C0008320C10203248102130101036780000020
:1001D000130101FD232611022324810213040103CC
:1001E000232EA4FC232604FE6F0000038327C4FEF5
:1001F0000327C4FDB307F70003C707008327C4FE26
:10020000938707FFB3878700238CE7FE8327C4FE0D
:10021000938717002326F4FE0327C4FE93073000BC
:10022000E3D6E7FC930784FE13064000938507009E
:1002300013050000EF1010689307050063860700A0
:100240009307F0FF6F0080009307000013850700FD
:100250008320C1020324810213010103678000008F
:10026000130101FE232E1100232C8100130401022F
:10027000930784FE130640009385070013050000D2
:10028000EF10906E93070500638607009307000048
:100290006F008004232604FE6F0000038327C4FE42
:1002A000938707FFB387870003C787FF9307F00F84
:1002B0006306F700930710006F0000028327C4FE57
:1002C000938717002326F4FE0327C4FE930730000C
:1002D000E3D6E7FC93070000138507008320C101E4
:1002E000032481011301010267800000130101FB57
:1002F00023261104232481041304010537050290E9
:10030000EF10C0341307100093060000130680009E
:10031000B7C7010093850720B7E7F50513850710D8
:10032000EF00D04D13053005EF00107F1305400599
:10033000EF00907E13051004EF00107E13052005DA
:10034000EF00907D13054005EF00107D1305D000F0
:10035000EF00907C1305A000EF00107C13850100D6
:10036000EF000067232604FE6F008006130540059A
:10037000EF00907A13055004EF00107A1305300552
:10038000EF00907913054005EF0010791305000286
:10039000EF0090788327C4FE93F7F70F9387070346
:1003A00093F7F70F13850700EF0010771305D000C0
:1003B000EF0090761305A000EF00107613054006BD
:1003C000EFF05FC98327C4FE938717002326F4FE4E
:1003D0000327C4FE93074000E3DAE7F837050390EC
:1003E000EF10806C37050390EF10007A9306000041
:1003F0001306000093050000B70701001385F7FFFF
:10040000EF10C0361305F000EF100033EFF0DFCE31
:100410001385C101EF00C05B13054006EFF09FC3D9
:1004200037050490EF10D01B13850103EF00405AED
:1004300013054006EFF01FC2232404FCEFF05FE237
:100440009307050063840706930784FB1385070061
:10045000EFF01FCF93070500639807029307100082
:100460002324F4FC930720002324F4FE1385410485
:10047000EF0000561385C105EF0080551385010874
:10048000EF0000556F008004232404FC232404FEA5
:100490001385010AEF00C0531385810BEF00405311
:1004A0001385410EEF00C0526F004002232404FC6C
:1004B000232404FE1385010AEF0080511385810B6C
:1004C000EF0000511385410EEF008050A30304FE9E
:1004D000230304FE232004FE232E04FCA30D04FCAE
:1004E000930750002322F4FC9307A0002320F4FC80
:1004F000EF10100193070500A30FF4FA8347F4FBF4
:10050000638207380347F4FB834764FE631EF734B6
:10051000832704FE938717002320F4FE232E04FC78
:10052000032704FE832744FC6366F7388347B4FD42
:100530006392073893071000A30DF4FC0347F4FB04
:10054000930710046310F704832784FE6388070071
:10055000032784FE93072000631EF73493071000DF
:100560002324F4FEA30304FE13850112EF0040468A
:1005700013850114EF00C04513858116EF00404537
:100580006F0040330347F4FB93072004631CF7021A
:10059000032784FE93071000631EF73093072000A3
:1005A0002324F4FEA30304FE13854104EF0040421C
:1005B0001385C105EF00C04113850108EF004041DC
:1005C0006F00402F0347F4FB93074004631AF722A0
:1005D000032784FE930710006316F70E034774FE8B
:1005E00093074000631AF70A930744FB138507003B
:1005F000EFF01FBE93070500639A0706232A04FC49
:100600006F000003832744FD938707FFB3878700AC
:1006100003C747FC832744FD938707FFB387870001
:100620002384E7FC832744FD93871700232AF4FCE7
:10063000032744FD93073000E3D6E7FC1385C11779
:10064000EF000039930720002324F4FEA30304FEE7
:100650001385011AEF00C0371385C105EF0040373D
:1006600013850108EF00C0366F00C0241385411BBD
:10067000EF000036232404FEA30304FE1385811D2E
:10068000EF0000351385810BEF0080341385410E98
:10069000EF0000346F0000221385C11EEF004033CD
:1006A000A30304FE232404FE1385811DEF004032C2
:1006B0001385810BEF00C0311385410EEF004031EF
:1006C0006F00401F032784FE930720006314F71E6A
:1006D000034774FE930740006316F70E930710005C
:1006E0002328F4FC232604FC6F00C0038327C4FCEA
:1006F000938707FFB387870003C747FC8327C4FCA2
:10070000938707FFB387870083C787FC6306F700DB
:10071000232804FC6F00C0018327C4FC93871700C3
:100720002326F4FC0327C4FC93073000E3D0E7FC46
:10073000832704FD638A0704930730002324F4FE13
:1007400013051000EFF0DF951385C120EF0040285E
:10075000B7170000138587BBEFF0DF8FEFF0DF994D
:10076000930720002324F4FEA30304FE1385011A3B
:10077000EF0000261385C105EF00802513850108D1
:10078000EF0000256F00001313052000EFF05F91CC
:1007900013854122EF00C0231305803EEFF09F8BAD
:1007A000EFF09F95A30304FE1385011AEF0040228A
:1007B0001385C105EF00C02113850108EF0040211A
:1007C0006F00400F13052000EFF09F8D138541222D
:1007D000EF0000201305803EEFF0DF87EFF0DF91A0
:1007E000A30304FE1385011AEF00801E1385C105C3
:1007F000EF00001E13850108EF00801D6F00800BC5
:100800000347F4FB9307F00263F6E70A0347F4FBA0
:100810009307900363E0E70A032784FE9307100021
:100820006308F700032784FE930720006314F7088A
:10083000034774FE9307300063EEE706834774FEB8
:10084000938707FFB38787000347F4FB2382E7FC06
:10085000834774FE93871700A303F4FE1305A002D9
:10086000EF00902B6F0000058347F4FB2303F4FE99
:10087000930710002320F4FE232E04FCA30D04FC98
:100880006F004003834764FE638607028327C4FD2D
:1008900093871700232EF4FC0327C4FD832704FC51
:1008A000636AF700230304FE232004FE232E04FCC6
:1008B000A30D04FC13051000EFF0CFF96FF05FC338
:1008C000130101FE232E1100232C810013040102C9
:1008D0002326A4FE2324B4FE8327C4FE93F7F70F38
:1008E00013850700EF0050239307050013850700C9
:1008F0008320C101032481011301010267800000EC
:10090000130101FE232E1100232C81001304010288
:100910002326A4FE8327C4FE93F7F70F1385070051
:10092000EF00901F93070500138507008320C10186
:10093000032481011301010267800000130101FEFD
:10094000232E1100232C8100130401022326A4FE70
:10095000EF00501893070500138507008320C1019D
:10096000032481011301010267800000130101FFCC
:10097000232611002324810013040101EF009015A8
:1009800093070500138507008320C100032481001D
:100990001301010167800000130101FD23261102EC
:1009A0002324810213040103232EA4FC0325C4FD88
:1009B000EF00101D2326A4FE8327C4FE1385070025
:1009C0008320C10203248102130101036780000018
:1009D000130101FB232611022324810213040103C6
:1009E000232EA4FC2322B4002324C4002326D400F5
:1009F0002328E400232AF400232C0401232E1401CD
:100A000093070402232CF4FC832784FD938747FE7D
:100A10002324F4FE832784FE938507000325C4FD69
:100A2000EF00C0282326A4FE8327C4FE13850700F9
:100A30008320C102032481021301010567800000A5
:100A4000130101FD23261102232481021304010353
:100A5000232EA4FC232CB4FC232AC4FC232604FE4E
:100A6000032784FD9307A0006318F7028327C4FDC2
:100A700063D407021305D002EF00100A1307050024
:100A80008327C4FEB307F7002326F4FE8327C4FDA3
:100A9000B307F040232EF4FC832784FD0327C4FD15
:100AA000B357F7022324F4FE832784FE63980700DC
:100AB000032744FD9307100063D8E702832744FD12
:100AC0009387F7FF232AF4FC032644FD832584FD46
:100AD000032584FEEFF0DFF6130705008327C4FE2D
:100AE000B387E7002326F4FE832784FD0327C4FD94
:100AF000B377F702138707009387C123B387E70013
:100B000083C7070013850700EF00100113070500D6
:100B10008327C4FEB307F7002326F4FE8327C4FE11
:100B2000138507008320C1020324810213010103FE
:100B300067800000130101FD232611022324810296
:100B400013040103232EA4FC232CB4FC232404FE51
:100B5000930500000325C4FDEF00517393070500C2
:100B600063D607021305D002EF00007B13070500D0
:100B7000832784FEB307F7002324F4FE0327C4FD74
:100B8000B7070080B347F700232EF4FC0325C4FD0C
:100B9000EF10416F930705002322F4FE832744FEE4
:100BA000032684FD9305A00013850700EFF05FE99D
:100BB00013070500832784FEB387E7002324F4FE90
:100BC0001305E002EF00407513070500832784FE3C
:100BD000B307F7002324F4FE032544FEEF108171D0
:100BE00093070500938507000325C4FDEF108126B8
:100BF00093070500232EF4FC232604FE83A5812AF7
:100C00000325C4FDEF00517393070500232EF4FC68
:100C10000325C4FDEF100167930705002322F4FEAE
:100C2000832744FE93F7F70F9387070393F7F70F94
:100C300013850700EF00406E13070500832784FE2D
:100C4000B307F7002324F4FE032544FEEF10816A66
:100C500093070500938507000325C4FDEF10811F4E
:100C600093070500232EF4FC8327C4FE9387170007
:100C70002326F4FE930500000325C4FDEF00915ADE
:100C800093070500638807000327C4FE93075000FD
:100C9000E3D6E7F6832784FE138507008320C1028D
:100CA000032481021301010367800000130101FC8A
:100CB000232E1102232C8102130401042326A4FCF9
:100CC0002324B4FC232004FE6F000030032784FE9D
:100CD000930750026310F72C8327C4FC83C70700D7
:100CE0002324F4FE232604FE6F0040040327C4FEE1
:100CF0009307070093972700B387E70093971700A0
:100D000013870700832784FEB307F700938707FD47
:100D10002326F4FE8327C4FC938717002326F4FCC4
:100D20008327C4FC83C707002324F4FE032784FE23
:100D30009307F00263D8E700032784FE930790032C
:100D4000E3D6E7FA8327C4FC138717002326E4FCC5
:100D500083C707002324F4FE032784FE9307500271
:100D60006308F71E032784FE930750026340F720B1
:100D7000032784FE9307800763CAE71E032784FEC8
:100D8000930730066344F71E832784FE9387D7F9C1
:100D900013075001636CF71C1397270093870125F5
:100DA000B307F70083A7070067800700832784FC49
:100DB000138747002324E4FC83A70700A30BF4FC5C
:100DC000834774FD13850700EF00005513070500E6
:100DD000832704FEB307F7002320F4FE6F00C01E34
:100DE000832784FC138747002324E4FC83A70700A0
:100DF000232EF4FC8327C4FD0326C4FE9305800044
:100E000013850700EFF0DFC313070500832704FEF7
:100E1000B387E7002320F4FE6F00001B832784FCC8
:100E2000138747002324E4FC83A70700232EF4FC48
:100E30008327C4FD0326C4FE9305A0001385070085
:100E4000EFF01FC013070500832704FEB387E700F8
:100E50002320F4FE6F004017832784FC138747008C
:100E60002324E4FC83A70700232EF4FC8327C4FD7E
:100E70000326C4FE9305000113850700EFF05FBC55
:100E800013070500832704FEB387E7002320F4FE41
:100E90006F008013832784FC138747002324E4FC1E
:100EA00083A707002322F4FE6F008004832744FEFB
:100EB00083C7070013850700EF00004613070500EE
:100EC000832704FEB307F7002320F4FE832744FEA4
:100ED00003C707009307A0006316F7001305D000AF
:100EE000EF008043832744FE938717002322F4FEFC
:100EF000832744FE83C70700E39A07FA6F00C00CFC
:100F0000832784FC9387770093F787FF13878700F5
:100F10002324E4FC03A7070083A747001305070069
:100F200093850700EF10416E93070500232CF4FC16
:100F30008325C4FE032584FDEFF0DFBF1307050002
:100F4000832704FEB387E7002320F4FE6F00C00769
:100F500013055002EF00403C13070500832704FEF1
:100F6000B307F7002320F4FE6F00000613055002BC
:100F7000EF00803A13070500832704FEB307F7004C
:100F80002320F4FE8327C4FC9387F7FF2326F4FC79
:100F90006F008003832784FE93F7F70F1385070004
:100FA000EF00803713070500832704FEB307F7001F
:100FB0002320F4FE032784FE9307A0006316F700A6
:100FC0001305D000EF0040358327C4FC13871700BA
:100FD0002326E4FC83C707002324F4FE832784FE32
:100FE000E39607CE832704FE138507008320C10301
:100FF000032481031301010467800000130101FC35
:10100000232E1102232C810213040104232EA4FC9D
:10101000232CB4FC232AC4FC2328D4FC2326E4FC80
:101020008327C4FD63960700EF00C05E232EA4FC57
:101030000327C4FD832784FDB357F70213850700F8
:10104000EFD0D06C130705009387050003A6012B92
:1010500083A6412B1305070093850700EFB0D073DB
:101060001307050093870500130507009385070004
:10107000EFD050579307050013870700B70701000B
:101080009387F7FFB377F7002326F4FE032744FD89
:10109000930780006316F700930700006F0080003D
:1010A000B70701000327C4FEB3E7E7002326F4FED9
:1010B000832704FD63960700930700006F008000FC
:1010C000B70702000327C4FEB3E7E7002326F4FEB8
:1010D000032704FD930710006316F7009307000031
:1010E0006F008000B70704000327C4FEB3E7E700E2
:1010F0002326F4FE0327C4FC930710006316F700B1
:10110000930700006F008000B70708000327C4FEA4
:10111000B3E7E7002326F4FEB747010083A707B72C
:101120002324F4FE832784FE0327C4FE23A0E700C4
:10113000130000008320C103032481031301010471
:1011400067800000130101FC232E1102232C810271
:1011500013040104232EA4FC232CB4FC232AC4FC76
:101160002328D4FC2326E4FC2324F4FC232204FDBE
:101170008327C4FD63960700EF00C049232EA4FC1B
:101180000327C4FD832784FDB357F70213850700A7
:10119000EFD0D057130705009387050003A6012B56
:1011A00083A6412B1305070093850700EFB0D05E9F
:1011B00013070500938705001305070093850700B3
:1011C000EFD050429307050013870700B7070100CF
:1011D0009387F7FFB377F7002326F4FE032744FD38
:1011E000930780006316F700930700006F008000EC
:1011F000B70701000327C4FEB3E7E7002326F4FE88
:10120000832704FD63960700930700006F008000AA
:10121000B70702000327C4FEB3E7E7002326F4FE66
:10122000032704FD930710006316F70093070000DF
:101230006F008000B70704000327C4FEB3E7E70090
:101240002326F4FE0327C4FC930710006316F7005F
:10125000930700006F008000B70708000327C4FE53
:10126000B3E7E7002326F4FE832784FC6396070098
:10127000930700006F008000B70720000327C4FE1B
:10128000B3E7E7002326F4FE832744FC63960700B8
:10129000930700006F008000B70710000327C4FE0B
:1012A000B3E7E7002326F4FEB747010083A707B79B
:1012B0002324F4FE832784FE0327C4FE23A0E70033
:1012C000130000008320C1030324810313010104E0
:1012D00067800000130101FE232E81001304010228
:1012E000B747010083A7C7B72324F4FE832784FEF2
:1012F00083A707002326F4FE8327C4FEE3D207FE5C
:101300008327C4FE93F7F70F138507000324C10159
:101310001301010267800000130101FD23268102F1
:101320001304010393070500A30FF4FCB747010062
:1013300083A787B72324F4FE832784FE83A70700AF
:101340002326F4FE8327C4FEE3C207FE8347F4FD91
:101350002326F4FEB747010083A787B72322F4FEB4
:10136000832744FE0327C4FE23A0E7008347F4FD40
:10137000138507000324C1021301010367800000E5
:10138000130101FC232E8102130401042326A4FC73
:10139000232604FE6F008004B747010083A787B7A8
:1013A0002320F4FE832704FE83A707002322F4FEF4
:1013B000832744FEE3C207FEB747010083A787B730
:1013C000232EF4FC8327C4FD0347B4FE23A0E700CB
:1013D0008327C4FE938717002326F4FE8327C4FCCB
:1013E000138717002326E4FC83C70700A305F4FE38
:1013F0008347B4FEE39207FA8327C4FE13850700F0
:101400000324C1031301010467800000130101FCE0
:10141000232E1102232C8102130401042326A4FC91
:101420000327C4FC9307A000B357F7022326F4FE5A
:101430008327C4FE638807008327C4FE1385070043
:10144000EFF0DFFC0327C4FC9307A000B377F7029B
:1014500093F7F70F93870703A305F4FEB74701003F
:1014600083A787B7232AF4FC832744FD83A70700BB
:10147000232CF4FC832784FDE3C207FEB747010059
:1014800083A787B72328F4FC832704FD0347B4FE12
:1014900023A0E700130000008320C103032481037D
:1014A0001301010467800000130101FC232E1102C7
:1014B000232C8102130401042326A4FC8327C4FCEB
:1014C00093D747002324F4FE832784FE6388070014
:1014D000832784FE13850700EFF01FFD8327C4FCDC
:1014E00093F7F7002324F4FE032784FE930790006C
:1014F00063CCE700832784FE93F7F70F93870703F6
:10150000A307F4FE6F004001832784FE93F7F70FD3
:1015100093877703A307F4FEB747010083A787B734
:101520002320F4FE832704FE83A707002322F4FE72
:10153000832744FEE3C207FEB747010083A787B7AE
:10154000232EF4FC8327C4FD0347F4FE23A0E70009
:10155000130000008320C10303248103130101044D
:1015600067800000130101FE232E81001304010295
:10157000B747010083A747B72324F4FE832784FEDF
:1015800083A707002326F4FE8327C4FE93F7E7FF13
:101590002326F4FEB747010083A747B72322F4FEB2
:1015A000832744FE0327C4FE23A0E70013000000A6
:1015B0000324C1011301010267800000130101FE31
:1015C000232E810013040102B747010083A747B708
:1015D0002324F4FE832784FE83A707002326F4FE3A
:1015E0008327C4FE93F7D7FF2326F4FEB7470100F5
:1015F00083A747B72322F4FE832744FE0327C4FEB4
:1016000023A0E700130000000324C101130101021D
:1016100067800000130101FE232E810013040102E4
:10162000B747010083A707B82324F4FE832784FE6D
:1016300083A707002326F4FE8327C4FE1385070033
:101640000324C1011301010267800000130101FEA0
:10165000232E8100130401022326A4FEB7470100B4
:101660000327C4FE23A2E7B6B74701000327C4FE41
:1016700023A4E7B68327C4FE13874700B7470100BA
:1016800023A6E7B68327C4FE13870701B7470100E7
:1016900023A8E7B68327C4FE13874701B747010095
:1016A00023AAE7B68327C4FE13878701B747010043
:1016B00023ACE7B68327C4FE1387C701B7470100F1
:1016C00023AEE7B68327C4FE13870702B74701009E
:1016D00023A0E7B8130000000324C1011301010295
:1016E00067800000130101FF23268100130401011C
:1016F000B747010083A747B6138507000324C1003D
:101700001301010167800000130101FE232E8100F7
:1017100013040102B747010083A747B983A7070055
:101720002326F4FE8327C4FE138507000324C1018A
:101730001301010267800000130101FE232E8100C6
:10174000130401022326A4FEB747010083A787B92B
:10175000138707008327C4FE2320F700130000002F
:101760000324C1011301010267800000130101FD80
:101770002326810213040103232EA4FC232CB4FC92
:10178000232AC4FC2328D4FC232604FEB7470100E7
:1017900083A707B9138707008327C4FD2320F70019
:1017A000B747010083A787B9138707008327C4FEC3
:1017B0002320F700B747010083A747BA1387070024
:1017C000832784FD2320F700B747010083A787BA4A
:1017D00013870700832744FD2320F700832704FD98
:1017E00093C7F7FF2326F4FEB747010083A7C7B9C5
:1017F000138707008327C4FE2320F700130000008F
:101800000324C1021301010367800000130101FDDD
:101810002326810213040103232EA4FC8327C4FD85
:1018200093C7F7FF2326F4FEB747010083A7C7B984
:10183000138707008327C4FE2320F700B747010062
:1018400083A7C7B983A707002326F4FE8327C4FE16
:10185000138507000324C102130101036780000000
:10186000130101FE232E8100130401022326A4FE8E
:10187000B747010083A747BA138707008327C4FE31
:101880002320F700B747010083A747BA83A70700C3
:101890002326F4FE8327C4FE138507000324C10119
:1018A0001301010267800000130101FE232E810055
:1018B000130401022326A4FEB747010083A787BAB9
:1018C000138707008327C4FE2320F700B7470100D2
:1018D00083A787BA83A707002326F4FE8327C4FEC5
:1018E000138507000324C101130101026780000072
:1018F000130101FE232E810013040102B7470100EA
:1019000083A707BA83A707002326F4FE8327C4FE14
:10191000138507000324C101130101026780000041
:10192000130101FD2326810213040103232EA4FCCD
:10193000B747010083A707BA83A707002326F4FE51
:101940000327C4FE8327C4FDB377F7002326F4FEE4
:10195000B747010083A707BA138707008327C4FE90
:101960002320F700B747010083A707BA83A7070022
:10197000232EF4FC8327C4FD138507000324C10232
:101980001301010367800000130101FE232E1100E3
:10199000232C810013040102B747010083A787B8F5
:1019A00083A707002326F4FE8325C4FE1385812B1D
:1019B000EF00D020B747010083A7C7B883A707006F
:1019C0002326F4FE8325C4FE1385012DEF00101F8E
:1019D000B747010083A707B983A707002326F4FEB2
:1019E0008325C4FE1385812EEF00501DB7470100EB
:1019F00083A747B983A707002326F4FE8325C4FEE7
:101A000013850130EF00901BB747010083A787B90A
:101A100083A707002326F4FE8325C4FE13858131A6
:101A2000EF00D019B747010083A7C7B983A7070004
:101A30002326F4FE8325C4FE13850133EF0010181E
:101A4000B747010083A707BA83A707002326F4FE40
:101A50008325C4FE13858134EF005016B74701007B
:101A600083A747BA83A707002326F4FE8325C4FE75
:101A700013850136EF009014B747010083A787BA9A
:101A800083A707002326F4FE8325C4FE1385813730
:101A9000EF00D012130000008320C1010324810154
:101AA0001301010267800000130101FE232E810053
:101AB000130401022326A4FEB74701000327C4FE36
:101AC00023A2E7B8B74701000327C4FE23A4E7B861
:101AD0008327C4FE13874700B747010023A6E7B852
:101AE0008327C4FE13870701B747010023A8E7B87F
:101AF0008327C4FE13874701B747010023AAE7B82D
:101B00008327C4FE13878701B747010023ACE7B8DA
:101B10008327C4FE1387C701B747010023AEE7B888
:101B20008327C4FE13870702B747010023A0E7BA43
:101B30008327C4FE13874702B747010023A2E7BAF1
:101B40008327C4FE13878702B747010023A4E7BA9F
:101B500093070000138507000324C101130101024C
:101B600067800000130101FF232681001304010197
:101B7000B747010083A747B8138507000324C100B6
:101B80001301010167800000130101FD23261102EA
:101B90002324810213040103232EA4FCB747010070
:101BA0000327C4FD23A6E7BA0325C4FDEFF0DFEF4A
:101BB0009307F0002326F4FE1305F000EFF0DFB7E3
:101BC0009306000013060000930500000325C4FEE1
:101BD000EFF0DFB9130000008320C102032481026B
:101BE0001301010367800000130101FD2326110288
:101BF0002324810213040103B747010083A7C7BA56
:101C000013850700EFF05FEA232604FE6F00800CC7
:101C10008327C4FE13071000B317F70093C7F7FF1D
:101C200093F7F7002322F4FE032544FEEFF0DFB024
:101C300093074006232CF4FC13000000832784FD47
:101C40001387F7FF232CE4FCE39A07FEEFF0DFABEA
:101C50002320A4FE832704FE93D7470093F7F700C1
:101C6000232EF4FC0327C4FD9307F000630EF70452
:101C7000232404FE6F008004832784FE13071000D2
:101C8000B317F700138707008327C4FDB377F70066
:101C9000639007021305F000EFF01FAA832784FE6C
:101CA000139727008327C4FEB307F7006F000004D3
:101CB000832784FE938717002324F4FE032784FEE2
:101CC00093073000E3DAE7FA8327C4FE938717000F
:101CD0002326F4FE0327C4FE93073000E3DAE7F27D
:101CE0001305F000EFF05FA59307F0FF13850700E1
:101CF0008320C102032481021301010367800000D5
:101D0000130101FE232E1100232C81001304010274
:101D1000EFF09FED2326A4FE8327C4FE63C20706CF
:101D20000327C4FE9307F00063CCE7048327C4FEB7
:101D300013D7F74113773700B307F70093D727403E
:101D40002324F4FE0327C4FE9357F74193D7E701FA
:101D50003307F70013773700B307F7402322F4FE69
:101D600013870139832744FE939727003307F70031
:101D7000832784FEB307F70083C707006F00800046
:101D800093070000138507008320C101032481010C
:101D90001301010267800000130101FD2326810267
:101DA00013040103232EA4FC0327C4FD930740065C
:101DB000B307F7022326F4FE130000008327C4FEB6
:101DC0001387F7FF2326E4FEE39A07FE13000000C3
:101DD000130000000324C102130101036780000007
:101DE000130101FE232E8100130401022326A4FE09
:101DF000B74701000327C4FE23A8E7BAB74701008D
:101E00000327C4FE23AAE7BA8327C4FE138747002B
:101E1000B747010023ACE7BA8327C4FE13878700C6
:101E2000B747010023AEE7BA8327C4FE1387C70074
:101E3000B747010023A0E7BC8327C4FE138707012F
:101E4000B747010023A2E7BC8327C4FE13874701DD
:101E5000B747010023A4E7BC130000000324C1011D
:101E60001301010267800000130101FF2326810096
:101E700013040101B747010083A707BB13850700BF
:101E80000324C1001301010167800000130101FE5A
:101E9000232E1100232C810013040102B727000018
:101EA000938707712324F4FEB747010083A787BCFB
:101EB00083A707002326F4FE8327C4FE93F71700A9
:101EC000639007028327C4FE93F727006386070009
:101ED0009307F0FF6F00C002930700006F004002FD
:101EE0001305A000EFF05FEB832784FE9387F7FFD5
:101EF0002324F4FE832784FEE39807FA9307F0FF78
:101F0000138507008320C10103248101130101020D
:101F100067800000130101FD2326110223248102A2
:101F2000130401039307050013870500A30FF4FCB6
:101F300093070700230FF4FCB747010083A787BB73
:101F400013870700930700052320F700B747010018
:101F500083A7C7BB138707008347F4FD2320F7003F
:101F6000B747010083A707BC138707008347E4FD39
:101F70002320F700B747010083A747BB138707005B
:101F8000930710002320F700EFF05FF093070500A0
:101F9000638607009307F0FF6F004001B71700004A
:101FA00013858738EFF05FDF930700001385070084
:101FB0008320C10203248102130101036780000012
:101FC000130101FD232611022324810213040103BE
:101FD00093070500232CB4FCA30FF4FCB7470100C2
:101FE00083A787BB13870700930700052320F7000B
:101FF000B747010083A7C7BB138707008347F4FDDA
:102000002320F700B747010083A707BC23A00700E0
:10201000B747010083A747BB13870700930710004A
:102020002320F700EFF09FE6930705006386070083
:102030009307F0FF6F00C0061305803EEFF0DFD579
:10204000B747010083A787BB1387070093070005E5
:102050002320F700B747010083A747BB138707007A
:10206000930730002320F700EFF05FE293070500AD
:10207000638607009307F0FF6F008002B7470100F7
:1020800083A747BC83A707002326F4FE8327C4FE4B
:1020900013F7F70F832784FD2380E70093070000E1
:1020A000138507008320C102032481021301010369
:1020B00067800000130101FD232611022324810201
:1020C0001304010393070500232CB4FC1307060037
:1020D000A30FF4FC93070700230FF4FC0347E4FD70
:1020E0009307400063F6E7009307F0FF6F00800658
:1020F000A30704FE6F0000058347F4FD1387070064
:102100008347F4FEB307F70093F6F70F8347F4FE17
:10211000032784FDB307F70083C7070093850700F3
:1021200013850600EFF01FDF9307050063860700A5
:102130009307F0FF6F0000028347F4FE93871700B8
:10214000A307F4FE0347F4FE8347E4FDE366F7FAD2
:1021500093070000138507008320C1020324810236
:102160001301010367800000130101FD2326110202
:10217000232481021304010393070500232CB4FCDC
:1021800013070600A30FF4FC93070700230FF4FCCA
:10219000A30704FE6F00C0048347F4FD1387070004
:1021A0008347F4FEB307F70093F6F70F8347F4FE77
:1021B000032784FDB307F700938507001385060006
:1021C000EFF01FE093070500638607009307F0FF19
:1021D0006F0000028347F4FE93871700A307F4FE05
:1021E0000347F4FE8347E4FDE368F7FA9307000032
:1021F000138507008320C102032481021301010318
:1022000067800000130101FE232E810013040102E8
:102210002326A4FE9307F0FF138507000324C101C2
:102220001301010267800000130101FE232E8100CB
:10223000130401022326A4FE2324B4FE2322C4FE99
:1022400093070000138507000324C1011301010255
:1022500067800000130101FE232E81001304010298
:102260002326A4FE2324B4FE2322C4FE93070000E9
:10227000138507000324C1011301010267800000D8
:10228000130101FE232E8100130401022326A4FE64
:102290002324B4FE2322C4FE832744FE13850700B3
:1022A0000324C1011301010267800000130101FE34
:1022B000232E8100130401022326A4FE2324B4FE4E
:1022C0009307F0FF138507000324C10113010102E6
:1022D00067800000130101FE232E81001304010218
:1022E0002326A4FE93070000138507000324C101E1
:1022F0001301010267800000130101FE232E8100FB
:10230000130401022326A4FE9307F0FF13850700A0
:102310000324C1011301010267800000130101FEC3
:10232000232E8100130401022326A4FE13000000C3
:102330006FF0DFFF130101FE232E81001304010261
:102340002326A4FE2324B4FE9307F0FF1385070081
:102350000324C1011301010267800000130101FF82
:102360002326810013040101930710001385070041
:102370000324C1001301010167800000130101FC67
:102380002324C1022326D1022328E102232AF102B9
:10239000232C0103232E11031386050083258500BA
:1023A00093068102232E11002326D100EF000006A0
:1023B0008320C1011301010467800000374301003D
:1023C0000323C3BC130101FC2324C1022326D10231
:1023D0002322B1022328E102232AF102232C010344
:1023E000232E110383258300930641021306050063
:1023F00013050300232E11002326D100EF00000156
:102400008320C1011301010467800000130101E36F
:102410002326111C2324811C2322911C2328611BA9
:1024200093840500130B0600232AD1001304050032
:102430002324A100EF30501F0327050013050700D8
:102440002328E102EF4040012326A1022328010CAA
:10245000232A010C232C010C232E010C63080400F9
:1024600003274403631407006F10500D8396C400C4
:1024700003A74406139626016340060237E6FFFFD2
:102480001306F6FFB7250000B3E6B6003377C700A2
:102490002396D40023A2E4069316270163D40600F2
:1024A0006F20C0380397C40093768700638E062E92
:1024B00083A60401638A062E1377A7019306A00062
:1024C0006306D730232E311B232C411B2320A11B55
:1024D0002320211D232A511B2326711B2324811B0A
:1024E0002322911B232EB119130D0B009387415505
:1024F00003470D009309C10E2322310D2326010C41
:102500002324010C23200102232A01022320010499
:10251000232E010223240104232201042326010087
:10252000232CF10013840900138A817563000722AC
:1025300013090D0093065002630AD73E03471900A2
:1025400013091900E31A07FEB30AA9416300A92180
:102550008326C10C0327810C2320A401B3865601D6
:1025600013071700232254012326D10C2324E10C46
:10257000930670001304840063C2E63C8327C10005
:1025800003470900B38757012326F1006300071CA6
:1025900083481900A303010A13091900930AF0FFE5
:1025A000930B0000930C0000130BA00513091900F6
:1025B000938708FE6366FB04032781019397270036
:1025C000B387E70083A7070067800700930B00002D
:1025D000938708FD930690008348090013972B000A
:1025E000B30B7701939B1B00B38B7701938708FD97
:1025F00013091900E3F2F6FE938708FEE37EFBFA67
:102600006386081423061113A303010A930D100017
:10261000130B1000130DC11223280100930A0000B0
:102620002324010223220102232E010093F22C0015
:1026300063840200938D2D0093FF4C080326C10C88
:1026400063960F003387BB41E34CE0440347710AB4
:10265000630A07020327810C9305710A2320B40043
:102660001306160093051000130717002322B40069
:102670002326C10C2324E10C93057000130484006D
:1026800063C2E53E638A02020327810C93052000A2
:1026900013062600130717009307810A2322B400AC
:1026A0002320F4002326C10C2324E10C93057000A1
:1026B00013048400E3C2E55013070008E38CEF1C09
:1026C000B38A6A41E348502D13F70C10E31C07024C
:1026D0008327810C330666012320A401938717000A
:1026E000232264012326C10C2324F10C130770005C
:1026F000634AF74A1304840013FE4C0063060E007D
:10270000B38ABB41E342504F13830B0063D4BB0138
:1027100013830D008327C100B38767002326F100D0
:10272000E3180634832701012324010C6388070082
:102730008325010103258100EF4040071384090030
:10274000130D090003470D00E31407DE8327C10CB6
:10275000638407006F10903683D7C4000329011CDF
:102760008329C11B93F70704032A811B832A411B7A
:10277000832BC11A032C811A832C411A032D011AB1
:10278000832DC119638407006F20400A8320C11C78
:102790000324811C0325C1008324411C032B011B3E
:1027A0001301011D6780000003258100938504004B
:1027B000EF30C03B630405006F2040070397C4005F
:1027C0009306A0001377A701E31ED7CE0397E4007A
:1027D000E34A07CE832641010325810013060B003F
:1027E00093850400EF2040472326A1006FF01FFAD5
:1027F000032C810013050C00EF3000638327450094
:10280000138507002322F104EF30104593070500DC
:1028100013050C002324F104138C0700EF30C06073
:1028200003278500232EE102E3140C70834809007E
:102830006FF0DFD78348090093EC0C026FF01FD7CD
:1028400093EC0C0193F70C02638E0736832741014A
:10285000138C7700137C8CFF83274C00032B0C0018
:1028600013078C00232AE100938D070063C6073805
:10287000938E0C0063C20A4EB367BB0193FEFCF754
:10288000639C074C63900A4E130B0000938C0E0060
:10289000130D01190347710A938D0A0063D46A016D
:1028A000930D0B002328010023240102232201029F
:1028B000232E0100E30C07D6938D1D006FF01FD768
:1028C00093EC0C0193F70C026380073C83274101D2
:1028D000138C7700137C8CFF032B0C00832D4C0092
:1028E00093078C00232AF10093FEFCBF930700009E
:1028F00013070000A303E10A63C20A323367BB0176
:1029000093FCFEF7E31A071863980A72E390075CDA
:1029100013FB1E00130D0119E30E0BF693070003C2
:10292000A307F118130DF1186FF0DFF6B30AA941F0
:10293000E310A9C3034709006FF05FC503258100B9
:102940001306410C93850400EF20C03DE31605E01B
:10295000138409006FF09FC213F78C00E312076223
:10296000832741011305010923281101138C7700E6
:10297000137C8CFF83250C0003264C0093078C00EE
:10298000232AF100EFF0902783250109032641094E
:10299000832681090327C109832801011305010D3D
:1029A00023281101232EE10C2328B10C232AC10C6A
:1029B000232CD10CEF40403A2326A10A1307200014
:1029C000832801016314E5006F10C03C1307100059
:1029D0006314E5006F104051130710066394E8007C
:1029E0006F0090761307100493078005E380E87664
:1029F0001307F0FF6394EA006F20800A13F7F8FDD5
:102A000093067004232801006316D70063940A001C
:102A1000930A1000032CC10D93E70C102326F10438
:102A2000232C0102832F010D032F410D832E810DD5
:102A3000635A0C00370700809307D002334C87019C
:102A4000232CF1021387F8FB93065002E3E4E674AB
:102A5000131727009386016C3307D700032707005D
:102A600067000700032581001306410C93850400CD
:102A7000232811052326F105232C5102EF20802A5B
:102A8000E31205000326C10C83280105832FC1042E
:102A900083228103138409006FF0DFBE832A810C37
:102AA00083270102130710002320A401130C160032
:102AB000938A1A00130B8400E352F73213071000B5
:102AC0002322E4002326810D2324510D13077000D7
:102AD000635457016F1080088327C1020327010345
:102AE000938A1A00330CFC002320EB002322FB0006
:102AF0002326810D2324510D13077000130B8B0027
:102B0000635457016F10C0070327010D832701028B
:102B1000930501082328E1080327410D1305010946
:102B200023200108232AE1080327810D232201081D
:102B300023240108232CE1080327C10D23260108C3
:102B40001384F7FF232EE108EFC04044E308052C6F
:102B500093071D00938A1A00330C8C002320FB007E
:102B600023228B002326810D2324510D930770000F
:102B7000130B8B00E3C25729832601041307410B73
:102B800093871A00338686012320EB002322DB0083
:102B90002326C10C2324F10C1307700013048B00AF
:102BA000E35CF7B4032581001306410C9385040010
:102BB000EF2040176318056C0326C10C138409002D
:102BC0006FF09FB30327410193F70C01032B07001C
:102BD00013074700232AE100E396073493F70C0418
:102BE000E38E0732131B0B01135B0B41935DFB411B
:102BF00093870D00E3DE07C61307D002B3376001E9
:102C0000B30DB041A303E10AB38DFD40330B604126
:102C1000938E0C0093071000E3D20ACE1307100026
:102C2000638CE712130720006384E742130D011938
:102C30009397DD0113777B00135B3B0013070703BA
:102C400033EB670193DD3D00A30FEDFEB367BB01DE
:102C500013060D00130DFDFFE39C07FC93F61E0009
:102C60006382064293060003630ED7401306E6FF15
:102C700093070119A30FDDFE338BC740938C0E0021
:102C8000130D06006FF01FC10327410193F70C01DC
:102C9000032B070013074700232AE100E39C0726C4
:102CA00093F70C04E3840726131B0B01135B0B0142
:102CB000930D00006FF05FC303274101A303010AD6
:102CC000930D10008327070013074700232AE10014
:102CD0002306F112130B1000130DC1126FF0DF93D6
:102CE00083274101A303010A03AD0700138C4700AA
:102CF000E30C0D3663D40A006F10001913860A0026
:102D00009305000013050D00232A1101EF20507ACE
:102D10002328A10083284101631405006F10D032DD
:102D2000832701010347710A232A8101338BA741BD
:102D30009346FBFF93D6F64123280100232401028A
:102D400023220102232E0100B37DDB00930A000041
:102D5000E31407B66FF09F8DE39E0D649307900018
:102D6000E3EA6765130B0B03A3076119938C0E004D
:102D7000130B1000130DF1186FF0DFB18327410121
:102D800083AB070093874700E3D00B16B30B70416A
:102D9000232AF1008348090093EC4C006FF01F8157
:102DA0009307B00283480900A303F10A6FF01F8064
:102DB0008348090093EC0C086FF04FFF834809002B
:102DC0009307A002930619006394F8006F105062F5
:102DD000938708FD13079000930A000013069000E4
:102DE0006364F70283C8060013972A00B30A5701E9
:102DF000939A1A00B38AFA00938708FD9386160007
:102E0000E372F6FEE3C60A1A138906006FF04FFA62
:102E10008348090093EC1C006FF04FF98347710A57
:102E200083480900639407F893070002A303F10A9B
:102E30006FF0CFF793EE0C0193F70E02E38E0704C9
:102E400083274101138C7700137C8CFF93078C0040
:102E5000232AF100032B0C00832D4C009307100054
:102E60006FF01FA98348090093EC8C006FF00FF4FA
:102E700003274101B7870000938707832314F10AD2
:102E800093074700232AF1009387013B232AF1028D
:102E9000032B0700930D000093EE2C0093072000F6
:102EA000930880076FF0DFA493F70C02E384070A0E
:102EB000832741018326C10083A7070013D7F6416A
:102EC00023A0D70023A2E70083274101130D0900A7
:102ED00093874700232AF1006FF0DF8683480900BB
:102EE0009307C006E38AF81493EC0C016FF00FEC23
:102EF0008348090093078006E388F81293EC0C04DA
:102F00006FF0CFEA13075006E35A17B90327010DF4
:102F100093050108130501092328E1080327410D42
:102F2000232CC10223200108232AE1080327810D55
:102F30002322010823240108232CE1080327C10DC3
:102F400023260108232EE108EFC040040326810355
:102F5000631205548327810C1387013E2320E4006C
:102F60001306160013071000938717002322E400AE
:102F70002326C10C2324F10C1307700013048400D2
:102F8000E344F75C8327C10A0327010263D6E77491
:102F9000832701030327C10213048400232CF4FEBA
:102FA0008327810C3306E600232EE4FE9387170067
:102FB0002326C10C2324F10C13077000E346F70805
:102FC00083270102938AF7FF635850F313888175B2
:102FD000130700018327810C130B0001130C7000F1
:102FE000130D0800634857016F005058938A0AFF79
:102FF000E35C5B5713060601938717002320A401A7
:10300000232264012326C10C2324F10C1304840021
:10301000E35EFCFC032581001306410C938504004C
:10302000EF105050631005260326C10C8327810C36
:10303000138409006FF09FFB130710006394E700EF
:103040006F10501613072000938E0C00E390E7BE1C
:1030500083264103130D01199377FB00B387F60014
:1030600003C70700135B4B009397CD0133EB670158
:1030700093DD4D00A30FEDFEB367BB01130DFDFF04
:10308000E39C07FC93070119338BA741938C0E0037
:103090006FF05F80338CBB41635480E31305000104
:1030A0008325810C138881756350850B232C2103A4
:1030B00093070400930E000113040C00930F70009B
:1030C000130C0B0013090800138B0A00938A0800E5
:1030D0006F00C000130404FF63DA8E0413060601B8
:1030E0009385150023A0270123A2D7012326C10C15
:1030F0002324B10C93878700E3DEBFFC0325810006
:103100001306410C93850400EF10D041631C051693
:10311000930E0001130404FF0326C10C8325810CC8
:1031200093870900930F7000E3CA8EFA1308090011
:103130000329810393880A00930A0B00130B0C00E8
:10314000130C0400138407003306860193851500D1
:1031500023200401232284012326C10C2324B10C43
:103160001307700013048400635CB7D40325810047
:103170001306410C93850400232C1103EF10903AA1
:10318000631205100326C10C8328810313840900F0
:103190006FF00FD3130700018325810C138881750D
:1031A00063525709930704001307000113840A00B0
:1031B000130C7000232C1103930A0A006F00C00047
:1031C000130404FF63588704130606019385150052
:1031D00023A0470123A2E7002326C10C2324B10C1E
:1031E00093878700E35EBCFC032581001306410C36
:1031F00093850400EF1010336316050813070001D0
:10320000130404FF0326C10C8325810C9387090056
:10321000E34C87FA8328810313880A00930A040089
:1032200013840700330656019385150023200401FB
:10323000232254012326C10C2324B10C1307700050
:10324000130484006352B7C8032581001306410CA0
:1032500093850400232C1103EF10D02C6314050276
:103260000326C10C83288103138409006FF0CFC5A6
:10327000032581001306410C93850400EF10902A6A
:10328000630205CA83250101638805CC03258100FB
:10329000EF30C0516FF04FCC938E0C006FF01F9841
:1032A000130500018325810C138C81766358E50A90
:1032B000232821059307040013090C00930E000135
:1032C000130C0B0093037000138B0A00232C510284
:1032D0002326F10513040700938A08006F00C0003D
:1032E000130404FF63DA8E041306060193851500A8
:1032F00023A0270123A2D7012326C10C2324B10C2C
:1033000093878700E3DEB3FC032581001306410C9D
:1033100093850400EF101021E31605F6930E0001CB
:10332000130404FF0326C10C8325810C9387090035
:1033300093037000E3CA8EFA93880A008322810304
:10334000930A0B00832FC104130B0C00130C09000C
:103350000329010513070400138407003306E60060
:10336000938515002322E400232084012326C10C29
:103370002324B10C13077000130484006358B7AC06
:10338000032581001306410C9385040023281105B1
:103390002326F105232C5102EF10D018E31405EE7B
:1033A0000326C10C83280105832FC10483228103D6
:1033B000138409006FF08FA9032581001306410CC7
:1033C0009385040023261105232CF103EF1090159B
:1033D000E31A05EA0326C10C8328C104832F810365
:1033E000138409006FF04FAD130700018327810C90
:1033F000138C817663525707032D8100130B000154
:10340000930C70006F00C000938A0AFF63565B053F
:1034100013060601938717002320840123226401E9
:103420002326C10C2324F10C13048400E3DEFCFCEE
:103430001306410C9385040013050D00EF10900E48
:10344000E31205E4938A0AFF0326C10C8327810C4B
:1034500013840900E34E5BFB330656019387170084
:1034600023208401232254012326C10C2324F10CA0
:1034700013077000635AF7A8032581001306410C57
:1034800093850400EF10100AE31E05DE0326C10C2D
:103490006FF08FA70325C10AE354A0028327C1015F
:1034A00003270102938A0700634EF72E63565003E9
:1034B0000327810C330656012320A40113071700AC
:1034C000232254012326C10C2324E10C9305700010
:1034D00013048400E3C6E55613C7FAFF8327C1012E
:1034E0001357F741B3FAEA00B38A5741634C503996
:1034F0008327C10113F70C40330CFD00E3140730A0
:10350000832AC10A8327010263C6FA3E13F71C000F
:103510006312073E03270102B307ED00B30A5741C8
:10352000338B874163D46A01138B0A0063586003AD
:103530008327810C330666012320840193871700BB
:10354000232264012326C10C2324F10C13077000ED
:10355000130484006354F7006F10C0319347FBFFDE
:1035600093D7F741337BFB00B38A6A416356509986
:1035700013888175130700018327810C130B000149
:10358000130C7000130D0800634857016F00007E94
:10359000938A0AFF635A5B7D13060601938717001F
:1035A0002320A401232264012326C10C2324F10C2F
:1035B00013048400E35EFCFC032581001306410C28
:1035C00093850400EF100076E31E05CA0326C10CA4
:1035D0008327810C138409006FF09FFB93F51C0077
:1035E000639E05CC2322E4002326810D2324510D64
:1035F0009307700063D257D9032581001306410C4D
:1036000093850400EF100072E31E05C6032CC10C65
:10361000832A810C138B09006FF00FD60327010258
:103620009307100063DAE7D49307100113888175BC
:10363000E3D4E70A232E210193070001130D700044
:10364000130908006F00C000130404FFE3D28708C9
:10365000130C0C01938A1A0023202B012322FB0058
:103660002326810D2324510D130B8B00E35E5DFD9A
:10367000032581001306410C93850400EF10806A36
:10368000E31205C0032CC10C832A810C138B0900A3
:10369000930700016FF05FFB0327410193F70E01D1
:1036A000032B070013074700232AE100639A07044E
:1036B00093F70E0463800704131B0B01135B0B01CC
:1036C000930D0000930710006FF08FA2130B000002
:1036D000130D01196FF00F9C93F71C006394070002
:1036E0006FF08F816FF0DF8A83480900232AF10091
:1036F0006FE0DFEB93F70E2063840700137BFB0F73
:10370000930D0000930710006FF08F9E93F70C202D
:10371000E3920738930D00006FF00F9D93F70C2094
:10372000E3900736935DFB4193870D006FF00F9494
:103730008327C10383480900639407006FE01FE7F4
:1037400083C70700639407006FE05FE693EC0C40CB
:103750006FE0DFE593F70C01639E076A93F70C04B3
:10376000E396073013FE0C2063060E6A832741019F
:103770000327C10083A707002380E7006FF0CFF481
:103780008327410103A7070093874700232AF100FD
:103790008325070003264700832687000327C700E9
:1037A0006FF0CF9F930A0700E34450D16FF0DFD250
:1037B000930AF0FF138906006FE09FDF9387413C77
:1037C000232AF10293F70C02638207368327410113
:1037D000138C7700137C8CFF032B0C00832D4C0083
:1037E00093078C00232AF10093F71C00638E0700D7
:1037F000B367BB01638A0700930700032304F10A40
:10380000A304110B93EC2C0093FEFCBF9307200044
:103810006FF00F8E938E0C006FF00FE29387013BD9
:10382000232AF1026FF01FFA8348190093EC0C2051
:10383000130919006FE09FD78348190093EC0C021D
:10384000130919006FE09FD6032581001306410C70
:1038500093850400EF10004DE31605A20326C10C6A
:10386000138409006FF0CFF593076000138B0A00F3
:10387000E3EA571F930D0B00232A8101138D813D2D
:103880006FE09FD9930500010327810C1388817590
:1038900063DE556793070400130C0001130B7000DF
:1038A000130408006F00C000938A0AFF635C5C6524
:1038B000130606011307170023A0870023A2870120
:1038C0002326C10C2324E10C93878700E35EEBFCE5
:1038D000032581001306410C93850400EF108044FA
:1038E000E312059A0326C10C0327810C9387090074
:1038F0006FF09FFB032701038327C102930570002C
:103900002320E4000327810C3306F6002322F40071
:10391000130717002326C10C2324E10C1304840091
:10392000E3DAE5BE032581001306410C938504000C
:10393000EF10403FE3180594832AC10A0326C10C07
:10394000138409006FF01FBD93078007130700035E
:103950002304E10AA304F10A130730062328010017
:1039600093EC2C00130DC1126356578B0325810075
:1039700093851A0023281101EF50805483280101F8
:10398000130D0500631405006F10402A2328A100C1
:103990006FF04F8803258100130B01091307C10A3B
:1039A0001308C10B9307010B93860A00130620002E
:1039B00093050B00232411032328F1092322F1038B
:1039C000232AE1092320E103232CD109232ED1014D
:1039D000232E8109EF30400E13F71C00832EC10106
:1039E000032F0102832F410283288102130D05005A
:1039F000E31607108327C10A232EF1008327C10B8A
:103A0000B387A7402320F1028327C1011307D0FF0A
:103A100063C4E700E3D4FA588327C1019388E8FF21
:103A20001387F7FF2326E10A93F6F80F1306000029
:103A3000230AD10A9306B002635A07008327C10103
:103A4000130710009306D0023307F740A30AD10AE8
:103A50009306900063C4E6006F1080011308310CD8
:103A6000930508001305A000130F3006B367A702E3
:103A700013860500930607009385F5FF93870703D8
:103A8000A30FF6FE3347A702E342DFFE1307070347
:103A90009306E6FFA38FE5FE63E406016F10801432
:103AA0001307610B83C706009386160013071700E0
:103AB000A30FF7FEE39806FF930701193387C7406A
:103AC000930777F32320F10483270102832601045F
:103AD00013071000338BD7006344F7006F00107D8D
:103AE0008327C102330BFB009346FBFF13FEFCBF91
:103AF00093D6F64193670E102326F104B37DDB00C5
:103B00002324010223220102232E010083278103A3
:103B1000E38A07461307D002832CC104A303E10AFA
:103B2000930A0000938D1D006FE05FB003274101F1
:103B300093F70C01032B070013074700232AE1002A
:103B40006396070693F70C04638E0704131B0B019F
:103B5000135B0B01930D00006FF01FC9032581005B
:103B60001306410C93850400EF10C01B631C05F085
:103B7000032CC10C832A810C138B09006FE0DFF545
:103B8000032581001306410C93850400EF10801972
:103B9000631A05EE032CC10C832A810C138B0900D8
:103BA0006FE09FF693F70C20639C076E930D000067
:103BB0006FF09FC337D8CCCCB7DCCCCC0327C10384
:103BC00013FF0E401306000093050119130E500059
:103BD0001308D8CC938CCCCC130CF00F6F0040059D
:103BE000B3376D01B307FD00B3F7C703B307FB405D
:103BF000B335FB00B385BD4033839703B38505031D
:103C000033B50703B3856500B3870703B385A50004
:103C10001395F50193D5150093D71700B367F500F9
:103C2000E3800D40938D0500138B070093850600FC
:103C3000330DBB01B3376D01B307FD00B3F7C70305
:103C40009386F5FF13061600B307FB403335FB00E0
:103C50003385AD4033B3070333050503B38707034B
:103C6000330565001315F50193D71700B367F50009
:103C700013952700B307F50093971700B307FB4090
:103C800093870703A38FF5FEE30C0FF48347070028
:103C9000E318F6F4E30686F5639C0D2A930790007B
:103CA00063E8672B138D0600930701192320C102D7
:103CB000232EE102338BA741938C0E006FE09FBD52
:103CC0000327810C9385013E2320B40013061600C0
:103CD00093051000130717002322B4002326C10CFC
:103CE0002324E10C930570001304840063C2E552A1
:103CF000631C05128327010213F71C003367F700CA
:103D0000631407006FE05F9F032701038327C1024D
:103D1000930570002320E4000327810C3386C7003D
:103D20002322F400130717002326C10C2324E10CDF
:103D300063C0E55A130484006F004012032581001C
:103D4000EF10C0696FE08FF2032581001306410C6C
:103D500093850400EF00107D631605D20326C10C85
:103D6000138409006FF00FA213080D002320040133
:103D70002322540133065601938717002326C10CD2
:103D80002324F10C130770006344F7006FE09F9643
:103D90006FE05FE18327010D930501081305010919
:103DA0002328F1088327410D23200108232201083D
:103DB000232AF1088327810D2324010823260108E3
:103DC000232CF1088327C10D232EF108EFB0C03B4F
:103DD00083280101E34205260347710A9307700413
:103DE00063DC1745138D413A232801002324010287
:103DF00023220102232E010093FCFCF7930D3000D7
:103E0000130B3000930A0000630407006FE0DFAA81
:103E10006FE0DF81832741010327C10083A70700EB
:103E200023A0E7006FF04F8A032701038327C10215
:103E3000930570002320E4000327810C3386C7001C
:103E40002322F400130717002326C10C2324E10CBE
:103E50001304840063CEE546E34A05348327010258
:103E6000130717002320A4013386C7002322F40080
:103E70002326C10C2324E10C9307700063C4E700E0
:103E80006FE05F876FE01FD213050D00232C110335
:103E9000EF20805C0347710A9346F5FF93D6F64105
:103EA000232A810123280100232401022322010265
:103EB000232E010083288103130B0500B37DD50059
:103EC000930A0000630407006FE01F9F6FE00FF686
:103ED000130809000329C101330C8C00938A1A00CE
:103EE00023200B016FE0DFC78327C10D63C0073CB0
:103EF0000347710A93077004E3C6171B138D813AB9
:103F00006FF09FEE13080400138407003306560178
:103F10001307170023200401232254012326C10C78
:103F20002324E10C930570001304840063D2E5DCC4
:103F3000032581001306410C93850400EF00905E79
:103F4000631205B40326C10C138409006FF04FDA25
:103F50008327810483254104232C0103B386F64083
:103F600013860700138506002324E1032322D103CF
:103F700023201103232EE1002328D100EF10905FAE
:103F8000B3376D0113065000B307FD00B3F7C70246
:103F90000327C10137D3CCCC37D5CCCC8345170010
:103FA0001303D3CC1305C5CCB335B0003307B7002A
:103FB0008326010183280102832E4102032F8102FF
:103FC0000328810313060000130E5000B307FB40C3
:103FD000B335FB00B385BD403385A702B3856502C9
:103FE000B3BF6702B385A50033856702B385F501CA
:103FF0009397F50193D5150013551500B3E7A70066
:104000006FF05FC283270102032B4102B307FD005B
:10401000232C210323269105232871052322B10394
:10402000832D81022324A103832CC103130D0C00D3
:1040300003298100032C8104130870001307000179
:10404000938A817593050400938B0700635660097A
:10405000635EB015938DFDFF83274104330686010F
:1040600023A2850123A0F5008327810C2326C10C00
:1040700093858500938717002324F10C634EF81273
:1040800083C60C003384AB4163D4860013840600DE
:10409000635680028326810C3306860023A0A50187
:1040A0009386160023A285002326C10C2324D10C5D
:1040B0006348D81283C60C00938585001345F4FF2E
:1040C0001355F541B377A4003384F640634280046E
:1040D000330DDD00E34E60F7E34EB0F783270102B6
:1040E000130C0D00032D8102232E9103032981035C
:1040F0003307FD00832CC104832B0105832D41026E
:1041000013840500637E87BF130C07006FF04FBF59
:104110008326810C138F817563548706232E5101EA
:104120006F00C000130404FF635A870413060601DE
:104130009386160023A0550123A2E5002326C10C77
:104140002324D10C93858500E35ED8FC1306410C33
:104150009385040013050900EF00D03C6314059219
:1041600013070001130404FF0326C10C8326810CEE
:104170009385090013087000E34A87FA032FC101F1
:10418000330686009386160023A0E50123A285004E
:104190002326C10C2324D10C634AD86483C60C00A7
:1041A00093858500330DDD006FF0DFF2938CFCFF0B
:1041B000130BFBFF6FF05FEA1306410C93850400BD
:1041C00013050900EF001036631E058A0326C10C93
:1041D0009385090013070001130870006FF05FEA70
:1041E0001306410C9385040013050900EF0090337A
:1041F000630405006FF00F8983C60C000326C10C11
:104200009385090013070001130870006FF01FEB7E
:10421000032581001306410C93850400EF009030C4
:10422000630405006FF00F860325C10A0326C10C45
:10423000138409006FF0DFAB138D013A6FF0DFBA22
:10424000032581001306410C93850400EF00902D97
:10425000630405006FF00F830326C10C138409006B
:104260006FF08FA7130B60006FF0CFE08327410141
:104270000327C10083A707002390E7006FE0DFC496
:10428000131B8B01135B8B41935DFB4193870D00E7
:104290006FE0CFDD137BFB0F930D00006FE0CFE4E9
:1042A000137BFB0F930D00006FF00FD49307D00228
:1042B000A303F10A1307D0026FF0DFC303258100C7
:1042C0001306410C93850400EF00D0256FE0CFC8A2
:1042D000032581001306410C93850400EF00902410
:1042E000630405006FE01FFA0325C10A0326C10C11
:1042F0000327810C138409006FF01FB633075501A3
:10430000130670049305010813050B002322E10234
:104310002320C102232E11012328F109232AE109B8
:10432000232CD109232E81092320010823220108EF
:104330002324010823260108EFA050458328C1014A
:104340000326010203274102630205568327C10B9E
:1043500063FEE7009305000393861700232ED10A1E
:104360002380B7008327C10BE3E8E7FE0327C10AD8
:10437000232EE100B387A741130770042320F10225
:104380006304E6E813076004630CE65A8327C1015F
:104390001387F7FF6FF00FE993861A0013062000CA
:1043A00003258100130B01091307C10A93050B00B4
:1043B0001308C10B9307010B232811052324D102F5
:1043C0002328F1092322F103232AE1092320E10311
:1043D000232CD109232ED101232E8109EF20C06D7A
:1043E00083280105832681029305600413F6F8FDF6
:1043F000832EC101032F0102832F4102130D0500FB
:104400003307D500E31EB60003450D0093050003F6
:104410006306B54A8326C10A930501083307D7000E
:104420006FF09FEE130B0109930501081306C10AF3
:1044300013050B00232011052320F1092322E10994
:104440002324D109232EB10023268109EF208009DE
:10445000032701098325C101130601072320E10871
:104460000327410913050B00232801062322E10835
:1044700003278109232A0106232C01062324E108AE
:104480000327C1092326E1083707FC3F232EE10655
:10449000EFA090628325C101032F0109832E4109FA
:1044A0000328810913050B002324B1022322E10311
:1044B0002320D103232E01012320010823220108F8
:1044C0002324010823260108EFA0502C832DC109C5
:1044D0000328C101832E0102032F4102832581029B
:1044E0008328010463160500130710002326E10A40
:1044F00013071006638EE8689387413C232EF10072
:1045000023202103232491032320710523268104E2
:1045100013090D0023289104232AA1058324C10136
:10452000938AFAFF23221103930B0F00138C0E00C2
:10453000930C0800138D0D00138405006F00C00359
:104540009305040013050B0023287109232A810910
:10455000232C9109232EA1092320010823220108DD
:104560002324010823260108938DFAFFEFA01022CF
:104570006306055C938A0D00B70703401306010725
:104580009305040013050B00232EF1062320710967
:1045900023228109232491092326A1092328010626
:1045A000232A0106232C0106EFA0105113050B004E
:1045B000EFD0802293050500930D050013050B0035
:1045C000032D0109832C4109032C8109832BC10987
:1045D000EFD0003083260109130601069305010779
:1045E0002320D10683264109130504002328A107AF
:1045F0002322D10683268109232A9107232C8107B0
:104600002324D1068326C109232E71072326D10630
:10461000EFB0D04AB386B40103C60600930F090079
:1046200013091900832B0108032C4108832C8108EE
:10463000032DC1089307F0FFA30FC9FEE392FAF020
:1046400083284102138F0B00930E0C0013880C007B
:1046500093050400232CB105B70AFE3F930D0D000E
:1046600013050B00232E11052322F10383240105DA
:10467000832B0104832C81020324C1042328E10934
:104680002328E105232AD1092326D105232C01095A
:1046900023200105232EB10923200108232201082C
:1046A00023240108232651092324B102EFA0D01AA4
:1046B000130C0900032D410503290102832F410238
:1046C0008328C1056346A0028325810213050B00E0
:1046D00023201103EFA0900B83280102631E050421
:1046E00083278105832F410293F617006386060412
:1046F0008327C101232EF10B0346FCFF83C5F7007E
:1047000093060C006310B60213050003A38FA6FEE8
:104710008326C10B9387F6FF232EF10A03C6F6FF0B
:10472000E386C5FE930516001305900393F5F50F78
:104730006304A604A38FB6FE8327C10A3307AC41E6
:104740002320E1021387F7FF232EF1001306100642
:104750002326E10A930600076386C8009306000536
:1047600093081004130610006FF08FAC93860A00B4
:10477000130630006FF0DFC28327C10183C5A70095
:104780006FF05FFB0347710A832CC104930A00009A
:10479000630407006FE04F926FD05FE98327010247
:1047A0000327C1016348F71C8327C10113F71C00CD
:1047B000138B0700630607000327C102338BE70052
:1047C00013FE0C4063060E008327C1016348F02EE0
:1047D0009346FBFF93D6F641B37DDB00930870064A
:1047E00023240102232201026FF04FB21306410C71
:1047F0009385040013050900EF00C052630405000F
:104800006FE05FA883C60C000326C10C93850900E6
:104810001307000113087000330DDD006FF09F8B4C
:1048200013059000636065C16FF0CFC79307F0FF79
:104830002326F1006FD09FF59307D002A303F10A5E
:104840001307D0026FF08FD90347710A232A810121
:104850002324010223220102232E0100938D0A004A
:10486000138B0A00930A0000630407006FE0CF84F3
:104870006FD0DFDB032581001306410C9385040014
:10488000EF00404A630405006FE0DF9F832AC10AFE
:10489000832701020326C10C13840900B38A574100
:1048A0006FE0DFCB138DC13A6FF00FD48327C10ABD
:1048B000232EF100930707006FF0DFAB930501088B
:1048C00013050B00232EE104232CC104232A110518
:1048D0002328D1042328F1092324F103232AE10901
:1048E0002322E103232CD1092320D103232EB1005D
:1048F000232E8109232001082322010823240108F3
:1049000023260108EFA080688325C101832E0102C0
:10491000032F4102832F810283260105832841054D
:10492000032681050327C105631A05268327C10ACB
:104930003307F700232EF100B307A7412320F1022C
:104940008327C10113F71C00336757016352F02618
:1049500063160722032BC1019308600613FE0C4067
:1049600063100E169346FBFF93D6F641B37DDB0032
:104970006FF01FE7832701020327C1029308700627
:10498000338BE7008327C101E34AF0FC330FFB4080
:10499000130B1F009346FBFF93D6F641B37DDB005C
:1049A0006FF01FE4938E0C006FE0CFBB930500FF08
:1049B000B30AA040138881756358B506232E2101E0
:1049C000130B0001130C7000130908006F00C000E6
:1049D000938A0AFF63565B05130606011307170047
:1049E00023202401232264012326C10C2324E10C6B
:1049F00013048400E35EECFC032581001306410CE4
:104A000093850400EF000032630405006FE09F8788
:104A10000326C10C0327810C138409006FF05FFB90
:104A2000130809000329C1013306560113071700B3
:104A300023200401232254012326C10C2324E10C4A
:104A40009305700063D8E5AE032581001306410C81
:104A500093850400EF00002D630405006FE09F8242
:104A60000326C10C0327810C138409006FF00FBFCC
:104A70009306610B6318060093060003230BD10A0B
:104A80009306710B930701193386F640130707034A
:104A90009307D60D2380E6002320F1046FF0CF8228
:104AA00023280100930A60006FD0DFF613F71C0083
:104AB000631407006FF04F836FF08F8293087006C6
:104AC0000326C1039306F00F034706006304D714BF
:104AD0008327C1011305000093050000635EF70002
:104AE000B387E74003471600630407049385150066
:104AF00013061600E314D7FE232EC1022322B102AF
:104B00002324A102232EF1008327810203274102DF
:104B10003387E700832781043307F702330B6701EC
:104B20009346FBFF93D6F641B37DDB006FE01FFE9B
:104B300003470600130515006FF0DFFB130C090097
:104B400093861A0083284102832C8102832B01045F
:104B50000324C1040329010283240105032D410517
:104B6000B306DC0013060003E3C80ABC130C1C00E8
:104B7000A30FCCFEE31CDCFE6FF01FBC0327C102B9
:104B800093086006338FEA00330BFF006FF01FDDE0
:104B90009387013B232EF1006FF09F9613051000C1
:104BA000B306D5402326D10A3307D7006FF0CFF5DF
:104BB000631A0700930D100093086006130B100092
:104BC0006FF01FC28327C10293086006138F17007E
:104BD000330B5F019346FBFF93D6F641B37DDB00B9
:104BE0006FF01FC0930720002320F1046FE0DFED7A
:104BF0008327410183AA07009387470063D40A00F3
:104C0000930AF0FF83481900232AF1001389060054
:104C10006FD0DF9923240102232201026FF0DFEE1F
:104C200013065004930501086FF00FEE83D7C400FC
:104C300093E707042396F4006FD01FB237470100B3
:104C4000930705000325C7BC9306060013860500DD
:104C5000938507006FD08FFB130101B88397C500C0
:104C600003D7E500232C814613840500B705010016
:104C70009385D5FF032E44060323C40183284402F1
:104C800013170701B3F7B700B3E7E70013080040B5
:104C9000232AF1009305810093070107232A9146F7
:104CA00023282147232E1146130905002326C10777
:104CB00023226102232611032324F100232CF10077
:104CC00023280101232E010123200102EFD00FF43C
:104CD00093040500635C05028357410193F70704C1
:104CE000638807008357C40093E707042316F40082
:104CF0008320C1470324814703290147138504000A
:104D00008324414713010148678000009305810017
:104D100013050900EF00802AE30005FC9304F0FF6F
:104D20006FF09FFB83278600130101FF232481007E
:104D30002326110013040600639E07008320C10090
:104D40002322040003248100130500001301010144
:104D500067800000EF00806E8320C10023240400E0
:104D60002322040003248100130101016780000055
:104D70000397C500130101FE232C81002326310176
:104D8000232E1100937787001384050093090500F3
:104D900063900712B71700009387078083A645002A
:104DA000B367F7002396F5006352D01803288402F6
:104DB0006304080E232A91009316370183A4090087
:104DC00023A009008325C40163CE06161306000044
:104DD0009306100013850900E70008009307F0FF11
:104DE000130605006304F51A8317C4000328840220
:104DF0008325C40193F74700638E0700032744000F
:104E0000832704033306E640638607008327C40331
:104E10003306F6409306000013850900E7000800FA
:104E20009307F0FF6314F51283A609009307D001DE
:104E30000317C40063EAD716B7074020938717000B
:104E4000B3D7D70093F71700638007160326040132
:104E5000B7F7FFFF9387F77FB377F7002316F400C8
:104E6000232204002320C4009317370163D40700D2
:104E7000638206108325040323A099006384051030
:104E8000930704046386F50013850900EF101012E0
:104E90008324410123280402130500008320C1015B
:104EA000032481018329C1001301010267800000EE
:104EB0002328210103A9050163020908232A91007F
:104EC00083A405001377370023A02501B384244170
:104ED000930700006314070083A745012324F4000F
:104EE000634890006F0040053309A90063569004A1
:104EF000832744028325C401938604001306090016
:104F000013850900E7800700B384A440E34EA0FCAA
:104F10000317C40003290101136707048324410117
:104F20002316E4001305F0FF6FF05FF783A6C503B7
:104F3000E34ED0E66FF05FF68324410103290101BF
:104F40006FF09FF5032604056FF0DFEA0317C40036
:104F500083260401B7F7FFFF9387F77FB377F70046
:104F60002316F400232204002320D40093173701D2
:104F7000E3D207F0832504032328A40423A0990087
:104F8000E39005F0832441016FF01FF183A709002E
:104F9000E38C07E41307D001638CE700130760017B
:104FA0006388E7000317C400136707046FF01FF757
:104FB00023A09900832441016FF01FEE130101FE2D
:104FC000232C8100232E1100130405006306050025
:104FD00083274503638A07028397C500639C070004
:104FE0008320C10103248101130500001301010284
:104FF0006780000013050400032481018320C101A0
:10500000130101026FF0DFD62326B100EF00003D4F
:105010008325C1006FF05FFC63020506B7470100FE
:105020009305050003A5C7BC630605008327450358
:10503000638C07008397C500639607001305000083
:10504000678000006FF0DFD2130101FE2326B1005C
:105050002324A100232E1100EF0040388325C10036
:10506000032581008397C500639807028320C1014F
:1050700013050000130101026780000037360100AC
:10508000B7550000373501001306065E9385C5FB52
:105090001305054C6F00900B8320C1011301010221
:1050A0006FF01FCD13050000678000003736010048
:1050B000B7B50000373501001306065E9385C5DDE0
:1050C0001305054C6F00900883254500130101FF6F
:1050D000B74701002324810023261100938787BD51
:1050E000130405006384F500EF50504F83258400BE
:1050F000B7470100938707C46386F50013050400D2
:10510000EF50D04D8325C400B7470100938787CA6D
:10511000638CF50013050400032481008320C10083
:10512000130101016F50904B8320C10003248100C3
:105130001301010167800000130500006780000073
:10514000130101FEB7570000232C810037470100EF
:105150009387C70A3744010037450100130484BD13
:10516000232E1100232A9100232821012326310117
:1051700023244101232CF7D213068000930740001B
:1051800093050000130545C32326F40023200400E3
:1051900023220400232404002322040623280400DD
:1051A000232A0400232C0400EF100003B70701009A
:1051B000376A0000B769000037690000B764000073
:1051C00037450100130A0AA0938949A61309C9AEFD
:1051D000938444B6938797001306800093050000DC
:1051E0001305C5C9232044032322340323242403A5
:1051F00023269402232AF406232E84002324040663
:1052000023260406232804062326040C232C040644
:10521000232E040623200408EF00107CB7070200A9
:10522000374501003747010093872701130707C45B
:105230001306800093050000130545D0232444097C
:105240002326340923282409232A9408232EF40C26
:105250002322E4082328040C232A040C232C040C06
:10526000232A04122320040E2322040E2324040ED6
:10527000EF009076B7470100938787CA2328440F31
:10528000232A340F232C240F232E940E8320C101B4
:105290002326F40E03248101832441010329010103
:1052A0008329C100032A81001301010267800000E5
:1052B000B747010083A787D3130101FE23263101DD
:1052C000232E1100232C8100232A91002328210161
:1052D000930905006388070E373901001309095E39
:1052E0009304F0FF83274900032489009387F7FF85
:1052F00063D807006F00000813048406638C9706C8
:105300000317C4009387F7FFE31807FEB707FFFFF3
:10531000938717002326F400232204062320040089
:10532000232404002322040023280400232A040049
:10533000232C040013068000930500001305C40508
:10534000EF00906923280402232A04022322040484
:10535000232404048320C1011305040003248101D4
:1053600083244101032901018329C10013010102A2
:105370006780000003240900630604001309040089
:105380006FF05FF69305C01A13850900EF305033B4
:1053900013040500630C05021305C50093074000C4
:1053A000232004002322F4002324A4001306001A5F
:1053B00093050000EF0050622320890013090400C8
:1053C0006FF05FF2EFF0DFD76FF01FF123200900DD
:1053D0009307C00023A0F9006FF0DFF78327450390
:1053E0006384070067800000B747010003A787D3E5
:1053F000B75700009387870C232AF502E31407FEB2
:105400006FF01FD46780000067800000373601000E
:10541000B75500001306065E9385450A1305000084
:105420006F00C05237360100B75500001306065E04
:1054300093858513130500006F0040518327860074
:105440006384072C8396C500130101FD2324810288
:10545000232C4101232861012326110293F78600A2
:10546000130B0600130A050013840500638E07085A
:1054700083A70501638A07082322910223202103C1
:10548000232E3101232A510193F7260083240B0098
:105490006384070A832744028325C401B70A008076
:1054A0009309000013090000938A0AC013860900BB
:1054B00013050A00630209049306090063F42A0134
:1054C00093860A00E78007006350A04683278B007D
:1054D000B389A9003309A940B387A7402324FB005F
:1054E0006386071A832744028325C40113860900B3
:1054F00013050A00E31209FC83A9040003A9440070
:10550000938484006FF09FFA9305040013050A004A
:10551000EF00C065631C051C8316C40023229102A2
:1055200023202103232E3101232A510193F7260042
:1055300083240B00E39007F62326710123248101C5
:1055400093F716006396071C832704000327840043
:10555000B70A008023229101930B000093090000F9
:10556000938AFAFF13850700130C07006382091062
:1055700013F6062063080628930C070063E6E93259
:1055800013F70648630A070803264401832504012C
:10559000131716003307C7003389B740135CF701B0
:1055A000330CEC0093071900135C1C40B3873701E0
:1055B00013060C006376FC00138C070013860700AB
:1055C00093F60640638E06309305060013050A0025
:1055D000EF30100F930C0500630C05348325040194
:1055E00013060900EF00104D8357C40093F7F7B777
:1055F00093E707082316F40033852C01B3072C41E9
:1056000023289401232A84012320A400138C090059
:105610002324F400938C090013860C0093850B005F
:10562000EF00D02A03278400832704001389090090
:1056300033078741B38797012324E4002320F40034
:105640009309000083278B00B38B2B01B38727417D
:105650002324FB00638607028327040003278400BA
:105660008316C40013850700130C0700E39209F0AA
:1056700083AB040083A94400938484006FF09FEE01
:10568000832BC100032C8100832C41008320C102A5
:105690000324810283244102032901028329C101D9
:1056A000832A4101032A8101032B01011305000014
:1056B00013010103678000009305040013050A002D
:1056C000EFF0DF8F630E050A8317C400832BC10040
:1056D000032C810083244102032901028329C10193
:1056E000832A410193E707042316F4008320C102B3
:1056F00003248102032A8101032B01011305F0FF1A
:10570000130101036780000013050000678000009B
:10571000930A000013050000130C00009309000019
:1057200063820908630A050893870A00938B0900BE
:1057300063F43701938B07000325040083270401DA
:10574000032984008326440163F6A7003309D900A6
:105750006344790963C0DB16832744028325C401AF
:1057600013060C0013050A00E78007001309050063
:10577000E35CA0F4B38A2A4113051000E38E0AF219
:1057800083278B00330C2C01B3892941B387274130
:105790002324FB00E39607F8832BC100032C810030
:1057A0006FF0DFEE83A944009387040093848400A4
:1057B000E38A09FE03AC0700138609009305A000E5
:1057C00013050C00EF00C04E630A05141305150005
:1057D000B30A85416FF05FF593050C0013060900CD
:1057E000EF00D00E832704009305040013050A0080
:1057F000B38727012320F400EFF04FFCE30C05F6FC
:105800006FF09FEC8326040163E2F6040326440153
:1058100063EEC9029387090063F43A0193870A0093
:10582000B3E6C702032744028325C40113860B0095
:1058300013050A00B386D740E700070013090500E7
:10584000635AA004B38929416FF0DFDF1309070011
:1058500063F4E900138909001385070013060900A2
:1058600093850B00EF009006032784008327040034
:1058700033072741B38727012324E4002320F400C2
:10588000E31207FC9305040013050A00EFF00FF381
:10589000E30A05FA8317C400832BC100032C81009F
:1058A000832C41006FF01FE3138C0900938C0900D7
:1058B0006FF09FD613860B0093050C00EF001001CC
:1058C000032784008327040013890B0033077741E3
:1058D000B38777012324E4002320F4006FF09FE9CD
:1058E00013050A00EF409078930C0500E31605D0ED
:1058F0008325040113050A00EF00506B8317C400D1
:105900001307C000832BC100032C8100832C4100AE
:105910002320EA0093F7F7F76FF0DFDB9387190096
:10592000938A07006FF09FE08317C4006FF09FDA3F
:105930001307C0008317C400832BC100032C810010
:10594000832C41002320EA006FF0DFD8130101FD12
:1059500023202103232E3101232C4101232A51012D
:1059600023286101232671012326110223248102A9
:1059700023229102130B0500938B0500930A060066
:10598000130A0000930910001309F0FF83A44A00D2
:1059900003A48A009384F4FF63C804028357C400FD
:1059A00063FEF9008317E4009305040013050B0060
:1059B00063862701E7800B00336AAA009384F4FF13
:1059C00013048406E39C24FD83AA0A00E3900AFCE6
:1059D0008320C1020324810283244102032901029E
:1059E0008329C101832A4101032B0101832BC100BB
:1059F00013050A00032A81011301010367800000D7
:105A0000130101FF23248100138405008395E50021
:105A100023261100EF00005E634005028327040582
:105A20008320C100B387A7002328F4040324810046
:105A300013010101678000008357C40037F7FFFF9F
:105A40001307F7FFB3F7E7008320C1002316F40024
:105A50000324810013010101678000001305000089
:105A6000678000008397C500130101FE232C81008D
:105A7000232A91002328210123263101232E1100FE
:105A800013F707101384050093040500130906009B
:105A9000938906006310070437F7FFFF1307F7FF2A
:105AA000B3F7E7008315E4002316F4000324810113
:105AB0008320C10193860900130609008329C100D0
:105AC000032901011385040083244101130101020C
:105AD0006F0000598395E50093062000130600002F
