:10000000973101009381019117010200130181FFD3
:10001000174E0100130E8EE3974E0100938E4EFC97
:100020006F00C00023200E00130E4E00E36CDEFFB5
:100030001305000093050000EF00402B130504009A
:1000400093021000173301001303C36E23205300E3
:100050006F000000130101FD232681021304010338
:10006000232EA4FC0327C4FDB72700009387077144
:10007000B307F7022326F4FE130000008327C4FE13
:100080001387F7FF2326E4FEE39A07FE1300000020
:10009000130000000324C102130101036780000064
:1000A000130101FE232E1100232C810013040102F1
:1000B0002326A4FEB747010083A707DE13F7F70F37
:1000C0008327C4FE939787003367F700B747010083
:1000D00023A0E7DEB747010083A707DE13850700EB
:1000E000EF10005A130000008320C1010324810196
:1000F0001301010267800000130101FF2326110094
:100100002324810013040101B747010083A707DE00
:1001100013F7F70FB747010023A0E7DEB747010049
:1001200083A707DE13850700EF108055130000003A
:100130008320C100032481001301010167800000B6
:10014000130101FD2326110223248102130401035C
:10015000232EA4FC930784FE13064000938507001A
:1001600013050000EF208005930705006386070054
:100170009307F0FF6F008004232604FE6F00000346
:100180008327C4FE0327C4FDB307F7000327C4FE7B
:10019000130707FF33078700034787FF2380E70024
:1001A0008327C4FE938717002326F4FE0327C4FE8B
:1001B00093073000E3D6E7FC9307000013850700A0
:1001C0008320C10203248102130101036780000020
:1001D000130101FD232611022324810213040103CC
:1001E000232EA4FC232604FE6F0000038327C4FEF5
:1001F0000327C4FDB307F70003C707008327C4FE26
:10020000938707FFB3878700238CE7FE8327C4FE0D
:10021000938717002326F4FE0327C4FE93073000BC
:10022000E3D6E7FC930784FE13064000938507009E
:1002300013050000EF208004930705006386070084
:100240009307F0FF6F0080009307000013850700FD
:100250008320C1020324810213010103678000008F
:10026000130101FE232E1100232C8100130401022F
:10027000930784FE130640009385070013050000D2
:10028000EF10D07393070500638607009307000003
:100290006F008004232604FE6F0000038327C4FE42
:1002A000938707FFB387870003C787FF9307F00F84
:1002B0006306F700930710006F0000028327C4FE57
:1002C000938717002326F4FE0327C4FE930730000C
:1002D000E3D6E7FC93070000138507008320C101E4
:1002E000032481011301010267800000130101FB57
:1002F00023261104232481041304010537050290E9
:10030000EF10402913071000930600001306800029
:10031000B7C7010093850720B7E7F50513850710D8
:10032000EF00504237050390EF10806C37050390C3
:10033000EF10007A930600001306000093050000FA
:10034000B70701001385F7FFEF10C0361305F00063
:10035000EF100033EFF05FDA13850100EF00C05BB0
:1003600013054006EFF01FCF37050490EF10505AE9
:1003700013854101EF00405A13054006EFF09FCD71
:10038000232604FCEFF0DFED9307050063840706E6
:100390009307C4FB13850700EFF09FDA930705006E
:1003A00063980702930710002326F4FC93072000AC
:1003B0002326F4FE13858102EF0000561385010405
:1003C000EF00805513854106EF0000556F00800453
:1003D000232604FC232604FE1385410AEF00C053A4
:1003E0001385C10BEF0040531385810EEF00C052FF
:1003F0006F004002232604FC232604FE1385410AD5
:10040000EF0080511385C10BEF0000511385810E61
:10041000EF008050A30504FE230504FE232204FE02
:10042000232004FEA30F04FC930750002324F4FCB4
:100430009307A0002322F4FCEF101001930705009E
:10044000A301F4FC834734FC63820738034734FC80
:100450008347A4FE631EF734832744FE9387170067
:100460002322F4FE232004FE032744FE832784FC7A
:100470006366F7388347F4FD6392073893071000EB
:10048000A30FF4FC034734FC930710046310F70434
:100490008327C4FE638807000327C4FE9307200058
:1004A000631EF734930710002326F4FEA30504FE11
:1004B00013854112EF00404613854114EF00C045FB
:1004C0001385C116EF0040456F004033034734FCED
:1004D00093072004631CF7020327C4FE9307100050
:1004E000631EF730930720002326F4FEA30504FEC5
:1004F00013858102EF00404213850104EF00C041E3
:1005000013850118EF0040416F00402F034734FC72
:1005100093074004631AF7220327C4FE93071000D1
:100520006316F70E0347B4FE93074000631AF70AF9
:10053000930784FB13850700EFF09FC9930705001D
:10054000639A0706232C04FC6F000003832784FDB5
:10055000938707FFB387870003C787FC832784FD42
:10056000938707FFB38787002386E7FC832784FDF3
:1005700093871700232CF4FC032784FD9307300096
:10058000E3D6E7FC1385011AEF000039930720003A
:100590002326F4FEA30504FE1385411CEF00C0379B
:1005A00013850104EF00403713850118EF00C036B2
:1005B0006F00C0241385811DEF000036232604FE42
:1005C000A30504FE1385C11FEF0000351385C10B81
:1005D000EF0080341385810EEF0000346F0000229D
:1005E00013850121EF004033A30504FE232604FEFA
:1005F0001385C11FEF0040321385C10BEF00C031DE
:100600001385810EEF0040316F00401F0327C4FEA9
:10061000930720006314F71E0347B4FE93074000BE
:100620006316F70E93071000232AF4FC232804FC1A
:100630006F00C003832704FD938707FFB3878700FC
:1006400003C787FC832704FD938707FFB3878700D1
:1006500083C7C7FC6306F700232A04FC6F00C001B0
:10066000832704FD938717002328F4FC032704FD48
:1006700093073000E3D0E7FC832744FD638A070437
:10068000930730002326F4FE13051000EFF05FA15E
:1006900013850123EF004028B7170000138587BB9F
:1006A000EFF05F9BEFF05FA5930720002326F4FE99
:1006B000A30504FE1385411CEF00002613850104E9
:1006C000EF00802513850118EF0000256F0000134F
:1006D00013052000EFF0DF9C13858124EF00C02379
:1006E0001305803EEFF01F97EFF01FA1A30504FE56
:1006F0001385411CEF00402213850104EF00C02147
:1007000013850118EF0040216F00400F13052000F2
:10071000EFF01F9913858124EF0000201305803E20
:10072000EFF05F93EFF05F9DA30504FE1385411C7E
:10073000EF00801E13850104EF00001E13850118D1
:10074000EF00801D6F00800B034734FC9307F0021D
:1007500063F6E70A034734FC9307900363E0E70A74
:100760000327C4FE930710006308F7000327C4FEA5
:10077000930720006314F7080347B4FE9307300083
:1007800063EEE7068347B4FE938707FFB3878700CE
:10079000034734FC2384E7FC8347B4FE93871700A8
:1007A000A305F4FE1305A002EF00902B6F000005D7
:1007B000834734FC2305F4FE930710002322F4FE44
:1007C000232004FEA30F04FC6F0040038347A4FE14
:1007D00063860702832704FE938717002320F4FE15
:1007E000032704FE832744FC636AF700230504FE05
:1007F000232204FE232004FEA30F04FC1305100093
:10080000EFF05F856FF05FC3130101FE232E11002F
:10081000232C8100130401022326A4FE2324B4FE0A
:100820008327C4FE93F7F70F13850700EF005023CB
:1008300093070500138507008320C101032481016C
:100840001301010267800000130101FE232E110035
:10085000232C8100130401022326A4FE8327C4FE57
:1008600093F7F70F13850700EF00901F930705001C
:10087000138507008320C1010324810113010102B4
:1008800067800000130101FE232E1100232C81003C
:10089000130401022326A4FEEF005018930705005D
:1008A000138507008320C101032481011301010284
:1008B00067800000130101FF23261100232481001B
:1008C00013040101EF00901593070500138507003D
:1008D0008320C1000324810013010101678000000F
:1008E000130101FD232611022324810213040103B5
:1008F000232EA4FC0325C4FDEF00101D2326A4FE17
:100900008327C4FE138507008320C10203248102CC
:100910001301010367800000130101FB232611026C
:100920002324810213040103232EA4FC2322B400F8
:100930002324C4002326D4002328E400232AF4001F
:10094000232C0401232E140193070402232CF4FC0E
:10095000832784FD938747FE2324F4FE832784FEA8
:10096000938507000325C4FDEF00C0282326A4FEBD
:100970008327C4FE138507008320C102032481025C
:100980001301010567800000130101FD23261102F8
:100990002324810213040103232EA4FC232CB4FC82
:1009A000232AC4FC232604FE032784FD9307A0000A
:1009B0006318F7028327C4FD63D407021305D0022E
:1009C000EF00100A130705008327C4FEB307F700E2
:1009D0002326F4FE8327C4FDB307F040232EF4FC46
:1009E000832784FD0327C4FDB357F7022324F4FEB5
:1009F000832784FE63980700032744FD93071000B4
:100A000063D8E702832744FD9387F7FF232AF4FC8A
:100A1000032644FD832584FD032584FEEFF0DFF6E5
:100A2000130705008327C4FEB387E7002326F4FEDF
:100A3000832784FD0327C4FDB377F70213870700DC
:100A400093870126B387E70083C707001385070054
:100A5000EF001001130705008327C4FEB307F7005A
:100A60002326F4FE8327C4FE138507008320C102DA
:100A7000032481021301010367800000130101FDBB
:100A8000232611022324810213040103232EA4FC34
:100A9000232CB4FC232404FE930500000325C4FD8D
:100AA000EF10C1129307050063D607021305D002A9
:100AB000EF00007B13070500832784FEB307F700D0
:100AC0002324F4FE0327C4FDB7070080B347F700D3
:100AD000232EF4FC0325C4FDEF10D10E930705006F
:100AE0002322F4FE832744FE032684FD9305A00001
:100AF00013850700EFF05FE913070500832784FEE5
:100B0000B387E7002324F4FE1305E002EF004075ED
:100B100013070500832784FEB307F7002324F4FEA0
:100B2000032544FEEF10111193070500938507007C
:100B30000325C4FDEF10014693070500232EF4FCA6
:100B4000232604FE83A5C12C0325C4FDEF10C1128A
:100B500093070500232EF4FC0325C4FDEF10910636
:100B6000930705002322F4FE832744FE93F7F70F33
:100B70009387070393F7F70F13850700EF00406E85
:100B800013070500832784FEB307F7002324F4FE30
:100B9000032544FEEF10110A930705009385070013
:100BA0000325C4FDEF10013F93070500232EF4FC3D
:100BB0008327C4FE938717002326F4FE93050000C5
:100BC0000325C4FDEF00117A930705006388070031
:100BD0000327C4FE93075000E3D6E7F6832784FE7D
:100BE000138507008320C10203248102130101033E
:100BF00067800000130101FC232E1102232C8102C7
:100C0000130401042326A4FC2324B4FC232004FEA3
:100C10006F000030032784FE930750026310F72C07
:100C20008327C4FC83C707002324F4FE232604FE85
:100C30006F0040040327C4FE930707009397270023
:100C4000B387E7009397170013870700832784FE75
:100C5000B307F700938707FD2326F4FE8327C4FC20
:100C6000938717002326F4FC8327C4FC83C707005F
:100C70002324F4FE032784FE9307F00263D8E700E1
:100C8000032784FE93079003E3D6E7FA8327C4FC87
:100C9000138717002326E4FC83C707002324F4FEF0
:100CA000032784FE930750026308F71E032784FE80
:100CB000930750026340F720032784FE93078007C1
:100CC00063CAE71E032784FE930730066344F71EBA
:100CD000832784FE9387D7F913075001636CF71CB1
:100CE0001397270093874127B307F70083A70700CF
:100CF00067800700832784FC138747002324E4FCD4
:100D000083A70700A30BF4FC834774FD138507003A
:100D1000EF00005513070500832704FEB307F70013
:100D20002320F4FE6F00C01E832784FC1387470036
:100D30002324E4FC83A70700232EF4FC8327C4FDAF
:100D40000326C4FE9305800013850700EFF0DFC380
:100D500013070500832704FEB387E7002320F4FE72
:100D60006F00001B832784FC138747002324E4FCC7
:100D700083A70700232EF4FC8327C4FD0326C4FEAB
:100D80009305A00013850700EFF01FC013070500AF
:100D9000832704FEB387E7002320F4FE6F0040178B
:100DA000832784FC138747002324E4FC83A70700E0
:100DB000232EF4FC8327C4FD0326C4FE9305000103
:100DC00013850700EFF05FBC13070500832704FEBF
:100DD000B387E7002320F4FE6F008013832784FC91
:100DE000138747002324E4FC83A707002322F4FE93
:100DF0006F008004832744FE83C707001385070024
:100E0000EF00004613070500832704FEB307F70031
:100E10002320F4FE832744FE03C707009307A000A6
:100E20006316F7001305D000EF008043832744FECC
:100E3000938717002322F4FE832744FE83C707000D
:100E4000E39A07FA6F00C00C832784FC938777002E
:100E500093F787FF138787002324E4FC03A7070089
:100E600083A747001305070093850700EF10D10DF6
:100E700093070500232CF4FC8325C4FE032584FD81
:100E8000EFF0DFBF13070500832704FEB387E700F9
:100E90002320F4FE6F00C00713055002EF00403C12
:100EA00013070500832704FEB307F7002320F4FE91
:100EB0006F00000613055002EF00803A130705008B
:100EC000832704FEB307F7002320F4FE8327C4FC26
:100ED0009387F7FF2326F4FC6F008003832784FEAB
:100EE00093F7F70F13850700EF008037130705000E
:100EF000832704FEB307F7002320F4FE032784FEB4
:100F00009307A0006316F7001305D000EF004035EB
:100F10008327C4FC138717002326E4FC83C707003C
:100F20002324F4FE832784FEE39607CE832704FE62
:100F3000138507008320C1030324810313010104E7
:100F400067800000130101FC232E1102232C810273
:100F500013040104232EA4FC232CB4FC232AC4FC78
:100F60002328D4FC2326E4FC8327C4FD63960700D2
:100F7000EF00C05E232EA4FC0327C4FD832784FD5D
:100F8000B357F70213850700EFE0400C1307050085
:100F90009387050003A6012D83A6412D13050700A5
:100FA00093850700EFC040131307050093870500E2
:100FB0001305070093850700EFD0D076930705004F
:100FC00013870700B70701009387F7FFB377F70090
:100FD0002326F4FE032744FD930780006316F700E1
:100FE000930700006F008000B70701000327C4FECD
:100FF000B3E7E7002326F4FE832704FD639607008A
:10100000930700006F008000B70702000327C4FEAB
:10101000B3E7E7002326F4FE032704FD930710003F
:101020006316F700930700006F008000B707040005
:101030000327C4FEB3E7E7002326F4FE0327C4FC1E
:10104000930710006316F700930700006F008000FD
:10105000B70708000327C4FEB3E7E7002326F4FE22
:10106000B747010083A707DF2324F4FE832784FE0C
:101070000327C4FE23A0E700130000008320C10360
:10108000032481031301010467800000130101FCA4
:10109000232E1102232C810213040104232EA4FC0D
:1010A000232CB4FC232AC4FC2328D4FC2326E4FCF0
:1010B0002324F4FC232204FD8327C4FD6396070048
:1010C000EF00C049232EA4FC0327C4FD832784FD21
:1010D000B357F70213850700EFD0507713070500C9
:1010E0009387050003A6012D83A6412D1305070054
:1010F00093850700EFB0507E130705009387050026
:101100001305070093850700EFD0D0619307050012
:1011100013870700B70701009387F7FFB377F7003E
:101120002326F4FE032744FD930780006316F7008F
:10113000930700006F008000B70701000327C4FE7B
:10114000B3E7E7002326F4FE832704FD6396070038
:10115000930700006F008000B70702000327C4FE5A
:10116000B3E7E7002326F4FE032704FD93071000EE
:101170006316F700930700006F008000B7070400B4
:101180000327C4FEB3E7E7002326F4FE0327C4FCCD
:10119000930710006316F700930700006F008000AC
:1011A000B70708000327C4FEB3E7E7002326F4FED1
:1011B000832784FC63960700930700006F0080007C
:1011C000B70720000327C4FEB3E7E7002326F4FE99
:1011D000832744FC63960700930700006F0080009C
:1011E000B70710000327C4FEB3E7E7002326F4FE89
:1011F000B747010083A707DF2324F4FE832784FE7B
:101200000327C4FE23A0E700130000008320C103CE
:10121000032481031301010467800000130101FE10
:10122000232E810013040102B747010083A7C7DF03
:101230002324F4FE832784FE83A707002326F4FEDD
:101240008327C4FEE3D207FE8327C4FE93F7F70F7C
:10125000138507000324C101130101026780000008
:10126000130101FD232681021304010393070500E6
:10127000A30FF4FCB747010083A787DF2324F4FE04
:10128000832784FE83A707002326F4FE8327C4FE5A
:10129000E3C207FE8347F4FD2326F4FEB7470100AF
:1012A00083A787DF2322F4FE832744FE0327C4FE9F
:1012B00023A0E7008347F4FD138507000324C10240
:1012C0001301010367800000130101FC232E81023A
:1012D000130401042326A4FC232604FE6F008004CB
:1012E000B747010083A787DF2320F4FE832704FE8E
:1012F00083A707002322F4FE832744FEE3C207FEF0
:10130000B747010083A787DF232EF4FC8327C4FDA2
:101310000347B4FE23A0E7008327C4FE938717008A
:101320002326F4FE8327C4FC138717002326E4FC3E
:1013300083C70700A305F4FE8347B4FEE39207FAD0
:101340008327C4FE138507000324C103130101048E
:1013500067800000130101FC232E1102232C81025F
:10136000130401042326A4FC0327C4FC9307A00054
:10137000B357F7022326F4FE8327C4FE63880700D1
:101380008327C4FE13850700EFF0DFFC0327C4FCAE
:101390009307A000B377F70293F7F70F938707033C
:1013A000A305F4FEB747010083A787DF232AF4FCD7
:1013B000832744FD83A70700232CF4FC832784FDA7
:1013C000E3C207FEB747010083A787DF2328F4FCA9
:1013D000832704FD0347B4FE23A0E70013000000A9
:1013E0008320C103032481031301010467800000EB
:1013F000130101FC232E1102232C8102130401048A
:101400002326A4FC8327C4FC93D747002324F4FE9F
:10141000832784FE63880700832784FE13850700E3
:10142000EFF01FFD8327C4FC93F7F7002324F4FE9D
:10143000032784FE9307900063CCE700832784FE94
:1014400093F7F70F93870703A307F4FE6F0040019C
:10145000832784FE93F7F70F93877703A307F4FEA0
:10146000B747010083A787DF2320F4FE832704FE0C
:1014700083A707002322F4FE832744FEE3C207FE6E
:10148000B747010083A787DF232EF4FC8327C4FD21
:101490000347F4FE23A0E700130000008320C103EC
:1014A000032481031301010467800000130101FE7E
:1014B000232E810013040102B747010083A747DFF1
:1014C0002324F4FE832784FE83A707002326F4FE4B
:1014D0008327C4FE93F7E7FF2326F4FEB7470100F6
:1014E00083A747DF2322F4FE832744FE0327C4FE9D
:1014F00023A0E700130000000324C101130101022F
:1015000067800000130101FE232E810013040102F5
:10151000B747010083A747DF2324F4FE832784FE17
:1015200083A707002326F4FE8327C4FE93F7D7FF83
:101530002326F4FEB747010083A747DF2322F4FEEA
:10154000832744FE0327C4FE23A0E7001300000006
:101550000324C1011301010267800000130101FE91
:10156000232E810013040102B747010083A707E07F
:101570002324F4FE832784FE83A707002326F4FE9A
:101580008327C4FE138507000324C1011301010250
:1015900067800000130101FE232E81001304010265
:1015A0002326A4FEB74701000327C4FE23A2E7DEDB
:1015B000B74701000327C4FE23A4E7DE8327C4FE48
:1015C00013874700B747010023A6E7DE8327C4FE41
:1015D00013870701B747010023A8E7DE8327C4FE6E
:1015E00013874701B747010023AAE7DE8327C4FE1C
:1015F00013878701B747010023ACE7DE8327C4FECA
:101600001387C701B747010023AEE7DE8327C4FE77
:1016100013870702B747010023A0E7E0130000008B
:101620000324C1011301010267800000130101FFBF
:101630002326810013040101B747010083A747DE79
:10164000138507000324C100130101016780000016
:10165000130101FE232E810013040102B74701008C
:1016600083A747E183A707002326F4FE8327C4FE50
:10167000138507000324C1011301010267800000E4
:10168000130101FE232E8100130401022326A4FE70
:10169000B747010083A787E1138707008327C4FEAC
:1016A0002320F700130000000324C10113010102ED
:1016B00067800000130101FD23268102130401034A
:1016C000232EA4FC232CB4FC232AC4FC2328D4FC02
:1016D000232604FEB747010083A707E1138707000D
:1016E0008327C4FD2320F700B747010083A787E1C4
:1016F000138707008327C4FE2320F700B7470100A4
:1017000083A747E213870700832784FD2320F70080
:10171000B747010083A787E213870700832744FDAB
:101720002320F700832704FD93C7F7FF2326F4FE49
:10173000B747010083A7C7E1138707008327C4FECB
:101740002320F700130000000324C102130101034A
:1017500067800000130101FD2326810213040103A9
:10176000232EA4FC8327C4FD93C7F7FF2326F4FE92
:10177000B747010083A7C7E1138707008327C4FE8B
:101780002320F700B747010083A7C7E183A707001D
:101790002326F4FE8327C4FE138507000324C10219
:1017A0001301010367800000130101FE232E810055
:1017B000130401022326A4FEB747010083A747E2D2
:1017C000138707008327C4FE2320F700B7470100D3
:1017D00083A747E283A707002326F4FE8327C4FEDE
:1017E000138507000324C101130101026780000073
:1017F000130101FE232E8100130401022326A4FEFF
:10180000B747010083A787E2138707008327C4FE39
:101810002320F700B747010083A787E283A70700CB
:101820002326F4FE8327C4FE138507000324C10189
:101830001301010267800000130101FE232E8100C5
:1018400013040102B747010083A707E283A707003B
:101850002326F4FE8327C4FE138507000324C10159
:101860001301010267800000130101FD232681029C
:1018700013040103232EA4FCB747010083A707E24A
:1018800083A707002326F4FE0327C4FE8327C4FD95
:10189000B377F7002326F4FEB747010083A707E2DA
:1018A000138707008327C4FE2320F700B7470100F2
:1018B00083A707E283A70700232EF4FC8327C4FD38
:1018C000138507000324C102130101036780000090
:1018D000130101FE232E1100232C810013040102A9
:1018E000B747010083A787E083A707002326F4FEFC
:1018F0008325C4FE1385812DEF00903CB74701007E
:1019000083A7C7E083A707002326F4FE8325C4FE30
:101910001385012FEF00D03AB747010083A707E1F5
:1019200083A707002326F4FE8325C4FE1385813098
:10193000EF001039B747010083A747E183A70700ED
:101940002326F4FE8325C4FE13850132EF005037B1
:10195000B747010083A787E183A707002326F4FE8A
:101960008325C4FE13858133EF009035B74701000E
:1019700083A7C7E183A707002326F4FE8325C4FEBF
:1019800013850135EF00D033B747010083A707E285
:1019900083A707002326F4FE8325C4FE1385813622
:1019A000EF001032B747010083A747E283A7070083
:1019B0002326F4FE8325C4FE13850138EF00503042
:1019C000B747010083A787E283A707002326F4FE19
:1019D0008325C4FE13858139EF00902E130000008B
:1019E0008320C101032481011301010267800000EB
:1019F000130101FE232E8100130401022326A4FEFD
:101A0000B74701000327C4FE23A2E7E0B747010060
:101A10000327C4FE23A4E7E08327C4FE13874700FF
:101A2000B747010023A6E7E08327C4FE1387070119
:101A3000B747010023A8E7E08327C4FE13874701C7
:101A4000B747010023AAE7E08327C4FE1387870175
:101A5000B747010023ACE7E08327C4FE1387C70123
:101A6000B747010023AEE7E08327C4FE13870702D0
:101A7000B747010023A0E7E28327C4FE138747028C
:101A8000B747010023A2E7E28327C4FE138787023A
:101A9000B747010023A4E7E293070000138507007E
:101AA0000324C1011301010267800000130101FF3B
:101AB0002326810013040101B747010083A747E0F3
:101AC000138507000324C100130101016780000092
:101AD000130101FD232611022324810213040103B3
:101AE000232EA4FCB74701000327C4FD23A6E7E289
:101AF0000325C4FDEFF0DFEF9307F0002326F4FE8B
:101B00001305F000EFF0DFB79306000013060000A6
:101B1000930500000325C4FEEFF0DFB913000000B9
:101B20008320C102032481021301010367800000A6
:101B3000130101FD23261102232481021304010352
:101B4000B747010083A7C7E213850700EFF05FEAFC
:101B5000232604FE6F00800C8327C4FE13071000A9
:101B6000B317F70093C7F7FF93F7F7002322F4FEAC
:101B7000032544FEEFF0DFB093074006232CF4FC6E
:101B800013000000832784FD1387F7FF232CE4FC58
:101B9000E39A07FEEFF0DFAB2320A4FE832704FEC9
:101BA00093D7470093F7F700232EF4FC0327C4FDD7
:101BB0009307F000630EF704232404FE6F008004F3
:101BC000832784FE13071000B317F700138707005D
:101BD0008327C4FDB377F700639007021305F00075
:101BE000EFF01FAA832784FE139727008327C4FEE4
:101BF000B307F7006F000004832784FE9387170064
:101C00002324F4FE032784FE93073000E3DAE7FA87
:101C10008327C4FE938717002326F4FE0327C4FE00
:101C200093073000E3DAE7F21305F000EFF05FA569
:101C30009307F0FF138507008320C102032481026C
:101C40001301010367800000130101FE232E110020
:101C5000232C810013040102EFF09FED2326A4FE44
:101C60008327C4FE63C207060327C4FE9307F00060
:101C700063CCE7048327C4FE13D7F74113773700FB
:101C8000B307F70093D727402324F4FE0327C4FEAD
:101C90009357F74193D7E7013307F70013773700DE
:101CA000B307F7402322F4FE1387013B832744FE4A
:101CB000939727003307F700832784FEB307F700C5
:101CC00083C707006F00800093070000138507009B
:101CD0008320C101032481011301010267800000F8
:101CE000130101FF23268100130401010F00F00FEF
:101CF000130000000324C1001301010167800000EC
:101D0000130101FD23261102232481021304010380
:101D1000232EA4FC8325C4FD1385013CEFE0DFBF27
:101D2000EFF01FFC8327C4FD2326F4FE8327C4FEA7
:101D300083A707002324F4FEEFF09FFA832584FE97
:101D40001385813EEFE05FBD832784FE1385070086
:101D50008320C10203248102130101036780000074
:101D6000130101FF2326810013040101B74701007D
:101D700003A707E3B747010023A4E7E4B74701003F
:101D800083A707E313874700B747010023A6E7E4CB
:101D9000B747010083A707E313878700B747010010
:101DA00023A8E7E4B747010083A707E31387C70029
:101DB000B747010023AAE7E4B747010083A707E379
:101DC00013870701B747010023ACE7E4B7470100D9
:101DD00083A707E313874701B747010023AEE7E472
:101DE000B7470100130710002380E7E61300000047
:101DF0000324C1001301010167800000130101FFEA
:101E0000232611002324810013040101B747010098
:101E100083C707E663940700EFF09FF41300000008
:101E20008320C100032481001301010167800000A9
:101E3000130101FF23261100232481001304010153
:101E4000EFF01FF2130000008320C1000324810083
:101E50001301010167800000130101FF2326110017
:101E60002324810013040101EFF05FF9B74701005B
:101E700083A7C7E513850700EFF09FE893070500E8
:101E8000138507008320C100032481001301010191
:101E900067800000130101FE232E1100232C810016
:101EA000130401022326A4FEEFF05FF5B7470100FB
:101EB00083A747E5138707008327C4FE2320F70085
:101EC000130000008320C1010324810113010102DA
:101ED00067800000130101FE232E1100232C8100D6
:101EE000130401021385C140EFE01FA3EFF01FF1BF
:101EF0001385C141EFE05FA2B747010083A787E5E3
:101F000013850700EFF0DFDF2326A4FE8325C4FE40
:101F100013850143EFE05FA08327C4FE138507000C
:101F20008320C101032481011301010267800000A5
:101F3000130101FD2326110223248102130401034E
:101F400093070500A30FF4FC93870500230FF4FC0F
:101F500093070600A30EF4FC93870600230EF4FCFF
:101F600093070700A30DF4FCEFF05FE9232604FEBE
:101F70008347F4FD9397170093F7F70F0327C4FEE9
:101F8000B367F7002326F4FE8347D4FD93F71700C9
:101F90000327C4FEB367F7002326F4FE8347E4FD5E
:101FA000939787000327C4FEB367F7002326F4FE48
:101FB0008347C4FD13970701B7070100B377F70004
:101FC0000327C4FEB367F7002326F4FE8347B4FD5E
:101FD00013971701B7070200B377F7000327C4FE72
:101FE000B367F7002326F4FE0327C4FEB70700807B
:101FF000B367F7002326F4FEB747010083A707E580
:10200000138707008327C4FE2320F7001300000076
:102010008320C102032481021301010367800000B1
:10202000130101FE232E1100232C81001304010251
:10203000EFF0DFDC13858144EFE01F8EB74701002E
:1020400083A787E413850700EFF09FCB2326A4FE28
:102050008325C4FE13850145EFE01F8CB7470100BF
:1020600083A7C7E413850700EFF09FC92326A4FECA
:102070008325C4FE13858146EFE01F8AB747010020
:1020800083A707E513850700EFF09FC72326A4FE6B
:102090008325C4FE13850148EFE01F88B747010080
:1020A00083A747E513850700EFF09FC52326A4FE0D
:1020B0008325C4FE13858149EFE01F86B7470100E1
:1020C00083A787E513850700EFF09FC32326A4FEAF
:1020D0008325C4FE1385014BEFE01F84B747010041
:1020E00083A7C7E513850700EFF09FC12326A4FE51
:1020F0008325C4FE1385814CEFE01F82130000008E
:102100008320C101032481011301010267800000C3
:10211000130101FE232E1100232C81001304010260
:102120002326A4FEB74701000327C4FE23A8E7E245
:10213000EFF01FC393070000138507008320C10140
:10214000032481011301010267800000130101FFD4
:102150002326810013040101B747010083A707E389
:10216000138507000324C1001301010167800000EB
:10217000130101FD2326810213040103232EA4FC75
:102180000327C4FDB727000093870771B307F70241
:102190002326F4FE130000008327C4FE1387F7FFF5
:1021A0002326E4FEE39A07FE13000000130000005C
:1021B0000324C1021301010367800000130101FD24
:1021C000232611022324810213040103930705002F
:1021D000232CB4FC13070600A30FF4FC930707009D
:1021E000230FF4FC832784FD638607008347E4FD07
:1021F000639607009307F0FF6F0000078347F4FD25
:1022000013070000930600001306000093850700E3
:1022100013050005EFF0DFD113051000EFF05FF5B7
:102220008347F4FD13070000930610001306100007
:102230009385070013050005EFF09FCF13051000ED
:10224000EFF01FF38347E4FD638E0700EFF0DFC07C
:102250002326A4FE8327C4FE13F7F70F832784FDEC
:102260002380E70093070000138507008320C10245
:10227000032481021301010367800000130101FEA2
:10228000232E1100232C8100130401029307050063
:102290002324B4FE13070600A307F4FE93070700E8
:1022A0002307F4FE832784FE638607008347E4FE4A
:1022B000639607009307F0FF6F00C003832784FE37
:1022C00083C7070013850700EFF0DFBC8347F4FEE8
:1022D0001307000093060000130600009385070013
:1022E00013050005EFF0DFC41305A000EFF05FE871
:1022F00093070000138507008320C1010324810197
:102300001301010267800000130101FE232E8100EA
:10231000130401022326A4FE9307F0FF1385070090
:102320000324C1011301010267800000130101FEB3
:10233000232E8100130401022326A4FE2324B4FECD
:102340002322C4FE93070000138507000324C10164
:102350001301010267800000130101FE232E81009A
:10236000130401022326A4FE2324B4FE2322C4FE68
:1023700093070000138507000324C1011301010224
:1023800067800000130101FE232E81001304010267
:102390002326A4FE2324B4FE2322C4FE832744FE66
:1023A000138507000324C1011301010267800000A7
:1023B000130101FE232E8100130401022326A4FE33
:1023C0002324B4FE9307F0FF138507000324C10103
:1023D0001301010267800000130101FE232E81001A
:1023E000130401022326A4FE9307000013850700AF
:1023F0000324C1011301010267800000130101FEE3
:10240000232E8100130401022326A4FE9307F0FF6C
:10241000138507000324C101130101026780000036
:10242000130101FE232E8100130401022326A4FEC2
:10243000130000006FF0DFFF130101FE232E810067
:10244000130401022326A4FE2324B4FE9307F0FF05
:10245000138507000324C1011301010267800000F6
:10246000130101FF232681001304010193071000CB
:10247000138507000324C1001301010167800000D8
:10248000130101FC2324C1022326D1022328E102E7
:10249000232AF102232C0103232E110313860500A6
:1024A0008325850093068102232E11002326D10067
:1024B000EF0000068320C1011301010467800000C2
:1024C00037430100032343E3130101FC2324C1022A
:1024D0002326D1022322B1022328E102232AF1027A
:1024E000232C0103232E110383258300930641022D
:1024F0001306050013050300232E11002326D10027
:10250000EF0000018320C101130101046780000076
:10251000130101E32326111C2324811C2322911C77
:102520002328611B93840500130B0600232AD10086
:10253000130405002324A100EF3090220327050097
:10254000130507002328E102EF4080042326A1029F
:102550002328010C232A010C232C010C232E010C0F
:102560006308040003274403631407006F10D00FAF
:102570008396C40003A7440613962601634006020F
:1025800037E6FFFF1306F6FFB7250000B3E6B600F7
:102590003377C7002396D40023A2E40693162701BD
:1025A00063D406006F20C03B0397C4009376870076
:1025B0006380063083A60401638C062E1377A7017F
:1025C0009306A0006308D730232E311B232C411B18
:1025D0002320A11B2320211D232A511B2326711BED
:1025E0002324811B2322911B232EB119130D0B00D1
:1025F0009387416903470D009309C10E373A0100E3
:102600002322310D2326010C2324010C2320010257
:10261000232A010223200104232E01022324010482
:102620002322010423260100232CF1001384090036
:10263000130A8A1A6300072213090D009306500239
:10264000630AD73E0347190013091900E31A07FE6E
:10265000B30AA9416300A9218326C10C0327810C79
:102660002320A401B3865601130717002322540127
:102670002326D10C2324E10C93067000130484005C
:1026800063C2E63C8327C10003470900B3875701B3
:102690002326F1006300071C83481900A303010AE5
:1026A00013091900930AF0FF930B0000930C00002C
:1026B000130BA00513091900938708FE6366FB043A
:1026C0000327810193972700B387E70083A70700BB
:1026D00067800700930B0000938708FD9306900026
:1026E0008348090013972B00B30B7701939B1B00C2
:1026F000B38B7701938708FD13091900E3F2F6FE07
:10270000938708FEE37EFBFA638608142306111301
:10271000A303010A930D1000130B1000130DC11237
:1027200023280100930A000023240102232201022E
:10273000232E010093F22C0063840200938D2D0060
:1027400093FF4C080326C10C63960F003387BB41EF
:10275000E344E0460347710A630A07020327810C3A
:102760009305710A2320B400130616009305100088
:10277000130717002322B4002326C10C2324E10CE5
:10278000930570001304840063C4E53E638A02026B
:102790000327810C9305200013062600130717005A
:1027A0009307810A2322B4002320F4002326C10CBE
:1027B0002324E10C9305700013048400E3CCE5505E
:1027C00013070008E380EF1EB38A6A41E34E502DE1
:1027D00013F70C10E31E07028327810C33066601F2
:1027E0002320A40193871700232264012326C10C10
:1027F0002324F10C13077000634CF74A1304840080
:1028000013FE4C0063060E00B38ABB41E34C504FED
:1028100013830B0063D4BB0113830D008327C10016
:10282000B38767002326F100E310063683270101F2
:102830002324010C638807008325010103258100FF
:10284000EF40400A13840900130D090003470D00EF
:10285000E31407DE8327C10C638407006F1050392F
:1028600083D7C4000329011C8329C11B93F70704E4
:10287000032A811B832A411B832BC11A032C811A33
:10288000832C411A032D011A832DC119638407007B
:102890006F20000D8320C11C0324811C0325C1006F
:1028A0008324411C032B011B1301011D67800000C1
:1028B0000325810093850400EF30C03E63040500CA
:1028C0006F20000A0397C4009306A0001377A701A6
:1028D000E31CD7CE0397E400E34807CE83264101EB
:1028E0000325810013060B0093850400EF20404A66
:1028F0002326A1006FF01FFA032C810013050C00A2
:10290000EF30006683274500138507002322F1047A
:10291000EF3010489307050013050C002324F10441
:10292000138C0700EF30C06303278500232EE102DC
:10293000E3140C72834809006FF0DFD78348090065
:1029400093EC0C026FF01FD793EC0C0193F70C0281
:102950006380073883274101138C7700137C8CFF39
:1029600083274C00032B0C0013078C00232AE10063
:10297000938D070063C80738938E0C0063C40A4E1A
:10298000B367BB0193FEFCF7639E074C63920A4E4C
:10299000130B0000938C0E00130D01190347710AED
:1029A000938D0A0063D46A01930D0B002328010064
:1029B0002324010223220102232E0100E30C07D667
:1029C000938D1D006FF01FD793EC0C0193F70C0251
:1029D0006382073C83274101138C7700137C8CFFB3
:1029E000032B0C00832D4C0093078C00232AF1004D
:1029F00093FEFCBF9307000013070000A303E10A46
:102A000063C40A323367BB0193FCFEF7E312071A73
:102A1000639C0A72E390075E13FB1E00130D0119FD
:102A2000E30E0BF693070003A307F118130DF1183B
:102A30006FF0DFF6B30AA941E310A9C30347090009
:102A40006FF05FC5032581001306410C93850400D8
:102A5000EF20C040E31605E0138409006FF09FC229
:102A600013F78C00E3120764832741011305010962
:102A700023281101138C7700137C8CFF83250C0015
:102A800003264C0093078C00232AF100EFF0102B53
:102A90008325010903264109832681090327C109EA
:102AA000832801011305010D23281101232EE10CB8
:102AB0002328B10C232AC10C232CD10CEF40803DDC
:102AC0002326A10A13072000832801016314E500CF
:102AD0006F10003F130710006314E5006F10805360
:102AE000130710066394E8006F00D07813071004F2
:102AF00093078005E382E8781307F0FF6394EA0008
:102B00006F20800D13F7F8FD930670042328010051
:102B10006316D70063940A00930A1000032CC10DBA
:102B200093E70C102326F104232C0102832F010DBF
:102B3000032F410D832E810D635A0C00370700804F
:102B40009307D002334C8701232CF1021387F8FB43
:102B500093065002E3E6E676B73601001317270026
:102B6000938606113307D700032707006700070085
:102B7000032581001306410C9385040023281105C9
:102B80002326F105232C5102EF20402DE3180500E8
:102B90000326C10C83280105832FC10483228103EE
:102BA000138409006FF09FBE832A810C83270102E2
:102BB000130710002320A401130C1600938A1A0097
:102BC000130B8400E35EF732130710002322E400A6
:102BD0002326810D2324510D1307700063545701E0
:102BE0006F10800A8327C10203270103938A1A000A
:102BF000330CFC002320EB002322FB002326810D55
:102C00002324510D13077000130B8B0063545701DD
:102C10006F10C0090327010D8327010293050108E6
:102C20002328E1080327410D13050109232001088A
:102C3000232AE1080327810D232201082324010808
:102C4000232CE1080327C10D232601081384F7FF75
:102C5000232EE108EFC08047E304052E93071D00F3
:102C6000938A1A00330C8C002320FB0023228B0054
:102C70002326810D2324510D93077000130B8B0025
:102C8000E3CE5729832601041307410B93871A00CB
:102C9000338686012320EB002322DB002326C10C90
:102CA0002324F10C1307700013048B00E35AF7B4CC
:102CB000032581001306410C93850400EF20001AC0
:102CC000631E056C0326C10C138409006FF05FB30B
:102CD0000327410193F70C01032B0700130747005B
:102CE000232AE100E394073693F70C04E38C0734BE
:102CF000131B0B01135B0B41935DFB4193870D008D
:102D0000E3DC07C61307D002B3376001B30DB0414F
:102D1000A303E10AB38DFD40330B6041938E0C0099
:102D200093071000E3D00ACE13071000638CE7125C
:102D3000130720006386E742130D01199397DD0105
:102D400013777B00135B3B001307070333EB67012B
:102D500093DD3D00A30FEDFEB367BB0113060D002D
:102D6000130DFDFFE39C07FC93F61E0063840642EF
:102D7000930600036300D7421306E6FF9307011989
:102D8000A30FDDFE338BC740938C0E00130D06009E
:102D90006FF0DFC00327410193F70C01032B0700FD
:102DA00013074700232AE100E39A072893F70C044E
:102DB000E3820728131B0B01135B0B01930D00002B
:102DC0006FF01FC303274101A303010A930D1000F5
:102DD0008327070013074700232AE1002306F11287
:102DE000130B1000130DC1126FF09F938327410145
:102DF000A303010A03AD0700138C4700E30A0D3853
:102E000063D40A006F10001B13860A0093050000AC
:102E100013050D00232A1101EF20107D2328A100A6
:102E200083284101631405006F1050358327010189
:102E30000347710A232A8101338BA7419346FBFF85
:102E400093D6F64123280100232401022322010204
:102E5000232E0100B37DDB00930A0000E31207B6C6
:102E60006FF05F8DE39E0D6693079000E3EA67675E
:102E7000130B0B03A3076119938C0E00130B1000A7
:102E8000130DF1186FF09FB18327410183AB070049
:102E900093874700E3DE0B16B30B7041232AF10042
:102EA0008348090093EC4C006FF0DF809307B00279
:102EB00083480900A303F10A6FF0CFFF834809009C
:102EC00093EC0C086FF00FFF834809009307A002F2
:102ED000930619006394F8006F101065938708FD3E
:102EE00013079000930A0000130690006364F70232
:102EF00083C8060013972A00B30A5701939A1A0051
:102F0000B38AFA00938708FD93861600E372F6FEF3
:102F1000E3C40A1C138906006FF00FFA8348090006
:102F200093EC1C006FF00FF98347710A8348090086
:102F3000639207F893070002A303F10A6FF08FF77B
:102F400093EE0C0193F70E02E38C070683274101F1
:102F5000138C7700137C8CFF93078C00232AF100DD
:102F6000032B0C00832D4C00930710006FF0DFA89B
:102F70008348090093EC8C006FF0CFF303274101E5
:102F8000B7870000938707832314F10A930747004C
:102F9000232AF1009387014F232AF102032B070014
:102FA000930D000093EE2C009307200093088007F8
:102FB0006FF09FA493F70C02E382070C8327410173
:102FC0008326C10083A7070013D7F64123A0D700AB
:102FD00023A2E70083274101130D090093874700CF
:102FE000232AF1006FF09F86834809009307C006EB
:102FF000E388F81693EC0C016FF0CFEB83480900DF
:1030000093078006E386F81493EC0C046FF08FEAC4
:1030100013075006E35A17B90327010D930501085A
:10302000130501092328E1080327410D232CC102C0
:1030300023200108232AE1080327810D2322010808
:1030400023240108232CE1080327C10D23260108AE
:10305000232EE108EFC0800703268103631C05547B
:103060008327810C138701522320E40013061600E6
:1030700013071000938717002322E4002326C10CB6
:103080002324F10C1307700013048400E344F75E5B
:103090008327C10A0327010263D4E776832701034C
:1030A0000327C10213048400232CF4FE8327810C20
:1030B0003306E600232EE4FE938717002326C10C77
:1030C0002324F10C13077000E344F70A832701025D
:1030D000938AF7FF635650F3373801001308881AB4
:1030E000130700018327810C130B0001130C7000E0
:1030F000130D0800634857016F00105A938A0AFFA6
:10310000E35A5B5913060601938717002320A40195
:10311000232264012326C10C2324F10C1304840010
:10312000E35EFCFC032581001306410C938504003B
:10313000EF10D052631405260326C10C8327810C9F
:10314000138409006FF09FFB130710006394E700DE
:103150006F10901813072000938E0C00E39EE7BCBD
:1031600083264103130D01199377FB00B387F60003
:1031700003C70700135B4B009397CD0133EB670147
:1031800093DD4D00A30FEDFEB367BB01130DFDFFF3
:10319000E39C07FC93070119338BA741938C0E0026
:1031A0006FF0CFFF338CBB41635080E337380100B1
:1031B000130500018325810C1308881A6350850BC1
:1031C000232C210393070400930E000113040C0029
:1031D000930F7000130C0B0013090800138B0A00E7
:1031E000938A08006F00C000130404FF63DA8E04A2
:1031F000130606019385150023A0270123A2D701FA
:103200002326C10C2324B10C93878700E3DEBFFC87
:10321000032581001306410C93850400EF10104430
:10322000631E0516930E0001130404FF0326C10C50
:103230008325810C93870900930F7000E3CA8EFAEF
:10324000130809000329810393880A00930A0B00DD
:10325000130B0C00130C04001384070033068601C3
:103260009385150023200401232284012326C10C09
:103270002324B10C13077000130484006356B7D4E1
:10328000032581001306410C93850400232C1103B0
:10329000EF10D03C631405100326C10C8328810372
:1032A000138409006FF04FD2373801001307000173
:1032B0008325810C1308881A635257099307040069
:1032C0001307000113840A00130C7000232C110350
:1032D000930A0A006F00C000130404FF63588704B8
:1032E000130606019385150023A0470123A2E700DA
:1032F0002326C10C2324B10C93878700E35EBCFC1A
:10330000032581001306410C93850400EF1010354E
:103310006316050813070001130404FF0326C10CFC
:103320008325810C93870900E34C87FA8328810366
:1033300013880A00930A0400138407003306560119
:103340009385150023200401232254012326C10C58
:103350002324B10C1307700013048400635AB7C60A
:10336000032581001306410C93850400232C1103CF
:10337000EF10D02E631405020326C10C83288103AD
:10338000138409006FF0CFC4032581001306410C9C
:1033900093850400EF10902C630A05C88325010172
:1033A000638005CC03258100EF30C0536FF04FCB15
:1033B000938E0C006FF05F97373801001305000102
:1033C0008325810C130C881B6358E50A23282105EB
:1033D0009307040013090C00930E0001130C0B005B
:1033E00093037000138B0A00232C51022326F1054E
:1033F00013040700938A08006F00C000130404FF41
:1034000063DA8E04130606019385150023A02701B5
:1034100023A2D7012326C10C2324B10C9387870054
:10342000E3DEB3FC032581001306410C9385040001
:10343000EF10D022E31405F6930E0001130404FFED
:103440000326C10C8325810C938709009303700028
:10345000E3CA8EFA93880A0083228103930A0B0041
:10346000832FC104130B0C00130C09000329010561
:1034700013070400138407003306E6009385150044
:103480002322E400232084012326C10C2324B10C31
:103490001307700013048400635EB7AA032581003C
:1034A0001306410C93850400232811052326F105FA
:1034B000232C5102EF10901AE31205EE0326C10CE3
:1034C00083280105832FC10483228103138409000B
:1034D0006FF04FA8032581001306410C938504006B
:1034E00023261105232CF103EF105017E31805EAEA
:1034F0000326C10C8328C104832F81031384090090
:103500006FF00FAC37380100130700018327810CDF
:10351000130C881B63525707032D8100130B000106
:10352000930C70006F00C000938A0AFF63565B051E
:1035300013060601938717002320840123226401C8
:103540002326C10C2324F10C13048400E3DEFCFCCD
:103550001306410C9385040013050D00EF101010A5
:10356000E31E05E2938A0AFF0326C10C8327810C20
:1035700013840900E34E5BFB330656019387170063
:1035800023208401232254012326C10C2324F10C7F
:1035900013077000635EF7A6032581001306410C34
:1035A00093850400EF10900BE31A05DE0326C10C8F
:1035B0006FF00FA60325C10AE35AA0028327C101B9
:1035C00003270102938A07006342F73063565003D2
:1035D0000327810C330656012320A401130717008B
:1035E000232254012326C10C2324E10C93057000EF
:1035F00013048400E3C0E55813C7FAFF8327C10111
:103600001357F741B3FAEA00B38A57416340503B7E
:103610008327C10113F70C40330CFD00E31A073078
:10362000832AC10A8327010263CCFA3E13F71C00E8
:103630006318073E03270102B307ED00B30A5741A1
:10364000338B874163D46A01138B0A00635860038C
:103650008327810C3306660123208401938717009A
:10366000232264012326C10C2324F10C13077000CC
:10367000130484006354F7006F1000339347FBFF7B
:1036800093D7F741337BFB00B38A6A41635A509763
:10369000373801001308881A130700018327810CAB
:1036A000130B0001130C7000130D08006348570141
:1036B0006F00807E938A0AFF635E5B7D13060601BE
:1036C000938717002320A401232264012326C10C21
:1036D0002324F10C13048400E35EFCFC0325810029
:1036E0001306410C93850400EF104077E31805CAD8
:1036F0000326C10C8327810C138409006FF09FFB04
:1037000093F51C00639205CC2322E4002326810D4F
:103710002324510D9307700063D657D703258100EA
:103720001306410C93850400EF104073E31805C69F
:10373000032CC10C832A810C138B09006FF08FD4EA
:10374000032701029307100063DEE7D23738010038
:10375000930710011308881AE3D6E70A232E2101E4
:1037600093070001130D7000130908006F00C000DB
:10377000130404FFE3D48708130C0C01938A1A0086
:1037800023202B012322FB002326810D2324510D0E
:10379000130B8B00E35E5DFD032581001306410CD6
:1037A00093850400EF10806BE31A05BE032CC10C57
:1037B000832A810C138B0900930700016FF05FFBD4
:1037C0000327410193F70E01032B0700130747005E
:1037D000232AE100639A070493F70E046380070429
:1037E000131B0B01135B0B01930D000093071000DB
:1037F0006FF08FA0130B0000130D01196FF00F9ADB
:1038000093F71C00639407006FE09FFF6FF01F8920
:1038100083480900232AF1006FE0DFE993F70E20C7
:1038200063840700137BFB0F930D000093071000C8
:103830006FF08F9C93F70C20E3980738930D0000EE
:103840006FF00F9B93F70C20E3960736935DFB41D7
:1038500093870D006FF00F928327C10383480900FF
:10386000639407006FE01FE583C7070063940700B8
:103870006FE05FE493EC0C406FE0DFE393F70C0143
:103880006390076C93F70C04E39C073013FE0C2045
:1038900063080E6A832741010327C10083A707003D
:1038A0002380E7006FF00FF38327410103A7070090
:1038B00093874700232AF10083250700032647004A
:1038C000832687000327C7006FF0CF9D930A070068
:1038D000E34050D16FF05FD2930AF0FF13890600E6
:1038E0006FE09FDD93874150232AF10293F70C028A
:1038F0006384073683274101138C7700137C8CFF88
:10390000032B0C00832D4C0093078C00232AF1001D
:1039100093F71C00638E0700B367BB01638A07003F
:10392000930700032304F10AA304110B93EC2C006A
:1039300093FEFCBF930720006FF00F8C938E0C005A
:103940006FF04FE09387014F232AF1026FF01FFAC7
:103950008348190093EC0C20130919006FE09FD5E0
:103960008348190093EC0C02130919006FE09FD4EF
:10397000032581001306410C93850400EF10004ECF
:10398000E31E05A00326C10C138409006FF00FF499
:1039900093076000138B0A00E3E05721930D0B009F
:1039A000232A8101138D81516FE09FD737380100A1
:1039B000930500010327810C1308881A63DE5567FD
:1039C00093070400130C0001130B7000130408008C
:1039D0006F00C000938A0AFF635C5C6513060601F2
:1039E0001307170023A0870023A287012326C10CF9
:1039F0002324E10C93878700E35EEBFC0325810021
:103A00001306410C93850400EF104045E318059818
:103A10000326C10C0327810C938709006FF09FFBDD
:103A2000032701038327C102930570002320E400CC
:103A30000327810C3306F6002322F4001307170036
:103A40002326C10C2324E10C13048400E3D4E5BE37
:103A5000032581001306410C93850400EF100040FC
:103A6000E31E0592832AC10A0326C10C13840900B0
:103A70006FF05FBC93078007130700032304E10A7C
:103A8000A304F10A130730062328010093EC2C004D
:103A9000130DC112635457890325810093851A00C1
:103AA00023281101EF50805583280101130D0500D3
:103AB000631405006F10002B2328A1006FF00F8600
:103AC00003258100130B01091307C10A1308C10B59
:103AD0009307010B93860A001306200093050B0041
:103AE000232411032328F1092322F103232AE109C6
:103AF0002320E103232CD109232ED101232E810978
:103B0000EF30000F13F71C00832EC101032F0102B9
:103B1000832F410283288102130D0500E31A071049
:103B20008327C10A232EF1008327C10BB387A74047
:103B30002320F1028327C1011307D0FF63C4E700EC
:103B4000E3D8FA588327C1019388E8FF1387F7FF6A
:103B50002326E10A93F6F80F13060000230AD10A80
:103B60009306B002635A07008327C10113071000B0
:103B70009306D0023307F740A30AD10A93069000B8
:103B800063C4E6006F1040021308310C930508006F
:103B90001305A000130F3006B367A70213860500B4
:103BA000930607009385F5FF93870703A30FF6FE9F
:103BB0003347A702E342DFFE130707039306E6FF3E
:103BC000A38FE5FE63E406016F1040151307610B38
:103BD00083C706009386160013071700A30FF7FE8E
:103BE000E39806FF930701193387C740930777F3DC
:103BF0002320F10483270102832601041307100008
:103C0000338BD7006344F7006F00D07D8327C10258
:103C1000330BFB009346FBFF13FEFCBF93D6F6412C
:103C200093670E102326F104B37DDB0023240102E9
:103C300023220102232E010083278103E38E0746FE
:103C40001307D002832CC104A303E10A930A0000E6
:103C5000938D1D006FE01FAE0327410193F70C0108
:103C6000032B070013074700232AE100639607068A
:103C700093F70C04638E0704131B0B01135B0B01FA
:103C8000930D00006FF0DFC8032581001306410C7F
:103C900093850400EF10801C631205F0032CC10C07
:103CA000832A810C138B09006FE0DFF30325810069
:103CB0001306410C93850400EF10401A631005EEC3
:103CC000032CC10C832A810C138B09006FE09FF435
:103CD00093F70C2063900770930D00006FF05FC3A3
:103CE00037D8CCCCB7DCCCCC0327C10313FF0E40B4
:103CF0001306000093050119130E50001308D8CCC9
:103D0000938CCCCC130CF00F6F004005B3376D01D2
:103D1000B307FD00B3F7C703B307FB40B335FB00A0
:103D2000B385BD4033839703B385050333B50703DC
:103D3000B3856500B3870703B385A5001395F50127
:103D400093D5150093D71700B367F500E3840D40B2
:103D5000938D0500138B070093850600330DBB017F
:103D6000B3376D01B307FD00B3F7C7039386F5FFC3
:103D700013061600B307FB403335FB003385AD4017
:103D800033B3070333050503B38707033305650022
:103D90001315F50193D71700B367F50013952700A6
:103DA000B307F50093971700B307FB40938707030A
:103DB000A38FF5FEE30C0FF483470700E318F6F436
:103DC000E30686F5639C0D2A9307900063E8672B52
:103DD000138D0600930701192320C102232EE1024F
:103DE000338BA741938C0E006FE05FBB0327810CE0
:103DF000938501522320B40013061600930510008A
:103E0000130717002322B4002326C10C2324E10C3E
:103E1000930570001304840063C6E552631C051209
:103E20008327010213F71C003367F70063140700B0
:103E30006FE01F9D032701038327C10293057000D4
:103E40002320E4000327810C3386C7002322F400DB
:103E5000130717002326C10C2324E10C63C4E55A81
:103E6000130484006F00401203258100EF10806A64
:103E70006FE00FF0032581001306410C93850400C9
:103E8000EF00D07D631C05D00326C10C138409000C
:103E90006FF00FA013080D0023200401232254010A
:103EA00033065601938717002326C10C2324F10CF7
:103EB000130770006344F7006FE05F946FE05FDF0B
:103EC0008327010D93050108130501092328F10833
:103ED0008327410D2320010823220108232AF1080A
:103EE0008327810D2324010823260108232CF108B0
:103EF0008327C10D232EF108EFB0003D8328010177
:103F0000E34605260347710A9307700463D01747F9
:103F1000138D414E23280100232401022322010294
:103F2000232E010093FCFCF7930D3000130B30009F
:103F3000930A0000630407006FE09FA86FE08FFF03
:103F4000832741010327C10083A7070023A0E700BF
:103F50006FF04F88032701038327C1029305700088
:103F60002320E4000327810C3386C7002322F400BA
:103F7000130717002326C10C2324E10C130484002B
:103F800063C2E548E34E0534832701021307170097
:103F90002320A4013386C7002322F4002326C10C6A
:103FA0002324E10C9307700063C4E7006FE01F85D2
:103FB0006FE01FD013050D00232C1103EF20405D8F
:103FC0000347710A9346F5FF93D6F641232A8101F0
:103FD000232801002324010223220102232E0100B1
:103FE00083288103130B0500B37DD500930A0000DD
:103FF000630407006FE0DF9C6FE0CFF31308090054
:104000000329C101330C8C00938A1A0023200B0171
:104010006FE0DFC58327C10D63C4073C0347710A06
:1040200093077004E3CA171B138D814E6FF09FEE48
:104030001308040013840700330656011307170002
:1040400023200401232254012326C10C2324E10C44
:10405000930570001304840063DCE5DA0325810016
:104060001306410C93850400EF00505F631805B2FE
:104070000326C10C138409006FF08FD983278104B4
:1040800083254104232C0103B386F64013860700E1
:10409000138506002324E1032322D10323201103E7
:1040A000232EE1002328D100EF105060B3376D01BB
:1040B00013065000B307FD00B3F7C7020327C10181
:1040C00037D3CCCC37D5CCCC834517001303D3CC16
:1040D0001305C5CCB335B0003307B7008326010103
:1040E00083280102832E4102032F810203288103CA
:1040F00013060000130E5000B307FB40B335FB005E
:10410000B385BD403385A702B3856502B3BF67029F
:10411000B385A50033856702B385F5019397F50153
:1041200093D5150013551500B3E7A7006FF05FC2D4
:1041300083270102032B4102B7380100B307FD00BA
:10414000232C210323269105232871052322B10363
:10415000832D81022324A103832CC103130D0C00A2
:1041600003298100032C8104130870001307000148
:10417000938A881A93050400938B0700635660099D
:104180006350B017938DFDFF8327410433068601EA
:1041900023A2850123A0F5008327810C2326C10CCF
:1041A00093858500938717002324F10C6340F8144E
:1041B00083C60C003384AB4163D4860013840600AD
:1041C000635680028326810C3306860023A0A50156
:1041D0009386160023A285002326C10C2324D10C2C
:1041E000634AD81283C60C00938585001345F4FFFB
:1041F0001355F541B377A4003384F640634280043D
:10420000330DDD00E34E60F7E34EB0F78327010284
:10421000130C0D00032D8102232E9103032981032A
:104220003307FD00832CC104832B0105832D41023C
:1042300013840500637687BF130C07006FF04FBE31
:10424000373F01008326810C130F8F1A63548706B2
:10425000232E51016F00C000130404FF635A87042A
:10426000130606019386160023A0550123A2E5003C
:104270002326C10C2324D10C93858500E35ED8FC52
:104280001306410C9385040013050900EF00103D4F
:104290006316059013070001130404FF0326C10CE5
:1042A0008326810C9385090013087000E34A87FA7E
:1042B000032FC101330686009386160023A0E50173
:1042C00023A285002326C10C2324D10C634AD86481
:1042D00083C60C0093858500330DDD006FF09FF2DF
:1042E000938CFCFF130BFBFF6FF01FEA1306410CCE
:1042F0009385040013050900EF0050366310058A0A
:104300000326C10C938509001307000113087000F0
:104310006FF01FEA1306410C938504001305090092
:10432000EF00D033630405006FF04F8783C60C00A5
:104330000326C10C938509001307000113087000C0
:104340006FF0DFEA032581001306410C938504001A
:10435000EF00D030630405006FF04F840325C10ADD
:104360000326C10C138409006FF05FAB138D014E5F
:104370006FF05FBA032581001306410C938504009A
:10438000EF00D02D630405006FF04F810326C10CB0
:10439000138409006FF04FA6130B60006FF00FE05D
:1043A000832741010327C10083A707002390E7006B
:1043B0006FE05FC2131B8B01135B8B41935DFB416D
:1043C00093870D006FE00FDB137BFB0F930D000055
:1043D0006FE00FE2137BFB0F930D00006FF04FD3E4
:1043E0009307D002A303F10A1307D0026FF05FC353
:1043F000032581001306410C93850400EF0010266D
:104400006FE00FC6032581001306410C938504005D
:10441000EF00D024630405006FE05FF80325C10AB4
:104420000326C10C0327810C138409006FF09FB58C
:1044300033075501130670049305010813050B009B
:104440002322E1022320C102232E11012328F10996
:10445000232AE109232CD109232E810923200108D5
:10446000232201082324010823260108EFA0104677
:104470008328C10103260102032741026302055676
:104480008327C10B63FEE7009305000393861700A3
:10449000232ED10A2380B7008327C10BE3E8E7FE70
:1044A0000327C10A232EE100B387A7411307700435
:1044B0002320F1026300E6E813076004630CE65A68
:1044C0008327C1011387F7FF6FF08FE893861A00E7
:1044D0001306200003258100130B01091307C10AED
:1044E00093050B001308C10B9307010B232811053B
:1044F0002324D1022328F1092322F103232AE109ED
:104500002320E103232CD109232ED101232E81095D
:10451000EF20006E83280105832681029305600445
:1045200013F6F8FD832EC101032F0102832F4102F0
:10453000130D05003307D500E310B60203450D0047
:10454000930500036306B54A8326C10A9305010853
:104550003307D7006FF09FEE130B01099305010895
:104560001306C10A13050B00232011052320F109AE
:104570002322E1092324D109232EB1002326810916
:10458000EF20C009032701098325C1011306010794
:104590002320E1080327410913050B002328010606
:1045A0002322E10803278109232A0106232C01067F
:1045B0002324E1080327C1092326E1083707FC3F2C
:1045C000232EE106EFA050638325C101032F0109CB
:1045D000832E41090328810913050B002324B1020E
:1045E0002322E1032320D103232E010123200108EC
:1045F000232201082324010823260108EFA0102DFF
:10460000832DC1090328C101832E0102032F41021A
:104610008325810283280104631605001307100017
:104620002326E10A130710066380E86A9387415046
:10463000232EF1002320210323249103232071053D
:104640002326810413090D0023289104232AA105A0
:104650008324C101938AFAFF23221103930B0F00D5
:10466000138C0E00930C0800138D0D0013840500AD
:104670006F00C0039305040013050B002328710984
:10468000232A8109232C9109232EA1092320010823
:10469000232201082324010823260108938DFAFF11
:1046A000EFA0D0226308055C938A0D00B707034092
:1046B000130601079305040013050B00232EF106D2
:1046C0002320710923228109232491092326A1098A
:1046D00023280106232A0106232C0106EFA0D0512E
:1046E00013050B00EFD0402393050500930D050043
:1046F00013050B00032D0109832C4109032C8109AB
:10470000832BC109EFD0C0308326010913060106AF
:10471000930501072320D1068326410913050400D0
:104720002328A1072322D10683268109232A910762
:10473000232C81072324D1068326C109232E710748
:104740002326D106EFB0904BB386B40103C6060012
:10475000930F090013091900832B0108032C41084A
:10476000832C8108032DC1089307F0FFA30FC9FE16
:10477000E392FAF083284102138F0B00930E0C0092
:1047800013880C0093050400232CB105B70AFE3FE3
:10479000930D0D0013050B00232E11052322F103A9
:1047A00083240105832B0104832C81020324C1048B
:1047B0002328E1092328E105232AD1092326D1054D
:1047C000232C010923200105232EB10923200108F0
:1047D0002322010823240108232651092324B1029E
:1047E000EFA0901B130C0900032D410503290102C2
:1047F000832F41028328C1056346A00283258102DD
:1048000013050B0023201103EFA0500C8328010295
:10481000631E050483278105832F410293F6170049
:10482000638606048327C101232EF10B0346FCFF98
:1048300083C5F70093060C006310B602130500034E
:10484000A38FA6FE8326C10B9387F6FF232EF10AC2
:1048500003C6F6FFE386C5FE930516001305900315
:1048600093F5F50F6304A604A38FB6FE8327C10A50
:104870003307AC412320E1021387F7FF232EF10019
:10488000130610062326E10A930600076386C80074
:104890009306000593081004130610006FF00FAC88
:1048A00093860A00130630006FF0DFC28327C10130
:1048B00083C5A7006FF05FFB0347710A832CC10417
:1048C000930A0000630407006FE08F8F6FD09FE6AC
:1048D000832701020327C1016348F71C8327C10115
:1048E00013F71C00138B0700630607000327C102A0
:1048F000338BE70013FE0C4063060E008327C101D3
:10490000634AF02E9346FBFF93D6F641B37DDB005E
:104910009308700623240102232201026FF0CFB115
:104920001306410C9385040013050900EF000053A2
:10493000630405006FE09FA683C60C000326C10C2C
:10494000938509001307000113087000330DDD0083
:104950006FF05F8B13059000636C65BF6FF04FC7FE
:104960009307F0FF2326F1006FD0DFF29307D00208
:10497000A303F10A1307D0026FF00FD90347710A9E
:10498000232A81012324010223220102232E010074
:10499000938D0A00138B0A00930A0000630407003A
:1049A0006FE00F826FD01FD9032581001306410CE1
:1049B00093850400EF00804A630405006FE01F9EAA
:1049C000832AC10A832701020326C10C138409002C
:1049D000B38A57416FE09FCA138DC14E6FF08FD3DA
:1049E0008327C10A232EF100930707006FF0DFAB86
:1049F0009305010813050B00232EE104232CC104A9
:104A0000232A11052328D1042328F1092324F103A3
:104A1000232AE1092322E103232CD1092320D103F6
:104A2000232EB100232E810923200108232201080F
:104A30002324010823260108EFA040698325C10132
:104A4000832E0102032F4102832F81028326010559
:104A500083284105032681050327C105631C05261C
:104A60008327C10A3307F700232EF100B307A741BC
:104A70002320F1028327C10113F71C00336757017C
:104A80006354F02663180722032BC10193086006C4
:104A900013FE0C4063120E169346FBFF93D6F641AD
:104AA000B37DDB006FF01FE7832701020327C102FC
:104AB00093087006338BE7008327C101E34AF0FCBB
:104AC000330FFB40130B1F009346FBFF93D6F641B9
:104AD000B37DDB006FF01FE4938E0C006FE04FB9E5
:104AE00037380100930500FFB30AA0401308881A65
:104AF0006358B506232E2101130B0001130C70001F
:104B0000130908006F00C000938A0AFF63565B0513
:104B10001306060113071700232024012322640132
:104B20002326C10C2324E10C13048400E35EECFC77
:104B3000032581001306410C93850400EF00003229
:104B4000630405006FE09F850326C10C0327810CD9
:104B5000138409006FF05FFB130809000329C101EA
:104B600033065601130717002320040123225401A2
:104B70002326C10C2324E10C9305700063D2E5AE1B
:104B8000032581001306410C93850400EF00002DDE
:104B9000630405006FE09F800326C10C0327810C8E
:104BA000138409006FF04FBE9306610B6318060073
:104BB00093060003230BD10A9306710B9307011987
:104BC0003386F640130707039307D60D2380E600CC
:104BD0002320F1046FF00F8223280100930A600064
:104BE0006FD0DFF313F71C00631407006FF08F82A0
:104BF0006FF0CF81930870060326C1039306F00F70
:104C0000034706006304D7148327C101130500007E
:104C100093050000635EF700B387E7400347160083
:104C2000630407049385150013061600E314D7FEEA
:104C3000232EC1022322B1022324A102232EF1003C
:104C400083278102032741023387E70083278104FA
:104C50003307F702330B67019346FBFF93D6F64108
:104C6000B37DDB006FE05FFD034706001305150011
:104C70006FF0DFFB130C090093861A0083284102B2
:104C8000832C8102832B01040324C1040329010224
:104C900083240105032D4105B306DC001306000340
:104CA000E3C60ABC130C1C00A30FCCFEE31CDCFE05
:104CB0006FF0DFBB0327C10293086006338FEA0061
:104CC000330BFF006FF0DFDC9387014F232EF100E1
:104CD0006FF05F9613051000B306D5402326D10A66
:104CE0003307D7006FF08FF5631A0700930D10009C
:104CF00093086006130B10006FF0DFC18327C10219
:104D000093086006138F1700330B5F019346FBFF78
:104D100093D6F641B37DDB006FF0DFBF9307200031
:104D20002320F1046FE01FED8327410183AA0700D0
:104D30009387470063D40A00930AF0FF8348190061
:104D4000232AF100138906006FD0DF962324010285
:104D5000232201026FF0DFEE1306500493050108D1
:104D60006FF0CFED83D7C40093E707042396F400D8
:104D70006FD01FAF3747010093070500032547E3B6
:104D80009306060013860500938507006FD04FF841
:104D9000130101B88397C50003D7E500232C814692
:104DA00013840500B70501009385D5FF032E440643
:104DB0000323C4018328440213170701B3F7B70084
:104DC000B3E7E70013080040232AF10093058100B0
:104DD00093070107232A914623282147232E1146B2
:104DE000130905002326C10723226102232611038C
:104DF0002324F100232CF10023280101232E01019B
:104E000023200102EFD0CFF093040500635C05027C
:104E10008357410193F70704638807008357C40051
:104E200093E707042316F4008320C1470324814736
:104E300003290147138504008324414713010148D6
:104E4000678000009305810013050900EF00802AA8
:104E5000E30005FC9304F0FF6FF09FFB83278600BF
:104E6000130101FF232481002326110013040600EF
:104E7000639E07008320C1002322040003248100D5
:104E8000130500001301010167800000EF00806E30
:104E90008320C10023240400232204000324810072
:104EA00013010101678000000397C500130101FE93
:104EB000232C810023263101232E110093778700B4
:104EC000138405009309050063900712B7170000CB
:104ED0009387078083A64500B367F7002396F50004
:104EE0006352D018032884026304080E232A910019
:104EF0009316370183A4090023A009008325C40168
:104F000063CE0616130600009306100013850900F1
:104F1000E70008009307F0FF130605006304F51A85
:104F20008317C400032884028325C40193F7470034
:104F3000638E070003274400832704033306E640FB
:104F4000638607008327C4033306F64093060000F8
:104F500013850900E70008009307F0FF6314F512BA
:104F600083A609009307D0010317C40063EAD7168C
:104F7000B707402093871700B3D7D70093F71700E0
:104F80006380071603260401B7F7FFFF9387F77FB7
:104F9000B377F7002316F400232204002320C40073
:104FA0009317370163D40700638206108325040337
:104FB00023A0990063840510930704046386F50019
:104FC00013850900EF1010128324410123280402E5
:104FD000130500008320C101032481018329C1003E
:104FE00013010102678000002328210103A90501A4
:104FF00063020908232A910083A405001377370070
:1050000023A02501B3842441930700006314070003
:1050100083A745012324F400634890006F004005F6
:105020003309A90063569004832744028325C401F1
:10503000938604001306090013850900E780070022
:10504000B384A440E34EA0FC0317C400032901016C
:1050500013670704832441012316E4001305F0FFBE
:105060006FF05FF783A6C503E34ED0E66FF05FF6FF
:1050700083244101032901016FF09FF503260405F4
:105080006FF0DFEA0317C40083260401B7F7FFFFC0
:105090009387F77FB377F7002316F40023220400E9
:1050A0002320D40093173701E3D207F083250403AC
:1050B0002328A40423A09900E39005F08324410150
:1050C0006FF01FF183A70900E38C07E41307D001F9
:1050D000638CE700130760016388E7000317C400CF
:1050E000136707046FF01FF723A099008324410181
:1050F0006FF01FEE130101FE232C8100232E1100FF
:10510000130405006306050083274503638A07022D
:105110008397C500639C07008320C101032481019C
:10512000130500001301010267800000130504004D
:10513000032481018320C101130101026FF0DFD636
:105140002326B100EF00003D8325C1006FF05FFC16
:1051500063020506B74701009305050003A547E371
:105160006306050083274503638C07008397C5000A
:105170006396070013050000678000006FF0DFD220
:10518000130101FE2326B1002324A100232E1100C8
:10519000EF0040388325C100032581008397C500B7
:1051A000639807028320C101130500001301010267
:1051B0006780000037460100B75500003735010011
:1051C000130606869385450F130505746F00900B33
:1051D0008320C101130101026FF01FCD13050000F0
:1051E0006780000037460100B7B500003735010081
:1051F000130606869385C5F1130505746F009008A4
:1052000083254500130101FFB747010023248100D6
:1052100023261100938747E6130405006384F500F5
:10522000EF50D04F83258400B74701009387C7EC28
:105230006386F50013050400EF50504E8325C4002B
:10524000B7470100938747F3638CF500130504000B
:10525000032481008320C100130101016F50104C11
:105260008320C10003248100130101016780000035
:105270001305000067800000130101FEB75700000E
:10528000232C8100374701009387471E37440100D4
:1052900037450100130444E6232E1100232A910010
:1052A0002328210123263101232441012322F7FC55
:1052B000130680009307400093050000130505ECDA
:1052C0002326F400232004002322040023240400C6
:1052D0002322040623280400232A0400232C04008C
:1052E000EF100003B7070100376A0000B76900003C
:1052F00037690000B764000037450100130A8AB31C
:105300009389C9B9130949C29384C4C99387970083
:105310001306800093050000130585F22320440343
:10532000232234032324240323269402232AF4066D
:10533000232E84002324040623260406232804069F
:105340002326040C232C0406232E04062320040801
:10535000EF00107CB7070200374501003747010016
:10536000938727011307C7EC1306800093050000FD
:10537000130505F923244409232634092328240985
:10538000232A9408232EF40C2322E4082328040C57
:10539000232A040C232C040C232A04122320040E99
:1053A0002322040E2324040EEF009076B747010059
:1053B000938747F32328440F232A340F232C240FE9
:1053C000232E940E8320C1012326F40E0324810191
:1053D00083244101032901018329C100032A81009B
:1053E0001301010267800000B747010083A747FC53
:1053F000130101FE23263101232E1100232C8100ED
:10540000232A910023282101930905006388070EB0
:1054100037490100130909869304F0FF83274900E7
:10542000032489009387F7FF63D807006F00000803
:1054300013048406638C97060317C4009387F7FF51
:10544000E31807FEB707FFFF938717002326F40032
:105450002322040623200400232404002322040022
:1054600023280400232A0400232C040013068000B0
:10547000930500001305C405EF009069232804027A
:10548000232A040223220404232404048320C101C8
:105490001305040003248101832441010329010130
:1054A0008329C10013010102678000000324090061
:1054B00063060400130904006FF05FF69305C01A39
:1054C00013850900EF30903313040500630C0502C7
:1054D0001305C50093074000232004002322F40095
:1054E0002324A4001306001A93050000EF00506265
:1054F00023208900130904006FF05FF2EFF0DFD77B
:105500006FF01FF1232009009307C00023A0F900CA
:105510006FF0DFF78327450363840700678000008F
:10552000B747010003A747FCB75700009387072040
:10553000232AF502E31407FE6FF01FD467800000F2
:105540006780000037460100B75500001306068645
:105550009385C51D130500006F00C052374601003A
:10556000B75500001306068693850527130500002E
:105570006F004051832786006384072C8396C50003
:10558000130101FD23248102232C41012328610101
:105590002326110293F78600130B0600130A050059
:1055A00013840500638E070883A70501638A070833
:1055B0002322910223202103232E3101232A51018A
:1055C00093F7260083240B006384070A8327440291
:1055D0008325C401B70A0080930900001309000065
:1055E000938A0AC01386090013050A00630209049E
:1055F0009306090063F42A0193860A00E7800700F6
:105600006350A04683278B00B389A9003309A940C2
:10561000B387A7402324FB006386071A832744022D
:105620008325C4011386090013050A00E31209FC4F
:1056300083A9040003A94400938484006FF09FFAB7
:105640009305040013050A00EF00C065631C051CE8
:105650008316C4002322910223202103232E31012B
:10566000232A510193F7260083240B00E39007F6C9
:10567000232671012324810193F716006396071CEA
:105680008327040003278400B70A008023229101A6
:10569000930B000093090000938AFAFF138507001B
:1056A000130C07006382091013F60620630806280E
:1056B000930C070063E6E93213F70648630A07080C
:1056C0000326440183250401131716003307C7007E
:1056D0003389B740135CF701330CEC0093071900D2
:1056E000135C1C40B387370113060C006376FC0083
:1056F000138C07001386070093F60640638E06306E
:105700009305060013050A00EF30500F930C0500B7
:10571000630C05348325040113060900EF00104DC6
:105720008357C40093F7F7B793E707082316F400ED
:1057300033852C01B3072C4123289401232A8401AB
:105740002320A400138C09002324F400938C090067
:1057500013860C0093850B00EF00D02A03278400EA
:10576000832704001389090033078741B387970112
:105770002324E4002320F4009309000083278B00F6
:10578000B38B2B01B38727412324FB0063860702D9
:1057900083270400032784008316C40013850700B1
:1057A000130C0700E39209F083AB040083A94400C3
:1057B000938484006FF09FEE832BC100032C810043
:1057C000832C41008320C1020324810283244102EF
:1057D000032901028329C101832A4101032A81018E
:1057E000032B010113050000130101036780000072
:1057F0009305040013050A00EFF0DF8F630E050A1E
:105800008317C400832BC100032C81008324410231
:10581000032901028329C101832A410193E7070477
:105820002316F4008320C10203248102032A81018C
:10583000032B01011305F0FF130101036780000032
:105840001305000067800000930A000013050000A4
:10585000130C00009309000063820908630A05081D
:1058600093870A00938B090063F43701938B070039
:1058700003250400832704010329840083264401AF
:1058800063F6A7003309D9006344790963C0DB16C6
:10589000832744028325C40113060C0013050A0064
:1058A000E780070013090500E35CA0F4B38A2A41EE
:1058B00013051000E38E0AF283278B00330C2C01B2
:1058C000B3892941B38727412324FB00E39607F8D6
:1058D000832BC100032C81006FF0DFEE83A944000D
:1058E0009387040093848400E38A09FE03AC0700D5
:1058F000138609009305A00013050C00EF00C04EAD
:10590000630A051413051500B30A85416FF05FF5AE
:1059100093050C0013060900EF00D00E8327040046
:105920009305040013050A00B38727012320F40020
:10593000EFF04FFCE30C05F66FF09FEC83260401BB
:1059400063E2F6040326440163EEC902938709006B
:1059500063F43A0193870A00B3E6C70203274402BF
:105960008325C40113860B0013050A00B386D740B4
:10597000E700070013090500635AA004B389294111
:105980006FF0DFDF1309070063F4E90013890900F2
:10599000138507001306090093850B00EF0090069E
:1059A000032784008327040033072741B387270197
:1059B0002324E4002320F400E31207FC93050400F1
:1059C00013050A00EFF00FF3E30A05FA8317C4008A
:1059D000832BC100032C8100832C41006FF01FE357
:1059E000138C0900938C09006FF09FD613860B006F
:1059F00093050C00EF0010010327840083270400A7
:105A000013890B0033077741B38777012324E40020
:105A10002320F4006FF09FE913050A00EF4010798E
:105A2000930C0500E31605D08325040113050A0035
:105A3000EF00506B8317C4001307C000832BC10015
:105A4000032C8100832C41002320EA0093F7F7F711
:105A50006FF0DFDB93871900938A07006FF09FE0F8
:105A60008317C4006FF09FDA1307C0008317C400C8
:105A7000832BC100032C8100832C41002320EA00EA
:105A80006FF0DFD8130101FD23202103232E310104
:105A9000232C4101232A510123286101232671016E
:105AA000232611022324810223229102130B0500D5
:105AB000938B0500930A0600130A00009309100057
:105AC0001309F0FF83A44A0003A48A009384F4FF1F
:105AD00063C804028357C40063FEF9008317E4001F
