:1000000097410000938101FE17010200130181FF57
:10001000175E0000130E8E92975E0000938EBEA0B6
:100020006F00C00023200E00130E4E00E36CDEFFB5
:100030001305000093050000EF00401913050400AC
:100040009302100017530000130343892320530029
:100050006F000000130101FE232E1100232C8100EC
:100060001304010293070500A307F4FE0347F4FEFF
:10007000B757000023ACE792B757000083A78793D8
:1000800013850700EF20C06D130000008320C1011D
:10009000032481011301010267800000130101FFA5
:1000A0002326110023248100130401011305F00FFE
:1000B000EFF05FFA130000008320C10003248100E9
:1000C0001301010167800000130101FF23261100C5
:1000D000232481001304010113050000EFF09FF7B2
:1000E000130000008320C1000324810013010101DB
:1000F00067800000130101FD232681021304010320
:10010000232EA4FC232604FE6F000003232404FEF8
:100110006F000001832784FE938717002324F4FED9
:10012000032784FE9307703EE3F6E7FE8327C4FEB1
:10013000938717002326F4FE8327C4FE0327C4FDFC
:10014000E3E6E7FC13000000130000000324C102F3
:100150001301010367800000130101FD23268102C2
:1001600013040103232EA4FC232604FE6F000004C5
:100170008327C4FE0327C4FDB307F70003C70700A6
:10018000B75700009386478D8327C4FEB387F600D8
:1001900083C707006306F700930700006F000002A3
:1001A0008327C4FE938717002326F4FE0327C4FE8B
:1001B00093073000E3DEE7FA93071000138507008A
:1001C0000324C1021301010367800000130101FD34
:1001D0002326110223248102130401033705029010
:1001E000EF10C016130710009306000013068000DE
:1001F000B7C7010093850720B7E7F50513850710FA
:10020000EF00102B232A04FC6F000001832744FD1C
:1002100093871700232AF4FC032744FDB7870100C6
:100220009387F769E3D4E7FE13850100EF0080456B
:1002300013850102EF000045232A04FC6F00000132
:10024000832744FD93871700232AF4FC032744FDEA
:10025000B78701009387F769E3D4E7FE370503907A
:10026000EF2010079306000013060000930500001E
:100270001305F00FEF200052EFF01FE51385C103C7
:10028000EF00404013854106EF00C03F370500A056
:10029000EF108017EF10802213850109EF00803ED8
:1002A0001385810BEF00003E1385010EEF00803DAA
:1002B0009305F00013051000EF1000351305A000A2
:1002C000EFF05FE313850110EF00C03B138541138E
:1002D000EF00403B13057003EF1000399307050052
:1002E000A303F4FE834774FE93850700138541152D
:1002F000EF00403913850117EF00C038EF204005AB
:10030000EF20003F93070500938507001385C1196F
:10031000EF0040371385C11BEF00C0361385011C69
:10032000EF0040361385C11EEF00C0351385011C58
:10033000EF0040351385C11BEF00C0341385C12089
:10034000EF00403413858122EF00C03313057003A2
:10035000EF108031930705002303F4FE834764FE0A
:100360009385070013858125EF00C0311305100127
:10037000EF10802F93070500A302F4FE834754FE7D
:100380009385070013858127EF00C02F1305100008
:10039000EF10802D930705002302F4FE834744FEEF
:1003A0009385070013858129EF00C02D1305700088
:1003B000EF10802B93070500A301F4FE834734FE62
:1003C000938507001385812BEF00C02B1385812DAA
:1003D000EF00402B1385812FEF00C02A9305A00A60
:1003E00013051001EF1040221305A000EFF09FD07D
:1003F00013051001EF104027930705002301F4FEB9
:10040000834624FE034724FE9307A00A6316F700E1
:10041000938701326F0080009387C13213860700F3
:10042000938506001385C133EF00C0251385813500
:10043000EF004025A30704FE6F004004130570037E
:10044000EF10802293070500A30DF4FC8347F4FE10
:10045000938717000347B4FD130607009385070031
:1004600013858139EF00002213052003EFF09FC8A8
:100470008347F4FE93871700A307F4FE0347F4FEB7
:1004800093074000E3FCE7FA1385813AEF00801FF1
:10049000834764FE63880700034764FE9307F00FF9
:1004A0006310F702834764FE938507001385813B41
:1004B000EF00401D1385813EEF00C01C6F008003DC
:1004C000034764FE930710096308F700034764FEBF
:1004D000930720096318F7001385C140EF00801AC5
:1004E0006F004001834764FE9385070013854143F5
:1004F000EF00401913858145EF00C018232404FE46
:100500006F004004EF00902C232EA4FC0327C4FDB1
:10051000930710076308F7000327C4FD930710052E
:100520006318F70013850149EF00C0156F008002C2
:1005300013054006EFF01FBC832784FE9387170046
:100540002324F4FE032784FE9307D001E3DCE7FABB
:100550006FF0DFDE1385814AEF00C01293070000C1
:10056000138507008320C1020324810213010103C4
:1005700067800000130101FE232E1100232C81004F
:10058000130401022326A4FE2324B4FE8327C4FE01
:1005900093F7F70F13850700EF0010289307050066
:1005A000138507008320C101032481011301010287
:1005B00067800000130101FE232E1100232C81000F
:1005C000130401022326A4FE8327C4FE93F7F70F2A
:1005D00013850700EF0050249307050013850700DB
:1005E0008320C101032481011301010267800000FF
:1005F000130101FE232E1100232C8100130401029C
:100600002326A4FEEF00501893070500138507006A
:100610008320C101032481011301010267800000CE
:10062000130101FF2326110023248100130401017B
:10063000EF00901593070500138507008320C10084
:10064000032481001301010167800000130101FDF3
:10065000232611022324810213040103232EA4FC68
:100660000325C4FDEF00D0212326A4FE8327C4FE6A
:10067000138507008320C1020324810213010103B3
:1006800067800000130101FB23261102232481024D
:1006900013040103232EA4FC2322B4002324C4004A
:1006A0002326D4002328E400232AF400232C040169
:1006B000232E140193070402232CF4FC832784FDCA
:1006C000938747FE2324F4FE832784FE9385070047
:1006D0000325C4FDEF00C0282326A4FE8327C4FE03
:1006E000138507008320C102032481021301010541
:1006F00067800000130101FD2326110223248102DB
:1007000013040103232EA4FC232CB4FC232AC4FCD1
:10071000232604FE032784FD9307A0006318F70235
:100720008327C4FD63D407021305D002EF00D00E67
:10073000130705008327C4FEB307F7002326F4FE42
:100740008327C4FDB307F040232EF4FC832784FDE8
:100750000327C4FDB357F7022324F4FE832784FE46
:1007600063980700032744FD9307100063D8E7024E
:10077000832744FD9387F7FF232AF4FC032644FDD7
:10078000832584FD032584FEEFF0DFF613070500C3
:100790008327C4FEB387E7002326F4FE832784FD66
:1007A0000327C4FDB377F702138707009387414CF3
:1007B000B387E70083C7070013850700EF00D00564
:1007C000130705008327C4FEB307F7002326F4FEB2
:1007D0008327C4FE138507008320C10203248102FE
:1007E0001301010367800000130101FD232611029C
:1007F0002324810213040103232EA4FC232CB4FC24
:10080000232404FE930500000325C4FDEF20104AB5
:100810009307050063D607021305D002EF00C07FDF
:1008200013070500832784FEB307F7002324F4FE93
:100830000327C4FDB7070080B347F700232EF4FC5D
:100840000325C4FDEF300046930705002322F4FE84
:10085000832744FE032684FD9305A000138507002B
:10086000EFF05FE913070500832784FEB387E700F5
:100870002324F4FE1305E002EF00007A13070500BD
:10088000832784FEB307F7002324F4FE032544FEE8
:10089000EF30404893070500938507000325C4FD0A
:1008A000EF20507D93070500232EF4FC232604FE41
:1008B00083A501530325C4FDEF20104A93070500CB
:1008C000232EF4FC0325C4FDEF30C03D9307050043
:1008D0002322F4FE832744FE93F7F70F9387070341
:1008E00093F7F70F13850700EF0000731307050058
:1008F000832784FEB307F7002324F4FE032544FE78
:10090000EF30404193070500938507000325C4FDA0
:10091000EF20507693070500232EF4FC8327C4FEB6
:10092000938717002326F4FE930500000325C4FDDA
:10093000EF20503193070500638807000327C4FEAA
:1009400093075000E3D6E7F6832784FE138507005C
:100950008320C10203248102130101036780000088
:10096000130101FC232E1102232C81021304010424
:100970002326A4FC2324B4FC232004FE6F000030B3
:10098000032784FE930750026310F72C8327C4FCCF
:1009900083C707002324F4FE232604FE6F004004CF
:1009A0000327C4FE9307070093972700B387E70048
:1009B0009397170013870700832784FEB307F70078
:1009C000938707FD2326F4FE8327C4FC9387170033
:1009D0002326F4FC8327C4FC83C707002324F4FEEA
:1009E000032784FE9307F00263D8E700032784FE01
:1009F00093079003E3D6E7FA8327C4FC1387170015
:100A00002326E4FC83C707002324F4FE032784FE87
:100A1000930750026308F71E032784FE93075002D2
:100A20006340F720032784FE9307800763CAE71E0D
:100A3000032784FE930730066344F71E832784FE52
:100A40009387D7F913075001636CF71C139727009E
:100A50009387814DB307F70083A7070067800700DE
:100A6000832784FC138747002324E4FC83A7070023
:100A7000A30BF4FC834774FD13850700EF00C059F6
:100A800013070500832704FEB307F7002320F4FEB5
:100A90006F00C01E832784FC138747002324E4FCD7
:100AA00083A70700232EF4FC8327C4FD0326C4FE7E
:100AB0009305800013850700EFF0DFC313070500DF
:100AC000832704FEB387E7002320F4FE6F00001B9A
:100AD000832784FC138747002324E4FC83A70700B3
:100AE000232EF4FC8327C4FD0326C4FE9305A00037
:100AF00013850700EFF01FC013070500832704FECE
:100B0000B387E7002320F4FE6F004017832784FC9F
:100B1000138747002324E4FC83A70700232EF4FC5B
:100B20008327C4FD0326C4FE930500011385070037
:100B3000EFF05FBC13070500832704FEB387E700CF
:100B40002320F4FE6F008013832784FC1387470063
:100B50002324E4FC83A707002322F4FE6F00800413
:100B6000832744FE83C7070013850700EF00C04AB0
:100B700013070500832704FEB307F7002320F4FEC4
:100B8000832744FE03C707009307A0006316F700FE
:100B90001305D000EF004048832744FE93871700D9
:100BA0002322F4FE832744FE83C70700E39A07FA53
:100BB0006F00C00C832784FC9387770093F787FF2F
:100BC000138787002324E4FC03A7070083A74700BB
:100BD0001305070093850700EF30402493070500B5
:100BE000232CF4FC8325C4FE032584FDEFF0DFBF36
:100BF00013070500832704FEB387E7002320F4FED4
:100C00006F00C00713055002EF00004113070500F5
:100C1000832704FEB307F7002320F4FE6F000006CD
:100C200013055002EF00403F13070500832704FE21
:100C3000B307F7002320F4FE8327C4FC9387F7FF54
:100C40002326F4FC6F008003832784FE93F7F70FBD
:100C500013850700EF00403C13070500832704FEBF
:100C6000B307F7002320F4FE032784FE9307A000B8
:100C70006316F7001305D000EF00003A8327C4FC89
:100C8000138717002326E4FC83C707002324F4FE00
:100C9000832784FEE39607CE832704FE138507008F
:100CA0008320C10303248103130101046780000032
:100CB000130101FC232E1102232C810213040104D1
:100CC000232EA4FC232CB4FC232AC4FC2328D4FC0C
:100CD0002326E4FC8327C4FD63960700EF008063AE
:100CE000232EA4FC0327C4FD832784FDB357F702FA
:100CF00013850700EF20006D13070500938705009B
:100D000003A6815383A6C1531305070093850700EB
:100D1000EF10106A130705009387050013050700FD
:100D200093850700EF2000629307050013870700F3
:100D3000B70701009387F7FFB377F7002326F4FE88
:100D4000032744FD930780006316F7009307000014
:100D50006F008000B70701000327C4FEB3E7E70078
:100D60002326F4FE832704FD639607009307000003
:100D70006F008000B70702000327C4FEB3E7E70057
:100D80002326F4FE032704FD930710006316F700E3
:100D9000930700006F008000B70704000327C4FE1C
:100DA000B3E7E7002326F4FE0327C4FC93071000F3
:100DB0006316F700930700006F008000B707080074
:100DC0000327C4FEB3E7E7002326F4FEB75700006D
:100DD00083A7478F2324F4FE832784FE0327C4FEC2
:100DE00023A0E700130000008320C1030324810334
:100DF0001301010467800000130101FC232E11027E
:100E0000232C810213040104232EA4FC232CB4FC04
:100E1000232AC4FC2328D4FC2326E4FC2324F4FC4A
:100E2000232204FD8327C4FD63960700EF00804E54
:100E3000232EA4FC0327C4FD832784FDB357F702A8
:100E400013850700EF20005813070500938705005E
:100E500003A6815383A6C15313050700938507009A
:100E6000EF101055130705009387050013050700C1
:100E700093850700EF20004D9307050013870700B7
:100E8000B70701009387F7FFB377F7002326F4FE37
:100E9000032744FD930780006316F70093070000C3
:100EA0006F008000B70701000327C4FEB3E7E70027
:100EB0002326F4FE832704FD6396070093070000B2
:100EC0006F008000B70702000327C4FEB3E7E70006
:100ED0002326F4FE032704FD930710006316F70092
:100EE000930700006F008000B70704000327C4FECB
:100EF000B3E7E7002326F4FE0327C4FC93071000A2
:100F00006316F700930700006F008000B707080022
:100F10000327C4FEB3E7E7002326F4FE832784FCFF
:100F200063960700930700006F008000B70720005A
:100F30000327C4FEB3E7E7002326F4FE832744FC1F
:100F400063960700930700006F008000B70710004A
:100F50000327C4FEB3E7E7002326F4FEB7570000DB
:100F600083A7478F2324F4FE832784FE0327C4FE30
:100F700023A0E700130000008320C10303248103A2
:100F80001301010467800000130101FE232E81007C
:100F900013040102B757000083A707902324F4FE2F
:100FA000832784FE83A707002326F4FE8327C4FE3D
:100FB000E3D207FE8327C4FE93F7F70F13850700DC
:100FC0000324C1011301010267800000130101FE27
:100FD000232E810013040102B757000083A7079056
:100FE0002324F4FE832784FE83A707002326F4FE30
:100FF0008327C4FE63D807008327C4FE93F7F70F47
:101000006F00800093070000138507000324C101CF
:101010001301010267800000130101FD23268102F4
:101020001304010393070500A30FF4FCB757000056
:1010300083A7C78F2324F4FE832784FE83A707009A
:101040002326F4FE8327C4FEE3C207FE8347F4FD94
:101050002326F4FEB757000083A7C78F2322F4FE90
:10106000832744FE0327C4FE23A0E7008347F4FD43
:10107000138507000324C1021301010367800000E8
:10108000130101FC232E8102130401042326A4FC76
:10109000232604FE6F008004B757000083A7C78F84
:1010A0002320F4FE832704FE83A707002322F4FEF7
:1010B000832744FEE3C207FEB757000083A7C78F0C
:1010C000232EF4FC8327C4FD0347B4FE23A0E700CE
:1010D0008327C4FE938717002326F4FE8327C4FCCE
:1010E000138717002326E4FC83C70700A305F4FE3B
:1010F0008347B4FEE39207FA8327C4FE13850700F3
:101100000324C1031301010467800000130101FCE3
:10111000232E1102232C8102130401042326A4FC94
:101120000327C4FC9307A000B357F7022326F4FE5D
:101130008327C4FE638807008327C4FE1385070046
:10114000EFF0DFFC0327C4FC9307A000B377F7029E
:1011500093F7F70F93870703A305F4FEB757000033
:1011600083A7C78F232AF4FC832744FD83A70700A6
:10117000232CF4FC832784FDE3C207FEB75700004D
:1011800083A7C78F2328F4FC832704FD0347B4FEFD
:1011900023A0E700130000008320C1030324810380
:1011A0001301010467800000130101FC232E1102CA
:1011B000232C8102130401042326A4FC8327C4FCEE
:1011C00093D747002324F4FE832784FE6388070017
:1011D000832784FE13850700EFF01FFD8327C4FCDF
:1011E00093F7F7002324F4FE032784FE930790006F
:1011F00063CCE700832784FE93F7F70F93870703F9
:10120000A307F4FE6F004001832784FE93F7F70FD6
:1012100093877703A307F4FEB757000083A7C78F10
:101220002320F4FE832704FE83A707002322F4FE75
:10123000832744FEE3C207FEB757000083A7C78F8A
:10124000232EF4FC8327C4FD0347F4FE23A0E7000C
:10125000130000008320C103032481031301010450
:1012600067800000130101FE232E81001304010298
:10127000B757000083A7878F2324F4FE832784FEBB
:1012800083A707002326F4FE8327C4FE93F7E7FF16
:101290002326F4FEB757000083A7878F2322F4FE8E
:1012A000832744FE0327C4FE23A0E70013000000A9
:1012B0000324C1011301010267800000130101FE34
:1012C000232E810013040102B757000083A7878FE4
:1012D0002324F4FE832784FE83A707002326F4FE3D
:1012E0008327C4FE93F7D7FF2326F4FEB7570000E9
:1012F00083A7878F2322F4FE832744FE0327C4FE9F
:1013000023A0E700130000000324C1011301010220
:1013100067800000130101FE232E810013040102E7
:10132000B757000083A747902324F4FE832784FE49
:1013300083A707002326F4FE8327C4FE1385070036
:101340000324C1011301010267800000130101FEA3
:10135000232E8100130401022326A4FEB7570000A8
:101360000327C4FE23A4E78EB75700000327C4FE5B
:1013700023A6E78E8327C4FE13874700B7570000D4
:1013800023A8E78E8327C4FE13870701B757000001
:1013900023AAE78E8327C4FE13874701B7570000AF
:1013A00023ACE78E8327C4FE13878701B75700005D
:1013B00023AEE78E8327C4FE1387C701B75700000B
:1013C00023A0E7908327C4FE13870702B7570000C6
:1013D00023A2E790130000000324C10113010102BE
:1013E00067800000130101FF23268100130401011F
:1013F000B757000083A7878E138507000324C10019
:101400001301010167800000130101FE232E8100FA
:10141000130401022326A4FEB75700000327C4FECD
:1014200023A4E790B757000003A78790B7570000A1
:1014300023AEE792B757000083A787901387470032
:10144000B757000023A0E794B757000083A7879001
:1014500013878700B757000023A2E794B75700000F
:1014600083A787901387C700B757000023A4E7948A
:10147000B757000083A7879013870701B75700006D
:1014800023A6E79493070000138507000324C101F6
:101490001301010267800000130101FF2326810070
:1014A00013040101B757000083A787901385070035
:1014B0000324C1001301010167800000130101FF33
:1014C0002326810013040101130000000324C1003E
:1014D0001301010167800000130101FE232E81002A
:1014E00013040102B757000083A7C79483A707001E
:1014F0002326F4FE0327C4FE9307F0FF6316F700CC
:101500009307F0FF6F00C0008327C4FE93F7170016
:10151000138507000324C101130101026780000045
:10152000130101FD23268102130401039307050023
:1015300013870500A30FF4FC93070700230FF4FCA7
:101540008347F4FD9397170037570000032707944C
:1015500093F7E7072320F700B757000083A74794C6
:10156000138707008347E4FD2320F700930710004B
:101570002326F4FEB757000083A7C79313870700FD
:101580008327C4FE2320F700130000000324C102B8
:101590001301010367800000130101FD232681026E
:1015A0001304010393070500A30FF4FC8347F4FD24
:1015B0009397170013E70708B757000083A707940E
:1015C00023A0E700930730002326F4FEB75700005E
:1015D00083A7C793138707008327C4FE2320F70040
:1015E000B757000083A7879483A707002324F4FE3E
:1015F000832784FE93F7F70F138507000324C102A6
:101600001301010367800000130101FD232611026D
:1016100023248102130401039307050013870500A7
:10162000A30FF4FC93070700230FF4FC8347F4FD9A
:101630009397170093F7F70F93F7E707A307F4FEC5
:101640000347E4FD8347F4FE930507001385070075
:10165000EFF01FED130000008320C102032481027C
:101660001301010367800000130101FD232611020D
:10167000232481021304010393070500A30FF4FC44
:101680008307F4FD939717009397870193D78741BA
:1016900093F7E7079397870193D7874193E707F875
:1016A0009397870193D78741A307F4FE8347F4FEFE
:1016B00013850700EFF05FEE930705001385070021
:1016C0008320C1020324810213010103678000000B
:1016D000130101FF232611002324810013040101BB
:1016E0009305F00013051000EFF01FF21300000047
:1016F0008320C100032481001301010167800000E1
:10170000130101FF2326110023248100130401018A
:1017100013850154EFE01FF713850156EFE09FF6A4
:10172000EFF01FFB13850158EFE0DFF51385C1597A
:10173000EFE05FF59305D0081305A002EFF0DFECB2
:101740009305E0031305B002EFF01FEC9305E001F1
:101750001305D002EFF05FEB930500001305C00204
:10176000EFF09FEA1385415CEFE0DFF11385815EC6
:10177000EFE05FF19305000413055001EFF0DFE89F
:101780009305D00313051001EFF01FE813854161A5
:10179000EFE05FEF13858163EFE0DFEEEF00001114
:1017A00013850166EFE01FEE130000008320C100E7
:1017B000032481001301010167800000130101FD72
:1017C0002326110223248102130401039307050039
:1017D00013870500A30FF4FC93070700230FF4FC05
:1017E0008347F4FD13850700EFF01FE8930705001A
:1017F000A307F4FE8347F4FE138707008347E4FD45
:10180000B367F70013F7F70F8347F4FD930507005D
:1018100013850700EFF05FDF130000008320C10293
:10182000032481021301010367800000130101FDFD
:1018300023261102232481021304010393070500C8
:1018400013870500A30FF4FC93070700230FF4FC94
:101850008347F4FD13850700EFF01FE193070500B0
:10186000A307F4FE8307E4FD93C7F7FF13978701EF
:10187000135787418307F4FEB377F70093978701E7
:1018800093D7874113F7F70F8347F4FD93050700BC
:1018900013850700EFF05FD7130000008320C1021B
:1018A000032481021301010367800000130101FE7C
:1018B000232E1100232C81001304010213850168DB
:1018C000EFE05FDC13054001EFF01FDA930705003E
:1018D000A307F4FE8347F4FE938507001385816A0E
:1018E000EFE05FDA8347F4FE93F73700639C07006D
:1018F0001385816CEFE01FD993053000130540017B
:10190000EFF0DFEB1385016FEFE0DFD7130000008E
:101910008320C101032481011301010267800000BB
:10192000130101FF23261100232481001304010168
:101930009305300013054001EFF05FEF1300000046
:101940008320C1000324810013010101678000008E
:10195000130101FD2326810213040103232EA4FC9D
:10196000232604FE6F000003232404FE6F00000101
:10197000832784FE938717002324F4FE032784FE25
:101980009307703EE3F6E7FE8327C4FE93871700B4
:101990002326F4FE8327C4FE0327C4FDE3E6E7FC09
:1019A00013000000130000000324C102130101030F
:1019B00067800000130101FD232611022324810208
:1019C0002322910213040103232EA4FC9387050014
:1019D000232AC4FCA30DF4FC93054000130550001A
:1019E000EFF0DFE4930500081305A000EFF01FDD22
:1019F000A30704FE6F00C0028347F4FE0327C4FD63
:101A0000B307F70083C7070093850700130590000D
:101A1000EFF09FBF8347F4FE93871700A307F4FE00
:101A20000347F4FE8347B4FDE368F7FC93053000F9
:101A300013051000EFF05FBD9307F0FFA307F4FE5E
:101A400013055000EFF05FC2930705002307F4FE73
:101A50008347F4FE9387F7FFA307F4FE8347F4FE62
:101A6000638807008347E4FE93F74700E38A07FC97
:101A700013051002EFF05FBF9307050013870700FF
:101A8000832744FD2380E700832744FD93841700C8
:101A900013052002EFF05FBD930705002380F400DB
:101AA000130000008320C102032481028324410229
:101AB0001301010367800000130101FD23261102B9
:101AC00023248102232291021304010393070500BA
:101AD000232CB4FC232AD4FC2328E4FCA30FF4FC1D
:101AE00093070600230FF4FCA30704FE230704FE5C
:101AF000A30604FE8347F4FD1307C0006380E702DA
:101B00001307E0006396E702930720012307F4FE22
:101B100093070001A306F4FE6F00C001930770074E
:101B20002307F4FE93070003A306F4FE6F00800072
:101B3000130000008347E4FE93E707F893F7F70FDD
:101B40009385070013052000EFF01FAC93050008F4
:101B500013054000EFF09FCD930500081305A0008A
:101B6000EFF0DFC59305000013051000EFF0DFA9CB
:101B7000231504FE6F00C0028357A4FE032784FDD3
:101B8000B307F70083C7070093850700130590008C
:101B9000EFF09FA78357A4FE938717002315F4FE49
:101BA0008347E4FD9397070193D707010357A4FEEA
:101BB000E364F7FC8347F4FD9385070013051000E9
:101BC000EFF09FA40347F4FD9307C0006318F700EC
:101BD000930500081305D000EFF05FBE9307007D6A
:101BE0002315F4FE13054000EFF01FA8930705002E
:101BF0002306F4FE8357A4FE9387F7FF2315F4FE14
:101C00008357A4FE638407028347C4FE93F717003B
:101C1000639E07008347C4FE138707008347D4FEF3
:101C2000B377F70093F7F70FE38E07FA93050008F1
:101C30001305D000EFF09FBF8357A4FE6384071401
:101C400013056000EFF05FA29307050093F7B7015B
:101C50006398071293071000A307F4FE8347C4FE9E
:101C6000138707008347E4FEB377F70093F7F70F76
:101C700093F7170063840700A30704FE0347F4FDEE
:101C80009307C0006310F7101305A000EFF0DF9D6D
:101C9000930705002306F4FE1305C000EFF0DF9C58
:101CA0009307050093F77700A304F4FE834794FE9F
:101CB000638207048347C4FE9387F7FF9397070166
:101CC00093D707019397370013970701135707011D
:101CD000834794FE9397070193D70701B307F70053
:101CE0001397070113570701832704FD2390E7008B
:101CF0006F0040028347C4FE9397070193D7070103
:101D0000939737001397070113570701832704FDA3
:101D10002390E7008347C4FE6396070093071000F3
:101D20002306F4FE0347C4FE9307000163F6E700B1
:101D3000930700012306F4FE231504FE6F00C00282
:101D40008357A4FE032744FDB304F7001305900056
:101D5000EFF09F91930705002380F4008357A4FEC2
:101D6000938717002315F4FE8347C4FE939707015A
:101D700093D707010357A4FEE364F7FC6F008000CC
:101D8000A30704FE8347F4FE138507008320C102E6
:101D900003248102832441021301010367800000B0
:101DA000130101FD232611022324810213040103E0
:101DB00093070500232CB4FCA30FF4FC93057000DB
:101DC0001305D000EFF05F84832784FD0347F4FD03
:101DD0002380E7009307C4FE13870700832684FD52
:101DE00013061000832584FD1305C000EFF0DFCC3F
:101DF00093070500A307F4FE0347F4FE93071000C2
:101E00006318F7000357C4FE930700016304F7004B
:101E1000A30704FE8347F4FE138507008320C10255
:101E2000032481021301010367800000130101FDF7
:101E3000232611022324810213040103232EA4FC70
:101E4000A30604FE930500001305D000EFF0CFFBBE
:101E50008327C4FD130730F92380E7008327C4FDDF
:101E600093871700130700022380E7009307A4FE5F
:101E7000138707008326C4FD130620008325C4FDB5
:101E80001305C000EFF05FC393070500A307F4FE3E
:101E90000347F4FE93071000631EF704230704FEB4
:101EA0006F00C0028347E4FE0327C4FDB307F700B9
:101EB00083C707000347D4FEB3C7E700A306F4FEB9
:101EC0008347E4FE938717002307F4FE0347E4FEED
:101ED00093073000E3F8E7FC8347E4FE0327C4FDE3
:101EE000B307F70083C707000347D4FE6304F70076
:101EF000A30704FE8347F4FE138507008320C10275
:101F0000032481021301010367800000130101FD16
:101F1000232611022324810213040103232EA4FC8F
:101F2000930730F92300F4FE93070007A300F4FEA3
:101F3000A30704FE6F0040038347F4FE0327C4FD9C
:101F40003307F7008347F4FE938727000347070012
:101F5000938707FFB38787002388E7FE8347F4FE54
:101F600093871700A307F4FE0347F4FE930740008E
:101F7000E3F4E7FC930704FE13877700930704FE5E
:101F8000130607009305700013850700EFF09FA26A
:101F90001307A4FE930604FE930704FE13069000A5
:101FA000938507001305C000EFF01FB193070500EC
:101FB000A306F4FE0347D4FE93071000631EF70048
:101FC0000357A4FE930780016318F700834704FEBC
:101FD0002307F4FE6F008000230704FE8347E4FE1E
:101FE000138507008320C10203248102130101032A
:101FF00067800000130101FC232E1102232C8102B3
:10200000130401042326A4FC9307C4FD9385070051
:1020100013056002EFF0DFD893070500A307F4FE75
:102020000347F4FE93071000631CF7069307C4FDF3
:1020300013850700EFF09FDF93070500A307F4FE69
:102040000347F4FE93071000631CF704230704FE04
:102050006F0000030347E4FE8347E4FE8326C4FCCD
:10206000B387F600130707FF330787000347C7FE50
:102070002380E7008347E4FE938717002307F4FEDD
:102080000347E4FE93073000E3F6E7FC9307C4FD43
:1020900013850700EFF09FE793070500A307F4FE01
:1020A0008347F4FE138507008320C10303248103C3
:1020B0001301010467800000130101FD2326810242
:1020C00013040103232EA4FC232CB4FC232AC4FCF8
:1020D0008327C4FD2324F4FE232604FE6F00800220
:1020E000032784FE8327C4FEB307F700032784FD7C
:1020F0001377F70F2380E7008327C4FE9387170029
:102100002326F4FE0327C4FE832744FDE36AF7FC7D
:1021100013000000130000000324C1021301010397
:1021200067800000130101FD2326810213040103CF
:10213000232EA4FC232CB4FC232AC4FC8327C4FD37
:102140002324F4FE832784FD2322F4FE232604FEA9
:102150006F000003032744FE8327C4FE3307F70004
:10216000832684FE8327C4FEB387F6000347070057
:102170002380E7008327C4FE938717002326F4FEFD
:102180000327C4FE832744FDE366F7FC1300000029
:10219000130000000324C102130101036780000043
:1021A000130101FD2326810213040103232EA4FC45
:1021B000232CB4FC232AC4FC232604FE6F00000356
:1021C000032784FD8327C4FE3307F7008326C4FD5D
:1021D0008327C4FEB387F600034707002380E70088
:1021E0008327C4FE938717002326F4FE0327C4FE2B
:1021F000832744FD637CF702032784FD8327C4FE05
:10220000B307F70083C70700E39C07FA6F000002DB
:102210000327C4FD8327C4FEB307F700238007000C
:102220008327C4FE938717002326F4FE0327C4FEEA
:10223000832744FDE36EF7FC130000001300000049
:102240000324C1021301010367800000130101FD93
:102250002326810213040103232EA4FC232CB4FCA7
:10226000A30704FE6F00C0038347F4FE0327C4FDE9
:10227000B307F70003C707008347F4FE832684FDF6
:10228000B387F60083C707006306F70093070000D3
:102290006F0000028347F4FE93871700A307F4FE44
:1022A0000347F4FE93073000E3F0E7FC93071000C8
:1022B000138507000324C102130101036780000096
:1022C000130101FD232611022324810213040103BB
:1022D000232EA4FCA30704FE6F0000050347F4FEB1
:1022E0009307070093972700B387E700939727008A
:1022F000B387E7003757000013070795B387E70058
:102300008325C4FD13850700EFF05FF493070500F4
:10231000638607008347F4FE6F0040028347F4FEA4
:1023200093871700A307F4FEB757000083C727A2BF
:102330000347F4FEE364F7FA9307F0FF1385070001
:102340008320C1020324810213010103678000007E
:10235000130101FE232E1100232C8100130401021E
:10236000B7570000238107A21306200D9305000034
:10237000B757000013850795EFF01FD4B7273344F4
:10238000938717212326F4FE1307C4FE938541701B
:1023900013050700EF004003B7C7CCDD9387A7BA4A
:1023A0002324F4FE130784FE9385017113050700AF
:1023B000EF008001130000008320C101032481018C
:1023C0001301010267800000130101FE232E11009A
:1023D000232C8100130401022326A4FE2324B4FE2F
:1023E000B757000003C727A29307900063F6E700E2
:1023F000930700006F0080110325C4FEEFF05FEC2F
:102400009307050063C60700930700006F000010E4
:10241000B757000083C727A2138707009307070059
:1024200093972700B387E70093972700B387E700C8
:102430003757000013070795B387E70013064000DE
:102440008325C4FE13850700EFF0DFCDB7570000EA
:1024500083C727A213870700B75700009386079505
:102460009307070093972700B387E7009397270008
:10247000B387E700B387F600130710002382E70055
:10248000B757000083C727A21387070093070700E9
:1024900093972700B387E70093972700B387E70058
:1024A0003757000013070795B387E7009387570056
:1024B0001306F000832584FE13850700EFF05FCE3E
:1024C000B757000083C727A213870700B75700003C
:1024D000938607959307070093972700B387E70034
:1024E00093972700B387E700B387F600238A070096
:1024F000B757000083C727A29387170013F7F70F7A
:10250000B75700002381E7A2930710001385070047
:102510008320C101032481011301010267800000AF
:10252000130101FD23261102232481021304010358
:10253000232EA4FC0325C4FDEFF09FD82324A4FE82
:10254000832784FE63D60700930700006F00800A8C
:10255000832784FEA307F4FE6F00C0060347F4FE42
:102560009307070093972700B387E7009397270007
:10257000B387E7003757000013070795B386E700D6
:102580008347F4FE138717009307070093972700EC
:10259000B387E70093972700B387E700375700001A
:1025A00013070795B387E7001306500193850700CB
:1025B00013850600EFF01FB78347F4FE93871700DB
:1025C000A307F4FE0347F4FEB757000083C727A212
:1025D0009387F7FFE344F7F8B757000083C727A2B4
:1025E0009387F7FF13F7F70FB75700002381E7A290
:1025F00093071000138507008320C1020324810282
:102600001301010367800000130101FD232611025D
:102610002324810213040103232EA4FC0325C4FDFB
:10262000EFF01FCA2326A4FE8327C4FE63D607004B
:10263000930700006F00C002B7570000938607950C
:102640000327C4FE9307070093972700B387E7008B
:1026500093972700B387E700B387F60083C7470047
:10266000138507008320C1020324810213010103A3
:1026700067800000130101FD23261102232481023B
:1026800013040103232EA4FC93870500A30DF4FC7F
:102690000325C4FDEFF0DFC22326A4FE8327C4FE7A
:1026A00063D60700930700006F004003B757000090
:1026B000938607950327C4FE930707009397270087
:1026C000B387E70093972700B387E700B387F60047
:1026D0000347B4FD2382E70093071000138507002A
:1026E0008320C102032481021301010367800000DB
:1026F000130101FF2326810013040101B7570000D5
:1027000083C727A2138507000324C1001301010119
:1027100067800000130101FF2326810013040101DB
:10272000130000000324C1001301010167800000B1
:10273000130101FE232E810013040102B75700008C
:1027400083A7C79183A707002326F4FE8327C4FE2F
:10275000138507000324C1011301010267800000F3
:10276000130101FE232E8100130401022326A4FE7F
:10277000B757000083A70792138707008327C4FE7B
:102780002320F700130000000324C10113010102FC
:1027900067800000130101FD232681021304010359
:1027A000232EA4FC232CB4FC232AC4FC2328D4FC11
:1027B000232604FEB757000083A7879113870700DD
:1027C0008327C4FD2320F700B757000083A7079293
:1027D000138707008327C4FE2320F700B7570000A4
:1027E00083A7C79213870700832784FD2320F70060
:1027F000B757000083A7079313870700832744FD7B
:102800002320F700832704FD93C7F7FF2326F4FE58
:10281000B757000083A74792138707008327C4FE9A
:102820002320F700130000000324C1021301010359
:1028300067800000130101FD2326810213040103B8
:10284000232EA4FC8327C4FD93C7F7FF2326F4FEA1
:10285000B757000083A74792138707008327C4FE5A
:102860002320F700B757000083A7479283A70700EC
:102870002326F4FE8327C4FE138507000324C10228
:102880001301010367800000130101FE232E810064
:10289000130401022326A4FEB757000083A7C792A2
:1028A000138707008327C4FE2320F700B7570000D3
:1028B00083A7C79283A707002326F4FE8327C4FEBD
:1028C000138507000324C101130101026780000082
:1028D000130101FE232E8100130401022326A4FE0E
:1028E000B757000083A70793138707008327C4FE09
:1028F0002320F700B757000083A7079383A707009B
:102900002326F4FE8327C4FE138507000324C10198
:102910001301010267800000130101FE232E8100D4
:1029200013040102B757000083A7879283A707000B
:102930002326F4FE8327C4FE138507000324C10168
:102940001301010267800000130101FD23268102AB
:1029500013040103232EA4FCB757000083A787921A
:1029600083A707002326F4FE0327C4FE8327C4FDA4
:10297000B377F7002326F4FEB757000083A78792AA
:10298000138707008327C4FE2320F700B7570000F2
:1029900083A7879283A70700232EF4FC8327C4FD17
:1029A000138507000324C10213010103678000009F
:1029B000130101FE232E1100232C810013040102B8
:1029C000B757000083A7079183A707002326F4FECB
:1029D0008325C4FE1385C171EFD0DFCAB75700004D
:1029E00083A7479183A707002326F4FE8325C4FE0F
:1029F00013854173EFD01FC9B757000083A7879194
:102A000083A707002326F4FE8325C4FE1385C17423
:102A1000EFD05FC7B757000083A7C79183A7070010
:102A20002326F4FE8325C4FE13854176EFD09FC58F
:102A3000B757000083A7079283A707002326F4FE59
:102A40008325C4FE1385C177EFD0DFC3B7570000DD
:102A500083A7479283A707002326F4FE8325C4FE9D
:102A600013854179EFD01FC2B757000083A7879223
:102A700083A707002326F4FE8325C4FE1385C17AAD
:102A8000EFD05FC0B757000083A7C79283A70700A6
:102A90002326F4FE8325C4FE1385417CEFD09FBE20
:102AA000B757000083A7079383A707002326F4FEE8
:102AB0008325C4FE1385C17DEFD0DFBC1300000069
:102AC0008320C101032481011301010267800000FA
:102AD000130101FE232E8100130401022326A4FE0C
:102AE000B75700000327C4FE23A6E790B75700009E
:102AF0000327C4FE23A8E7908327C4FE138747005B
:102B0000B757000023AAE7908327C4FE1387070165
:102B1000B757000023ACE7908327C4FE1387470113
:102B2000B757000023AEE7908327C4FE13878701C1
:102B3000B757000023A0E7928327C4FE1387C7017D
:102B4000B757000023A2E7928327C4FE138707022A
:102B5000B757000023A4E7928327C4FE13874702D8
:102B6000B757000023A6E7928327C4FE1387870286
:102B7000B757000023A8E7929307000013850700CA
:102B80000324C1011301010267800000130101FF4A
:102B90002326810013040101B757000083A7C790C3
:102BA000138507000324C1001301010167800000A1
:102BB000370810001308F8FF130101FEB378B800BE
:102BC00013D745019357D5013378D800232A9100B4
:102BD0009374F77F1397380093D846011318380081
:102BE00023282101B3E7E70093F8F87F1357D601B4
:102BF000232E1100232C81002326310113D9F50146
:102C000093D6F60133670701131535001316360006
:102C100033881441631AD92A635C00116390080455
:102C2000B366C700638006669305F8FF63900502EC
:102C30003306C500B336A6003387E7001305060048
:102C4000B307D700930410006F00C0069306F07F0F
:102C50006310D8029304F07F6F00801F9306F07F0B
:102C60006388D41EB70680003367D7009305080039
:102C70009306800363C8B60A9306F00163CAB606DA
:102C8000130800023308B840B3160701B358B60062
:102C900033180601B3E6160133380001B3E6060126
:102CA000B355B7003385A600B385F500B336D5001C
:102CB000B387D50013978700635C071893841400CB
:102CC0001307F07F638AE45A370780FF1307F7FF83
:102CD00033F7E7009357150013751500B3E7A70006
:102CE0001315F7013365F500935717006F00401671
:102CF000938605FE93080002B356D7001308000020
:102D000063881501130800043308B840331807011D
:102D10003368C80033380001B3E6060193050000AC
:102D20006FF05FF8B366C700B336D0006FF01FFFD7
:102D3000630A080CB386984063940402B3E5A700C5
:102D4000638E05509385F6FFE38405EE1308F07F4C
:102D50006392060393070700130506006FF09FEFC9
:102D60009305F07FE388B8FEB7058000B3E7B700AE
:102D7000938506009306800363C0B6089306F001AE
:102D800063C2B604130800023308B840B3960701C3
:102D90003353B50033180501B3E66600333800013C
:102DA000B3E60601B3D5B7003386C600B385E500A8
:102DB000B336D60013050600B387D5009384080008
:102DC0006FF05FEF938605FE13030002B3D6D700C2
:102DD0001308000063886500130800043308B84036
:102DE000339807013368A80033380001B3E60601C1
:102DF000930500006FF05FFBB3E6A700B336D00089
:102E00006FF01FFF9386140093F5E67F6396050825
:102E1000B3E6A7006392040663880644B366C7005E
:102E2000638806023306C500B336A6003387E70081
:102E3000B307D7001397870013050600635A0700EE
:102E4000370780FF1307F7FFB3F7E700930410007D
:102E500013777500630807441377F5009306400065
:102E60006302D74413074500B336A700B387D700E2
:102E7000130507006F000043E38E06EC3366C700BE
:102E8000E30A06DC13090000B70740001305000041
:102E90009304F07F6F0000419305F07F638CB63C94
:102EA0003306C5003335A6003387E7003307A70094
:102EB0001315F701135616003365C5009357170015
:102EC000938406006FF0DFF8635C000F639E0808D0
:102ED000B366C7006388063A9306F8FF639006025C
:102EE0003306C540B336C5003387E74013050600F7
:102EF000B307D740930410006F0040059305F07F9F
:102F0000E30AB8D49305800363C6D50A9305F0019C
:102F100063C8D506130800023308D840B358D6005A
:102F2000B315070133180601B3E515013338000165
:102F300033E60501B356D7003306C5403337C50025
:102F4000B386D74013050600B387E6401397870082
:102F5000E35007F0370480001304F4FF33F48700D4
:102F6000930905006F0000219306F07FE382D4EE01
:102F7000B70680003367D700930608006FF09FF80C
:102F8000938506FE93080002B355B70013080000AE
:102F900063881601130800043308D840331807016A
:102FA0003368C8003338000133E60501930600009A
:102FB0006FF09FF83366C7003336C0006FF01FFF15
:102FC0006308080E3388984063920404B3E5A700B1
:102FD000638E052A9305F8FF639E05003305A6401E
:102FE0003307F7403336A600B307C74013890600FE
:102FF0006FF05FF01303F07F63146802930707001C
:10300000130506009304F07F6F00000D9305F07F19
:10301000E386B8FEB7058000B3E7B7009305080064
:10302000130880036340B8081308F0016342B80432
:10303000130300023303B340335EB50033986700D7
:10304000331365003368C8013333600033656800AB
:10305000B3D5B7003305A640B305B7403336A60055
:10306000B387C54093840800138906006FF01FEEF4
:10307000138805FE130E000233D807011303000066
:103080006388C501130300043303B340339367001F
:103090003363A30033336000336568009305000099
:1030A0006FF05FFB33E5A7003335A0006FF01FFF23
:1030B0009385140093F5E57F6396050833E8A70030
:1030C000B365C70063900406631C0800638E051097
:1030D0009307070013050600138906006FF05FD7FA
:1030E000E38805D63308C540B3380501B385E7400A
:1030F000B38515419398850063DC08003305A6402D
:103100003307F7403336A600B307C7406FF0DFFC44
:103110003365B8006304051893870500130508009C
:103120006FF01FD3631C0800E38E05D493070700DC
:1031300013050600138906006FF0DFB1E38C05B0BC
:103140006FF05FD4B305C5403338B5003384E74032
:103150003304044113188400938905006350080860
:10316000B309A6403304F740333636013304C44074
:1031700013890600630E040613050400EF00906136
:10318000930685FF93070002B387D7403314D4001A
:10319000B3D7F900B3E787003394D90063C4960A24
:1031A000B3869640138616001307F0016342C706E4
:1031B000130700023307C7403395E700B356C40036
:1031C0003317E4003365D5003337E0003365E5009D
:1031D000B3D7C700930400006FF09FC7B3E5850025
:1031E000E39A05F893040000130900006F00C0087B
:1031F00013850900EF00105A930685019307F0012B
:10320000E3D2D7F8930785FFB397F9006FF01FF962
:10321000938616FE33D5D7009306000213070000ED
:103220006308D600130700043307C7403397E7004D
:103230003367E4003337E0003365E50093070000AF
:103240006FF05FF9370780FF1307F7FFB384D440AF
:10325000B3F7E700130504006FF09FBF9307070063
:10326000130506006FF0DFC593070700130506007E
:103270006FF01FBE9304F07F93070000130500005A
:103280006F004002930408006FF09FBC9307070093
:1032900013050600930408006FF01FE49307000075
:1032A0001309000013978700635E070093841400DE
:1032B0001307F07F6382E408370780FF1307F7FFE7
:1032C000B3F7E7009396D701135535001307F07F46
:1032D000B3E6A60093D73700639EE400B3E6F6009A
:1032E0009307000063880600B707080093060000F4
:1032F00013090000139744013706F07F9397C70026
:103300003377C7008320C1010324810193D7C7000D
:10331000B367F7001317F90133E6E700832441018F
:10332000032901018329C1001385060093050600C6
:1033300013010102678000009307000013050000DD
:103340006FF05FF813D74501B70610009387F6FFBB
:103350001377F77F1306E03FB3F7B70093D5F50176
:10336000635EE6041306D041635AE6003705008029
:103370001305F5FF3385A50067800000B3E7D7008C
:1033800093063043B386E6401306F0016340D6024D
:103390001307D7BEB397E7003355D50033E5A70031
:1033A000638005023305A04067800000930630412A
:1033B0003387E64033D5E7006FF09FFE130500002A
:1033C00067800000130101FF2324810023261100E0
:1033D0001304050063020506EF00D03B1307E0412C
:1033E0009307A0003307A74063C0A7049307B0006A
:1033F000B387A74013055501B357F4003314A40055
:103400008320C100130504009397C70003248100A3
:103410001317470193D7C700B366F70093850600DB
:103420001301010167800000130555FFB317A400C5
:10343000130400006FF0DFFC930700001307000087
:103440006FF01FFC93567501B70780009387F7FF55
:1034500013D6750193F6F60F9308F00F33F8A70013
:103460001357F501B3F7B7001376F60F93D5F501AF
:1034700013051000639A1601631608006314D60042
:10348000638A070067800000E30E16FFE39CC6FE18
:10349000E31AF8FE13050000E306B7FE130510005B
:1034A000E39206FE3335000167800000B707800015
:1034B0009387F7FF9356750133F6A7001357F5016D
:1034C00093F6F60F13D575011308F00FB3F7B70095
:1034D0001375F50F93D5F501639406016312060485
:1034E0001308F00F63140501639C0702639A060436
:1034F000631C0502631806046382070413051000A9
:10350000639E05021305F0FF67800000E3C8A6FE76
:1035100063E2C702130500006372F6026FF01FFE3C
:103520001305200067800000E30A06FC639EE500A7
:10353000E35ED5FC1305F0FF638C05006780000097
:10354000E31605FEE39407FE1305F0FFE31807FEFC
:103550001305100067800000130101FE23282101DC
:1035600013597501232A9100232631012322510189
:1035700093149500232E1100232C81002324410154
:103580001379F90F938A050093D494009359F501A8
:10359000630809109307F00F6304F9129394340041
:1035A000B7070004B3E4F400130919F8130A000084
:1035B00093D77A0113949A0093F7F70F135494005A
:1035C00093DAFA01638E07101307F00F638AE7128C
:1035D00013143400370700043364E400938717F8AA
:1035E000130700003309F90093172A00B3E7E70037
:1035F0001306A000930619006342F61E130620006E
:10360000B3C95901634EF6109387F7FF13061000F4
:10361000637AF612370801001305F8FF13D6040188
:1036200093570401B3F4A4003374A400B3059402C7
:10363000330486023306F602B38797023387870086
:1036400093D70501B387E70063F4870033060601CB
:1036500033F7A70013170701B3F5A5003307B70029
:1036600093D7070113146700B387C7001357A70147
:1036700093976700333480003364E4001397470066
:1036800033E48700635A070093571400137414003F
:1036900033E4870013890600930609006F00000CCD
:1036A000638A040213850400EF00D00E9307B5FF70
:1036B0001309A0F8B394F4003309A9406FF01FEF89
:1036C0001309F00F130A2000E38404EE130A3000FC
:1036D0006FF01FEE13090000130A10006FF05FED8A
:1036E000630A040213050400EF00D00A9307B5FF34
:1036F0003314F4009307A0F8B387A7406FF05FEE90
:103700009307F00F13072000E30E04EC13073000BB
:103710006FF05FED93070000130710006FF09FEC50
:1037200013061000B317F60013F607536310060CC8
:1037300013F607246312061293F78708E38C07EC4D
:1037400093890A00930720006302F7109307300063
:103750006304F710930710006308F7101387F60748
:10376000635CE00893777400638A07009377F40042
:10377000130640006384C7001304440093174400F9
:1037800063DA0700B70700F89387F7FF3374F40094
:10379000138706089307E00F63CAE70A93573400BC
:1037A0008320C101032481019397970013157701AA
:1037B00093D797009399F9013365F500832441016C
:1037C00003290101032A8100832A41003365350161
:1037D0008329C10013010102678000001306F00075
:1037E000638CC7061306B000E38CC7F4138404008F
:1037F00013070A006FF01FF593071000B387E74027
:103800001307B0016342F7069386E609B316D400A6
:10381000B357F400B336D000B3E7D70013F77700FF
:10382000630A070013F7F700930640006304D7000C
:10383000938747001397570093D7370063580702C1
:1038400093070000130710006FF09FF59307000027
:103850001307F00F6FF0DFF4B70740001307F00F06
:10386000930900006FF0DFF39307000013070000D7
:103870006FF01FF3B70680009386F6FF130101FF78
:1038800033F6A60013577501232481001354F50164
:103890001315360013D67501B3F6B60023202101A7
:1038A000232611001379F70F232291001376F60FC8
:1038B0001307F00F93D5F501939736006314E600D4
:1038C0006394070093C51500B306C940639085183B
:1038D000635CD00863160602638007029306F9FF53
:1038E00063980600B387A700130910006F00C00497
:1038F0001307F00F631EE900930705006F00C01067
:103900001307F00FE30AE9FE37070004B3E7E70007
:103910001306B00113071000634ED6001306000211
:1039200033D7D700B306D640B396D700B336D0000E
:103930003367D700B307A700139757006356070CE8
:10394000130919001307F00F630AE92C3707007EEB
:1039500093F617001307F7FF93D71700B3F7E700A5
:10396000B3E7D7006F00400A638606063307264197
:10397000631009026308050C9306F7FFE38406F65B
:103980009305F00F6310B7021309F00F6F00C00723
:103990009306F00FE30AD6FEB70600043365D500A0
:1039A000930607009305B0011307100063CED500FE
:1039B000130700023307D7403317E500B355D5008E
:1039C0003337E00033E7E500B387E700130906006B
:1039D0006FF09FF6130719009376E70F639C0604B8
:1039E0006312090463020502E38807F0B387A700A6
:1039F00013975700635A0700370700FC1307F7FFB8
:103A0000B3F7E7001309100013F77700630A0720E4
:103A100013F7F700930640006304D720938747000D
:103A20006F000020E30205F6639607169307050072
:103A30006FF09FF59306F00F6300D71EB307F500F4
:103A400093D71700130907006FF01FFC635ED006C1
:103A500063120606E38207EA9306F9FF63980600FD
:103A6000B307F540130910006F0040031307F00F70
:103A7000E304E9E81306B00113071000634ED60013
:103A80001306000233D7D700B306D640B396D7004B
:103A9000B336D0003367D700B307E540139757001C
:103AA000E35407F6B70400049384F4FFB3F49700DB
:103AB0006F0080101307F00FE300E9E437070004FC
:103AC000B3E7E7006FF01FFB638E0606330726415E
:103AD00063160902630E051A9306F7FF6398060042
:103AE000B387A740138405006FF0DFF71308F00FCA
:103AF000631007031309F00F6F00C0199306F00F4E
:103B0000E30AD6FEB70600043365D5009306070026
:103B10001308B00113071000634ED800130700020A
:103B20003307D7403317E5003358D5003337E0006B
:103B30003367E800B387E7401309060013840500E4
:103B40006FF0DFF5130719001377E70F631C070405
:103B5000631C090263180500639E0712130400002A
:103B60006F00000CE38A07D83307F540931657001F
:103B7000B387A74063C0061293070700E31607E860
:103B8000930700006FF09FFDE31005EA1384050022
:103B9000E39C07DE13040000B70700021309F00FCF
:103BA0006F000008B304F5401397540063540704F2
:103BB000B384A7401384050013850400EF00803D03
:103BC0001305B5FFB394A400634E250333052541C7
:103BD00013051500130700023307A740B3D7A4004D
:103BE000B394E400B3349000B3E7970013090000E6
:103BF0006FF09FE1E39204FC9307000013090000BB
:103C00006FF0DFF5B70700FC9387F7FF3309A94092
:103C1000B3F7F4006FF05FDF1309F00F93070000B4
:103C200013975700635E0700130919001307F00F7D
:103C30006306E906370700FC1307F7FFB3F7E70051
:103C40001307F00F93D737006318E9006386070066
:103C5000B7074000130400008320C1001317790147
:103C60001315F401B706807F032481009397970012
:103C70003377D70093D79700B367F70083244100C9
:103C80000329010033E5A70013010101678000004B
:103C900013090700138405006FF01FD79307000076
:103CA0006FF01FFA37068000135775019307F6FF70
:103CB0001377F70F9305E007B3F7A7009356F501C5
:103CC00063D6E5049305D00963DAE5003705008083
:103CD0001305F5FF3385A6006780000033E5C700B4
:103CE0009307500963DCE7001307A7F63315E500D7
:103CF000638006023305A0406780000093076009D7
:103D0000B387E7403355F5006FF09FFE13050000C1
:103D100067800000130101FF232611002324810086
:103D200023229100930705006300050E1357F54108
:103D30003344A7003304E4409354F5011305040011
:103D4000EF0040259307E009B387A74013076009F8
:103D50006340F70413078000630EE50A130585FF2F
:103D60003314A40013149400135494009397770110
:103D70008320C100B3E78700032481001395F40179
:103D800033E5A7008324410013010101678000008F
:103D9000130790096354F706130750003307A74031
:103DA0009306B5013357E4003314D4003334800054
:103DB00033678700370400FC1304F4FF9376770021
:103DC00033748700638A06001377F7009306400078
:103DD0006304D7001304440013175400635C070006
:103DE000B70700FC9387F7FF3374F4009307F009DB
:103DF000B387A740135434006FF0DFF61307B5FF05
:103E00003317E4006FF01FFB93040000130400005D
:103E10006FF05FF5930760096FF0DFF413D645018B
:103E20001376F67F9397C5001307160093D7970074
:103E30009356D5011377E77FB3E6F60093D5F501E6
:103E4000931735006306070A130706C81308E00F27
:103E50006342E80C6340E008130590FE634AA71034
:103E600037058000B3E6A6001305E0013305E54001
:103E70001308F0016348A802130626C833D5A7002B
:103E8000B397C700B337F000B396C600B3E7D700C7
:103E9000B367F5001307000093F677006380060808
:103EA0006F00800D1308E0FF3308E840930800021C
:103EB00033D806011307000063061501130626CA4E
:103EC0003397C6003367F7003337E000B367E80085
:103ED0006FF05FFC131565003335A0009396360034
:103EE00093D7D701B366D500B3E7F6006FF0DFFADA
:103EF000B3E7F60063160600B337F0006FF09FF9E2
:103F00001307F00F638C070093963600B707000283
:103F10006FF09FFD930700001307F00F9396570073
:103F200063DE0600130717009306F00F6300D70641
:103F3000B70600FC9386F6FFB3F7D7009306F00FA1
:103F400093D737006318D70063860700B707400090
:103F500093050000B706807F131777013377D700EA
:103F60003367F7001395F5013365A70067800000FC
:103F7000930710001307000093F6F70013064000A4
:103F8000E38EC6F8938747006FF05FF99307000050
:103F90006FF0DFFAB7070100637AF5029337051077
:103FA00093B7170093973700374700009306000236
:103FB000B386F6403355F5009307477DB387A700D6
:103FC00003C507003385A64067800000370700015E
:103FD00093078001E37AE5FC930700016FF0DFFCB3
:103FE0000D0A5B53797374656D5D20554152542001
:103FF000496E697469616C697A65640D0A00000034
:104000005B44454255475D204265666F72652047B7
:1040100050494F20696E69740D0A00005B53797333
:1040200074656D5D204750494F20496E6974696120
:104030006C697A656420284C454473204F464629B4
:104040000D0A00005B53797374656D5D20496E69DC
:104050007469616C697A696E672053504920636F97
:104060006E74726F6C6C65722E2E2E0D0A0000003D
:104070005B53797374656D5D2053504920636F6E97
:1040800074726F6C6C657220696E697469616C69B9
:104090007A65640D0A0000005B4D465243353232AA
:1040A0005D20496E697469616C697A696E67205236
:1040B000464944207265616465722E2E2E0D0A00F9
:1040C0005B4D4652433532325D20536F6674207229
:1040D00065736574206F6E6C792E2E2E0D0A0000AC
:1040E0005B4D4652433532325D20496E6974207310
:1040F0006B69707065642028416E74656E6E614FE7
:104100006E206361757365732068616E67290D0A9F
:10411000000000005B4D4652433532325D2052654F
:104120006164696E672056657273696F6E2E2E2EFC
:104130000D0A00005B4D4652433532325D20566514
:104140007273696F6E3A203078253032780D0A002C
:104150005B4361726444425D20496E697469616CBD
:10416000697A696E67206361726420646174616258
:104170006173652E2E2E0D0A000000005B436172F4
:104180006444425D2052656769737465726564209A
:1041900063617264733A2025640D0A000D0A000001
:1041A0003D3D3D3D3D3D3D3D3D3D3D3D3D3D3D3D3F
:1041B0003D3D3D3D3D3D3D3D3D3D3D3D3D3D3D3D2F
:1041C0003D3D3D3D3D3D3D3D0D0A0000202020533D
:1041D0005049204D49534F20446961676E6F737495
:1041E000696320546573740D0A0000002D2D2D2085
:1041F00054657374204379636C65205374617274E1
:10420000202D2D2D0D0A00000D0A5B5465737420BE
:10421000315D2052656164696E6720766172696FF5
:104220007573204D4652433532322072656769738B
:10423000746572733A0D0A00202056657273696FB7
:104240006E202830783337293A2020202020203053
:1042500078253032780D0A0020204D6F64652028C3
:1042600030783131293A2020202020202020203091
:1042700078253032780D0A002020436F6D6D616E15
:1042800064202830783031293A2020202020203026
:1042900078253032780D0A002020537461747573CC
:1042A00031202830783037293A2020202020203033
:1042B00078253032780D0A000D0A5B54657374203E
:1042C000325D2057726974652F5265616420746590
:1042D00073743A0D0A000000202057726974696EE9
:1042E00067203078414120746F204D6F64652072E3
:1042F000656769737465722E2E2E0D0A000000002A
:10430000E29C93204D41544348000000E29C9720DA
:104310004D49534D41544348000000002020526550
:104320006164206261636B3A2030782530327820F6
:1043300025730D0A000000000D0A5B54657374209C
:10434000335D2053657175656E7469616C205665C7
:104350007273696F6E207265616473202873686F71
:10436000756C6420626520636F6E73697374656E2B
:1043700074293A0D0A00000020202325643A2030D9
:1043800078253032780D0A000D0A5B416E616C7938
:104390007369735D0D0A00002020E29C97204D494F
:1043A000534F2070726F626C656D3A20416C6C20C7
:1043B00072656164732072657475726E2030782541
:1043C0003032780D0A0000002020E28692204368F7
:1043D00065636B204D49534F207769726520636F89
:1043E0006E6E656374696F6E210D0A002020E29C79
:1043F000932056657273696F6E20636F7272656386
:10440000743A2053504920776F726B696E67210DA3
:104410000A00000020203F20556E657870656374A7
:1044200065642076657273696F6E3A203078253046
:1044300032780D0A000000000D0A2D2D2D20576145
:104440006974696E672033207365636F6E64732EC1
:104450002E2E202850726573732027712720746FC9
:10446000206578697429202D2D2D0D0A0D0A000074
:104470000D0A5B457869745D20546573742073740C
:104480006F707065640D0A005B53797374656D5DC0
:104490002050726F6772616D20656E6465640D0AED
:1044A000000000003031323334353637383941427C
:1044B0004344454600000000600A0000D00A0000A6
:1044C000200C0000B40B0000200C0000200C0000A9
:1044D000200C0000200C0000200C0000200C00002C
:1044E000200C0000200C0000940A0000200C0000AA
:1044F000200C0000200C0000480B0000200C0000E5
:10450000200C0000200C0000200C00000C0B000010
:104510000000204100000000000000000000E03F1B
:104520005B4D4652433532325F496E69745D2053AC
:1045300074617274696E672E2E2E0D0A00000000E1
:104540005B4D4652433532325F496E69745D20538C
:104550006F66742072657365742E2E2E0D0A00002E
:104560005B4D4652433532325F496E69745D20526D
:104570006573657420646F6E650D0A005B4D46526D
:10458000433532325F496E69745D20436F6E6669F0
:10459000677572696E672074696D65722E2E2E0DB7
:1045A0000A0000005B4D4652433532325F496E6966
:1045B000745D2054696D657220636F6E66696775FE
:1045C0007265640D0A0000005B4D4652433532327D
:1045D0005F496E69745D2053657474696E67205419
:1045E000582F4D6F646520726567732E2E2E0D0A4D
:1045F000000000005B4D4652433532325F496E6920
:10460000745D2054582F4D6F646520726567732068
:10461000646F6E650D0A00005B4D465243353232C1
:104620005F496E69745D205475726E696E672061B2
:104630006E74656E6E61206F6E2E2E2E0D0A000058
:104640005B4D4652433532325F496E69745D204995
:104650006E697420636F6D706C657465210D0A005E
:104660005B416E74656E6E614F6E5D205265616474
:10467000696E672054585F434F4E54524F4C20721E
:1046800065672E2E2E0D0A005B416E74656E6E619D
:104690004F6E5D2054585F434F4E54524F4C203D57
:1046A00020307825780D0A005B416E74656E6E616E
:1046B0004F6E5D2053657474696E6720616E74651A
:1046C0006E6E6120626974732E2E2E0D0A0000003A
:1046D0005B416E74656E6E614F6E5D20446F6E65FA
:1046E0000D0A00004D6173746572204361726400AD
:1046F0005573657220436172640000004750494F52
:104700002056455253494F4E3A203078253038587C
:104710000A0000004750494F204E414D45202020BF
:104720003A203078253038580A0000004750494F69
:1047300020444952202020203A2030782530385813
:104740000A0000004750494F20494E505554202040
:104750003A203078253038580A0000004750494F39
:10476000204F5554505554203A2030782530385831
:104770000A0000004750494F204D41534B20202054
:104780003A203078253038580A0000004750494F09
:1047900020495251202020203A20307825303858A6
:1047A0000A0000004750494F20454447452020203B
:1047B0003A203078253038580A0000004750494FD9
:1047C00020504F4C202020203A2030782530385877
:1047D0000A000000000102020303030304040404AE
:1047E000040404040505050505050505050505057D
:1047F000050505050606060606060606060606065D
:104800000606060606060606060606060606060648
:10481000060606060707070707070707070707072C
:104820000707070707070707070707070707070718
:104830000707070707070707070707070707070708
:1048400007070707070707070707070707070707F8
:1048500007070707080808080808080808080808DC
:1048600008080808080808080808080808080808C8
:1048700008080808080808080808080808080808B8
:1048800008080808080808080808080808080808A8
:104890000808080808080808080808080808080898
:1048A0000808080808080808080808080808080888
:1048B0000808080808080808080808080808080878
:1048C0000808080808080808080808080808080868
:0848D00008080808932055AA0E
:1048D80000000000000000000000000000000000D0
:1048E8000000029000000290040002901000029064
:1048F80014000290180002901C0002902000029000
:10490800000000C0000005C0000005C0040005C08C
:10491800100005C0140005C0180005C01C0005C023
:10492800200005C0240005C0280005C000000000C4
:00000001FF
